:020000040800F2
:1000000080080020AD0100088B170008E7160008E3
:1000100089170008A1090008691B000800000000FA
:100020000000000000000000000000008F17000822
:10003000A3090008000000008D17000891170008B0
:10004000C7010008C7010008C7010008C701000870
:10005000C7010008C7010008C7010008C701000860
:10006000C7010008C7010008C7010008C701000850
:10007000C7010008C7010008C7010008C701000840
:10008000C7010008C7010008C70100080000000000
:10009000000000000000000000000000C701000890
:1000A000C7010008C7010008C7010008C701000810
:1000B000C7010008C7010008C7010008C701000800
:1000C000C7010008C7010008C7010008C7010008F0
:1000D000C7010008C7010008C701000800000000B0
:1000E000C7010008C7010008C701000800000000A0
:1000F000000000000000000000000000C701000830
:1001000000000000C7010008C7010008C70100087F
:1001100000000000000000000000000000000000DF
:10012000C7010008C7010008C7010008C70100088F
:10013000C7010008000000000000000000000000EF
:10014000000000000000000000000000C7010008DF
:10015000C7010008C7010008C7010008C70100085F
:10016000C7010008C70100080000000000000000EF
:10017000000000000000000000000000000000007F
:1001800000000000C701000800000000000000009F
:10019000C7010008C7010008DFF80CD000F05AFBC7
:1001A0000048004791240008800800200648804746
:1001B00006480047FEE7FEE7FEE7FEE7FEE7FEE74C
:1001C000FEE7FEE7FEE7FEE70518000899010008D4
:1001D0002DE9F05F0546002092469B46884606467C
:1001E000814640241BE0284641464746224600F00F
:1001F0004AFA53465A46C01A914110D3114618463E
:10020000224600F031FA2D1A67EB01084F462246CC
:100210000120002100F028FA17EB00094E41201EB2
:10022000A4F10104DFDC484631462A464346BDE8D6
:10023000F09FD2B201E000F8012B491EFBD27047BB
:100240000022F6E710B513460A4604461946FFF7A2
:10025000F0FF204610BD30B505462A460B4612F881
:10026000010B13F8014B08B1A042F8D01CB10028D3
:1002700002D06D1CF1E7284630BD10B5044604E0FD
:100280000B7800F8013B03B1491C521EF8D22046FE
:1002900010BDCAB2401E10F8011F8A4202D00029C8
:1002A000F9D100207047421C10F8011B0029FBD136
:1002B000801A70472DE9FE4F804681EA0300C00F87
:1002C0000C46009021F0004123F00045B8EB0200FD
:1002D000A94105D24046214690461C460B4602469F
:1002E00023F00040104347D0270DC7F30A00C3F3A3
:1002F0000A510290401A019040286BDAC3F31300B0
:1003000040F4801B0098924620B10023D2EB030AF0
:1003100063EB0B0B01985946C0F14002504600F0C8
:10032000A3F906460D4650465946019A00F0BBF91E
:1003300010EB08006141002487EA115284EAE77358
:100340001A4340D0009A62B3019A012A4FEA075239
:1003500015DC001B61EB02014FF0004202EA07527C
:10036000CDE90042001C41F5801132462B4600F0D9
:10037000F2F903B0BDE8F08F40462146F9E7001BD3
:1003800061EB0201001C41F5801300185B4120184D
:10039000A2F5001747EB030140EAD570B6196D418D
:1003A00011E06D084FEA360645EAC0754FEA07527C
:1003B000001B61EB0201001C41F5801149084FEA66
:1003C00030000019514132462B4603B0BDE8F04FD2
:1003D00000F0B2B90098012240000023D0EB0202E5
:1003E00063EBE073009821464FEAE074B8EB00003D
:1003F00061EB0401E9E783F000435BE781F0004132
:1004000058E72DE9FE4F81EA030404F0004421F08F
:10041000004100944FF0000B23F0004350EA010428
:100420005ED052EA03045BD0C3F30A54C1F30A5509
:100430002C44A4F2F3340194A0FB0254C1F3130141
:1004400041F48011C3F3130343F4801301FB02440E
:1004500000FB034E840A970A44EA815447EA835713
:10046000A4FB076802958D0A05FB07854FEA932CCC
:1004700004FB0C542705029D4FEA065847EA16373D
:10048000B5EB08056EEB070C870E920E47EA811755
:1004900042EA8312A7FB0201B6EB0B0164EB0004F6
:1004A0002B0D43EA0C335E1844EB1C50DA465146E0
:1004B000E7FB0201C5F313044FEA0B3343EA14537D
:1004C0004FEA0432019C43EA0603A4F10C040294AF
:1004D000009CCDE900B400F03EF903B0BDE8F08F18
:1004E00000200146F9E72DE9F04D81EA030404F00C
:1004F000004B21F0004514464FF0000A23F0004164
:1005000050EA050220D054EA01021DD0C5F30A5773
:100510000246C5F31303C1F31300C1F30A5640F4B6
:10052000801543F48013A7EB0608101BD64608F28B
:10053000FD3873EB050002D308F1010801E09218C1
:100540005B41B8F1000F03DA00200146BDE8F08DF1
:1005500000204FF48011064684460EE0171B73EB13
:10056000050705D3121B63EB050306434CEA010C98
:1005700049084FEA300092185B4150EA0107EDD17B
:1005800052EA030012D082EA040083EA050108431C
:1005900005D0101BAB4106D20122002306E0002249
:1005A0004FF0004302E06FF0010253101AEB060017
:1005B0004CEB085110EB0A0041EB0B01BDE8F04D8C
:1005C00000F0BAB80EB540F2334102910021CDE9F6
:1005D00000110A460B4600F0BEF803B000BD00F063
:1005E000004230F000400AD0C10D01F56071C0F347
:1005F000160042EA0151C20840071143704700202B
:100600000146704701F0004330B421F0004150EA48
:10061000010206D00A0DA2F56072C1F31301002A8F
:1006200002DC30BC00207047440F44EAC104C10022
:10063000E01830BC00EBC25000F047B830B50B46B4
:10064000014600202022012409E021FA02F59D4202
:1006500005D303FA02F5491B04FA02F52844151ED6
:10066000A2F10102F1DC30BD202A04DB203A00FABD
:1006700002F1002070479140C2F1200320FA03F3F9
:10068000194390407047202A04DB203A21FA02F0F7
:100690000021704721FA02F3D040C2F120029140BC
:1006A000084319467047202A06DBCB17203A41FA47
:1006B00002F043EAE07306E041FA02F3D040C2F1EF
:1006C000200291400843194670470029A8BF70478F
:1006D000401C490008BF20F00100704710B4B0FA78
:1006E00080FC00FA0CF050EA010404BF10BC704713
:1006F00049B1CCF1200421FA04F411FA0CF118BF2D
:10070000012121430843A3EB0C01CB1D4FEA0061FB
:100710004FEA102042BF002010BC704700EBC350CE
:1007200010440029A4BF10BC7047401C490008BFFA
:1007300020F0010010BC704710B5141E73F10004C6
:1007400008DA401C41F1000192185B411A4301D1C3
:1007500020F0010010BD2DE9F04D92469B4611B1ED
:10076000B1FA81F202E0B0FA80F220329046FFF74F
:100770007BFF04460F4640EA0A0041EA0B0153465C
:100780005A46084313D0114653EA010019D0C8F164
:1007900040025046FFF777FF05460E465046594641
:1007A0004246FFF761FF084305D0012004E02046E0
:1007B0003946BDE8F08D0020054346EAE0762C433B
:1007C00037430A986305E40AA0EB08000022FD0AFB
:1007D00044EA47540A3002D500200146E9E7010502
:1007E00010196941DDE9084500196941BDE8F04D7E
:1007F000A2E7C1F30A52C1F3130140F2FF3341F4FF
:1008000080119A4202DA00200146704740F23343D9
:100810009A42A2F2334202DC5242FFF734BFFFF7A2
:1008200023BF000030B5041E71F1000404DB4FF05B
:100830000044404264EB0101141E73F1000405DB27
:100840001C464FF00043524263EB0403994208BF39
:10085000904230BD064C074D06E0E06840F00103D1
:1008600094E8070098471034AC42F6D3FFF798FCA1
:10087000B4280008D4280008464910B54A6822F474
:1008800040324A604A6843681A434A6001684A68CD
:1008900022F480724A6001684A68036942EA0322CE
:1008A0004A6001684A6822F040724A6001684A68FA
:1008B00083681A434A6001688A6822F400628A6089
:1008C00001688A68C3681A438A60816A6FF070623F
:1008D000D14201688A6822F070628A6001688A6881
:1008E0000CD0836A1A438A6001688A6822F04052F9
:1008F0008A6001688A68C36A1A4301E022F04052A4
:100900008A6001688A6822F002028A6001688A6847
:10091000037E42EA43028A6090F8201000290168B1
:100920004A680FD042F400624A6001684A6822F4C3
:1009300060424A6001684A68174C436A04EB4333DB
:100940001A4301E022F400624A600168CA6A22F494
:100950007002CA620168CA6A838B104C04EB0353AD
:100960001A43CA6201688A6822F400728A600168C8
:100970008A6890F8303042EA43228A6001688A68C7
:1009800022F480628A6001688A68406942EA8020B5
:10099000886010BD0023014000E0FFFF0000F0FF71
:1009A000FEE7704778B50024009490F83C20012AB7
:1009B00019D0012280F83C200A6807230568092A1B
:1009C00013D9EE680A3A02EB420293409E43EE606E
:1009D0000B788A680A3B03EB43039A400368DD689F
:1009E0002A43DA6010E0022078BD2E6902EB420251
:1009F00093409E432E610B788A6803EB43039A4031
:100A000003681D692A431A614A681F23072A13D203
:100A100005686E6B521E02EB820293409E436E632A
:100A20000A8893B20A79521E02EB8202934002684E
:100A3000556B2B43536327E005680D2A12D22E6BAA
:100A4000D21F02EB820293409E432E630B790A88E9
:100A5000DB1F92B203EB83039A4003681D6B2A43AA
:100A60001A6311E0EE6A0D3A02EB820293409E4354
:100A7000EE620B790A880D3B92B203EB83039A4036
:100A80000368DD6A2A43DA621B4B0568194A9D42F6
:100A90000AD10D68122D07D1556825F4000555605F
:100AA000556845F48005556005689D421DD1134D7C
:100AB0000B68AB4201D0112B17D1536823F480038C
:100AC0005360536843F4000353600968A9420CD192
:100AD0000B490C4A0968B1FBF2F101EB81014900B5
:100AE00000E0491E00910029FBD180F83C40002025
:100AF00078BD0000002301400020014012000010DA
:100B00001C00002040420F000068C06C704770B5A8
:100B100004004FF0000503D0206C002610B107E060
:100B2000012070BD204600F01DF8666484F83C602A
:100B3000206CC00610D4206C20F4885040F00200D5
:100B400020642046FFF798FE6664206C20F00200C7
:100B500040F00100206400E0012584F83C60284654
:100B600070BD000010B586B0044614216846FFF73A
:100B700067FB1149206888421CD110480021026897
:100B800042F480720260006800F4807005900B48A7
:100B90001438026842F004020260006800F00400A9
:100BA0000590042000900320CDE901016946044826
:100BB00000F078F806B010BD002001404438024033
:100BC0000008024018B50021009190F83C20012A4D
:100BD00007D0012280F83C2002689368DB0702D02E
:100BE00011E0022018BD936843F001039360204A8E
:100BF000204B1268B2FBF3F202EB420200E0521EFD
:100C00000092002AFBD102689368DB072DD0036CA9
:100C100040F20164A34343F48073036453685B05AB
:100C200005D5036C23F4005343F480530364036C31
:100C3000DB0404D5436C23F00603436400E0416405
:100C400080F83C100C496FF022031360496800687B
:100C5000C90602D00949884207D1816811F0405F76
:100C600003D1816841F080418160002018BD0000FF
:100C70001C00002040420F000023014000200140E2
:100C800070B5044600F0D2F80546601C02D0044856
:100C90000078044400F0CAF8401BA042FAD370BDAB
:100CA000100000202DE9F84FDFF860B100224FF06E
:100CB00001084FF0030A4FF00F090BF1040E00BFBB
:100CC0000B6808FA02F42340A3426ED14D68022D4E
:100CD00001D0122D0ED1D50800EB850CDCF8205088
:100CE0005607F70E09FA07F6B5430E69BE402E43C4
:100CF000CCF82060066855000F790AFA05FC07F069
:100D0000030726EA0C06AF40374307604E68012E02
:100D100005D0022E03D0112E01D0122E0ED18668DE
:100D2000CF6826EA0C06AF40374387604668A64383
:100D30000C79C4F30014944034434460C6688C6852
:100D400026EA0C06AC403443C4604C68E40056D537
:100D50002F4C256845F480452560246822F0030562
:100D600004F4804400942B4C2E19D6F808489507BB
:100D70002F0F09FA07F5AC43274DA84201D10025F2
:100D800015E0264DA84201D1012510E0244DA842CE
:100D900001D102250BE0234DA84201D1032506E035
:100DA000214DA84202D1042501E028E00725BD40DD
:100DB0002543C6F80858DBF800405D464E689C4362
:100DC000F60300D51C432C60DEF8004075464E68E3
:100DD0009C43B60300D51C432C600C4D08352C6891
:100DE0004E689C43F60200D51C432C60074D0C3521
:100DF0002C684E689C43B60200D51C432C60521CE4
:100E0000102AFFF45DAFBDE8F88F0000003C014000
:100E1000443802400030014000000240000402401B
:100E200000080240000C02400010024001488068A7
:100E300070470000100000200248816802781144C9
:100E400081607047100000200B4810B5016841F424
:100E500000710160016841F480610160016841F442
:100E600080710160032000F061F8002000F006F8B6
:100E700000F024F8002010BD003C024070B50D4D7C
:100E800004464FF47A712878B1FBF0F00A490968FA
:100E9000B1FBF0F000F0D4FA48B9102C07D20022D0
:100EA0002146501E00F022F800206C6070BD012029
:100EB00070BD0000100000201C0000200A4808B58A
:100EC000016841F480410160006800F480400090B6
:100ED0000548001F016841F080510160006800F082
:100EE0008050009008BD000044380240F0B40E4B22
:100EF0001B680C46C3F30223C3F10705042D00D978
:100F00000425191D072901D2002300E0DB1E01265C
:100F100006FA05F1491E214099409E40761E164072
:100F20003143F0BC00F036BE0CED00E0064900F0A5
:100F3000070208684FF6FF03184040EA0220034A00
:100F400010430860704700000CED00E00000FA0557
:100F50002DE9F0470E46050065D0DFF81481D8F87A
:100F60000000F7B200F00F00B04207D288F800701E
:100F7000D8F8000000F00F00B04254D128683D4C72
:100F8000810712D5400703D5206840F4E050206067
:100F90002878000703D5206840F46040206020686E
:100FA000A96820F0F000084320602878C0072DD001
:100FB000304968680839012812D0022813D0032864
:100FC00011D00968890700292DDA216821F0030171
:100FD00001432160FFF72AFF814641F2883A0EE083
:100FE00009688903EFE709688901ECE7FFF71EFF4D
:100FF000A0EB0901514502D90320BDE8F087206824
:10100000696800F00C00B0EB810FEFD1D8F8001048
:10101000404601F00F01B14207D90770006800F0A7
:101020000F00B04201D00120E7E72878400705D53E
:101030002068E96820F4E050084320602878000721
:1010400006D52068296920F4604040EAC10020608C
:1010500000F036F82168084AC1F30311515CC8401A
:10106000064908600020FFF709FF0020C5E70000DF
:10107000003C0240083802409C2800081C00002068
:101080000448054900680968044AC1F38221515C9B
:10109000C84070471C00002008380240AC280008F7
:1010A0000448054900680968044AC1F34231515CAB
:1010B000C84070471C00002008380240AC280008D7
:1010C000154810B5006810F00C02144813D01449EC
:1010D000042A0FD0082A0ED10F4C241F226823683F
:1010E00002F03F025B0207D52068C0F38810A0FB26
:1010F000010106E0084610BD2168C1F38811A1FB7B
:1011000000010023FFF764F82168C1F30141491C85
:101110004900B0FBF1F010BD083802400024F40093
:1011200040787D012DE9F84F050076D02878DFF86A
:10113000F8B2BE4CC00749D0DBF800105846C1F3E6
:101140008101012908D00068C0F3810002280AD17A
:10115000201D0068400206D52068800336D56868E7
:101160000028E2D032E06868B0F5803F10D0B0F5DA
:10117000A02F206810D020F480302060206820F458
:10118000802020606868A0B1FFF750FE06460CE0A2
:10119000206840F48030F4E740F480202060F7E7D6
:1011A000FFF744FE801B642873D820688003F7D5BE
:1011B0000CE0FFF73BFE064605E000BFFFF736FEFA
:1011C000801B6428F0D820688003F7D42878DFF8E3
:1011D000608280074FF000093ED5DBF800105846CA
:1011E00011F00C0F09D00068C0F3810002280BD168
:1011F0008D48001F0068400206D42068800715D57E
:10120000E868012809D111E0E868B8B10120C8F800
:101210000000FFF70BFE064605E002E1FFF706FEC1
:10122000801B0228C0D820688007F7D5206829696C
:1012300020F0F80040EAC10020600DE0C8F80090FE
:10124000FFF7F4FD064604E0FFF7F0FD801B0228DF
:101250001FD820688007F7D42878000722D5724E5F
:10126000744869696C3671B101210160FFF7DEFDD8
:10127000074604E0FFF7DAFDC01B022809D83068F2
:101280008007F7D50EE0C0F80090FFF7CFFD0746C6
:1012900005E083E0FFF7CAFDC01B02287ED8306856
:1012A0008007F7D42878400768D5DFF87CA10027AD
:1012B0000AF1380ADAF80000C0000BD4DAF800109E
:1012C00041F08051CAF80010DAF80000012700F060
:1012D00080500090584E3068C00510D4306840F4FB
:1012E00080703060FFF7A2FD009005E0FFF79EFDE3
:1012F0000099401A022851D83068C005F6D54A4EE8
:10130000A868683601280FD00528306810D020F072
:1013100001003060306820F004003060A868B8B187
:10132000FFF784FD00900FE0306840F00100F4E723
:1013300040F004003060F7E7FFF778FD0099411AAC
:1013400041F28830814264D830688007F4D50EE0DD
:10135000FFF76CFD009007E0FFF768FD0099411A68
:1013600041F28830814254D830688007F4D42FB1DC
:10137000DAF8001021F08051CAF80010A869C0B353
:10138000DBF80010C1F3810102294AD00228484647
:1013900007D0C8F86000FFF749FD00E039E00546D6
:1013A0003AE04746C8F86000FFF740FD064604E013
:1013B000FFF73CFD801B02282BD820688001F7D462
:1013C000D5E907010843A96A1C4A490802EB014113
:1013D0006A6A41EA8211084395F82C1040EA0161DB
:1013E0001148001F016001203866FFF71FFD054608
:1013F00005E014E0FFF71AFD401B022809D8206819
:101400008001F7D50BE000BFFFF710FD401B02285D
:1014100002D90320BDE8F88F20688001F4D40020B1
:10142000F8E70120F6E700000838024000380240E3
:1014300000004742800E4742007000400000FFFF5E
:1014400010B5401EB0F1807F01D3012010BD4FF0D8
:10145000E02460610F21601700F09CFB0020A06178
:1014600007202061002010BD70B5040004D094F85E
:101470003900002510B106E0012070BD84F8385015
:10148000204600F023F8242084F839002068C16841
:1014900021F40051C160204600F0DEF920680169A6
:1014A00021F4904101612068416921F02A014161E4
:1014B0002068C16841F40051C160E563202084F8D0
:1014C000390084F83A00002070BD000030B587B0C4
:1014D000044614216846FEF7B3FE214D21682148D9
:1014E000022201230324A94219D11E4910310D689B
:1014F00045F400350D60096801F40031059101687B
:1015000041F0010101600068694600F001000590AA
:101510000C208DE81D000720049013481BE0134D9C
:10152000A9421AD10F4914310D6845F020050D600C
:10153000096801F020010591016841F00401016092
:101540000068694600F004000590C0208DE81D0089
:10155000082004900648FFF7A5FB07B030BD000047
:1015600000440040303802400000024000140140B6
:10157000000802402DE9F843044690F83A009946E5
:1015800016460D4620284FD195B18EB194F83800FB
:10159000012849D0012084F838000027E763222081
:1015A00084F83A00FFF742FCA6858046E68531E0E4
:1015B0000120BDE8F883E08D401EE085A068434629
:1015C000B0F5805F4FF000024FF020012046CDF8CB
:1015D000009004D000F096FA98B10320E9E700F0FB
:1015E00091FA0028F9D1206900282068406803D0CA
:1015F000C1B225F8011B0DE0C0F3080125F8021B5C
:1016000008E0206900282068406801D000F07F00D1
:1016100005F8010BE08D0028CDD1202084F83A0098
:1016200084F838700020C4E70220C2E72DE9F843AF
:10163000044690F839001F4616460D46202850D122
:10164000A5B19EB194F8380001284AD0012084F851
:1016500038004FF00008C4F83C80212084F839009D
:10166000FFF7E4FBA6848146E68426E00120BDE87E
:10167000F883E08C401EE084A0684B46B0F5805FA4
:101680004FF000024FF080012046009703D000F099
:1016900039FAE8B90DE000F035FAC8B928882168B0
:1016A000C0F308004860206908B16D1C05E0AD1C5E
:1016B00003E0216815F8010B4860E08C0028D8D1C0
:1016C0004B46002240212046009700F01BFA08B14B
:1016D0000320CCE7202084F8390084F838800020EB
:1016E000C5E70220C3E7FEE77FB500241148009458
:1016F000019402940E490394C0E9001484600461CB
:10170000047680F820400C49C0E90A140125C5611F
:10171000C46080F830404561FFF7F9F90C20CDE94D
:101720000005694602940348FFF73CF97FBD0000BD
:1017300000200140280000200100000F114808B5DA
:10174000016841F080010160016801F080010091B1
:10175000016841F004010160016801F00401009199
:10176000016841F001010160016801F0010100918F
:10177000016841F002010160006800F00200009081
:1017800008BD000030380240FEE7704770477047E0
:10179000FFF752BB10B592B030216846FEF750FDFE
:1017A00014210CA8FEF74CFD14480024016841F0F8
:1017B00080510160006800F080501190104801686D
:1017C00041F4404101600068069400F440401190EB
:1017D0000220009001200390102004906846FFF73B
:1017E000A1FC0F20CDE90C040E940F9400210CA84D
:1017F0001094FFF7ADFB12B010BD0000403802405E
:10180000007000401048016841F4700101600F4809
:10181000016841F0010101600C4A002108321160A9
:1018200002680B4B1A400260031D0A4A1A600268E4
:1018300022F48022026005480C30016002495806FB
:10184000803908607047000088ED00E000380240F1
:10185000FFFFF6FE103000242DE9F0410446006839
:101860000169E26821F44051114301612169A068D6
:10187000E26908436169114322680843D16849F26B
:101880000C6399430143D16020684169A26921F446
:10189000407111434161E2696425B2F5004F9748F8
:1018A000974922684FF032083FD08A4201D08242E5
:1018B0007CD1FFF7F5FB00EBC00101EB0010616884
:1018C0008900B0FBF1F6FFF7EBFB00EBC00101EB89
:1018D000001061688900B0FBF1F0B0FBF5F06FF02B
:1018E0001801484306EB800108EB0110B0FBF5F04E
:1018F00000F0F006FFF7D4FB00EBC00101EB001095
:1019000061688900B0FBF1F0B0FBF5F006EB001662
:10191000FFF7C6FB00EBC00101EB00106168890016
:10192000B0FBF1F7FFF7BCFBD2E08A4201D0824264
:101930003DD1FFF7B5FB00EBC00101EB0010616882
:101940004900B0FBF1F0B0FBF5F00601FFF7A8FB92
:1019500000EBC00101EB001061684900B0FBF1F73A
:10196000FFF79EFB00EBC00101EB0010616849002E
:10197000B0FBF1F0B0FBF5F06FF01801484307EB56
:10198000800108EBC100B0FBF5F000F0F80006EBB9
:101990004006FFF785FB00EBC00101EB001061681A
:1019A0004900B0FBF1F7FFF77BFB3CE055E0FFF7A8
:1019B00067FB00EBC00101EB001061684900B0FB60
:1019C000F1F0B0FBF5F00601FFF75AFB00EBC001A8
:1019D00001EB001061684900B0FBF1F7FFF750FB25
:1019E00000EBC00101EB001061684900B0FBF1F0B1
:1019F000B0FBF5F06FF01801484307EB800108EBEE
:101A0000C100B0FBF5F000F0F80006EB4006FFF770
:101A100037FB00EBC00101EB001061684900B0FB2F
:101A2000F1F7FFF72DFB00EBC00101EB001061683F
:101A30004900B0FBF1F0B0FBF5F06FF0180148433E
:101A400007EB800108EBC100B0FBF5F000F00700E8
:101A5000216830448860BDE8F081FFF711FB00EB9E
:101A6000C00101EB001061688900B0FBF1F6FFF7DF
:101A700007FB00EBC00101EB001061688900B0FBBF
:101A8000F1F0B0FBF5F06FF01801484306EB800170
:101A900008EB0110B0FBF5F000F0F006FFF7F0FAEC
:101AA00000EBC00101EB001061688900B0FBF1F0B0
:101AB000B0FBF5F006EB0016FFF7E2FA00EBC00111
:101AC00001EB001061688900B0FBF1F7FFF7D8FA6D
:101AD00000EBC00101EB001061688900B0FBF1F080
:101AE000B0FBF5F06FF01801484307EB800108EBFD
:101AF0000110B0FBF5F000F00F00A9E70014014061
:101B0000001001402DE9F041984617460E46044664
:101B1000069D1DE0681C1BD02DB1FFF787F9A0EBD7
:101B20000800A84214D92068C16821F4D071C160AE
:101B30002068416921F001014161202084F83900C9
:101B400084F83A00002084F838000320BDE8F081D2
:101B50002068006836EA000004D00020B842D9D0DE
:101B60000020F3E70120F9E7FEE700000FB4084B7F
:101B700010B504A902AA039800F0EEF8044602A9E1
:101B8000002000F080FC204610BC5DF814FB000033
:101B9000872400080907090E002804DB00F1E02073
:101BA00080F80014704700F00F0000F1E02080F88A
:101BB000141D704702E008C8121F08C1002AFAD19C
:101BC00070477047002001E001C1121F002AFBD1BD
:101BD000704700002DE9FF5F82B00021DDE904308D
:101BE000020DDDF840B0034318D044F61050A2F2C5
:101BF000FF3242431514119801281FD0A5EB0B00AA
:101C0000401C5FEA000A4FF000064E4FDFF83891A3
:101C1000B046504615D5CAF1000413E011980124CE
:101C20004AA3012801D16FEA0B010298119AC0E979
:101C30000031C0E9024206B0BDE8F09FCBF10000E0
:101C4000DFE704460021404A491842EB0450CDE941
:101C5000001012E0E00707D032463B4640464946B6
:101C6000FEF7CFFB8046894632463B461046194672
:101C7000FEF7C7FB06460F466410002CEAD1DDE9EB
:101C80000401DDE90023BAF1000F06DAFEF7B9FB23
:101C900042464B46FEF7B5FB05E0FEF724FC424604
:101CA0004B46FEF720FC04460E460022284BFEF76A
:101CB000B9FD03D84FF0FF30014607E00022254B65
:101CC00020463146FEF7F6FAFEF793FD102409E0B0
:101CD000002C0ADB0A220023FEF77AFA039B30323B
:101CE0001A55641E50EA0102F2D1641C039AC4F131
:101CF00011031444119A012A03D0012208430DD183
:101D00000AE0084304D000204FF0110B119072E755
:101D1000A3EB0B056D1E0DE05B4504DD4FF00002EB
:101D200005F1010504E003DA4FF00002A5F1010519
:101D3000002AECD002981199C0E90231C0E90045AF
:101D400079E70000000014400000F03F3000000080
:101D50000000F0430000E03F2DE9FF4F95B09B46A7
:101D60008946064600250FE2252877D1002427461C
:101D7000F84A0121059400E0044316F8013F203B96
:101D800001FA03F01042F7D130782A2811D06FF011
:101D90002F033078A0F13002092A16D8059A44F0B2
:101DA000020402EB820203EB42021044761C05900F
:101DB000EFE759F8042B0592002A03DA504244F465
:101DC0000054059044F00204761C30782E2816D179
:101DD00016F8010F44F004042A280DD06FF02F02EA
:101DE0003078A0F13003092B09D807EB870302EB09
:101DF0004303C718761CF3E759F8047B761C307848
:101E00006C280FD006DC4C2817D068280DD06A2823
:101E100014D104E0742810D07A280FD10DE044F4D6
:101E200000140AE044F4801401E044F44014727891
:101E3000824202D104F58014761C761C3078662824
:101E40000BD013DC582877D009DC002875D0452842
:101E5000F6D04628F4D047281AD19DE118E063282F
:101E600035D0642879D0652812D195E1702873D0D7
:101E700008DC6728F1D069286FD06E280DD06F2854
:101E800006D1B5E073282CD0752875D0782874D089
:101E90005A46179990476D1C75E1C4F30250022809
:101EA00009D003280DD0D9F8001004280DD00D60FA
:101EB00009F1040967E1D9F80010EA17C1E90052F5
:101EC000F6E7D9F800100D80F2E70D70F0E719F889
:101ED000041B8DF8001000208DF80100EA46012057
:101EE00003E059F804AB4FF0FF3061074FF00001F9
:101EF00002D40DE008F101018846B9420FDA8045AD
:101F0000F8DB1AF808100029F4D108E008F1010103
:101F100088468142FADB1AF808100029F6D10598A4
:101F20005B46A0EB080721463846179A00F094FA62
:101F3000284400EB080507E04DE029E10DE01AF820
:101F4000010B5A4617999047B8F10108F7D25B4642
:101F500021463846179A13E142E00A220092C4F360
:101F600002524FF0000A022A08D059F804CB032A83
:101F70004FEAEC710AD00DE029E02AE009F10701EF
:101F800021F00702F2E802C1914609E00FFA8CFC49
:101F90004FEAEC71042A03D14FFA8CFC4FEAEC7142
:101FA000002907DA0A460021DCF1000C61EB02018E
:101FB0002D2202E0220504D52B228DF804200122D7
:101FC00003E0E20701D02022F7E7904659E00A211A
:101FD00002E010220DE010214FF0000A00910BE00A
:101FE00010224FF0000A44F004040827009203E096
:101FF00008224FF0000A0092C4F30252022A05D0D0
:1020000059F804CB0021032A08D009E009F107019F
:1020100021F00702F2E802C1914605E01FFA8CFCAC
:10202000042A01D10CF0FF0C4FF00008220728D53C
:10203000702806D0009B83F0100353EA0A0305D0F2
:102040000EE040228DF80420012208E05CEA010243
:1020500006D030228DF804208DF80500022290462B
:10206000009B83F0080353EA0A030AD15CEA0102E9
:1020700001D1620705D530228DF804204FF0010808
:102080007F1E582804D034A003900EA802900DE0C3
:1020900036A0F9E753466046009AFEF799F8844661
:1020A0000398825C0298401E029002705CEA010074
:1020B000F0D1029806A9081A00F1200A600702D59B
:1020C00024F4803400E00127574502DDA7EB0A0025
:1020D00000E0002000EB0A01009005984144401AFE
:1020E0000590E00306D45B462146179A059800F058
:1020F000B3F90544002706E001A85A46C05D1799C8
:1021000090476D1C7F1C4745F6DBE0030CD55B4612
:102110002146179A059800F09FF9054404E0302005
:102120005A46179990476D1C0099481E0090002947
:10213000F5DC08E0029802995A460078491C0291A1
:10214000179990476D1CBAF10001AAF1010AF1DC60
:1021500065E100000928010030313233343536376B
:1021600038396162636465660000000030313233E3
:102170003435363738394142434445460000000083
:1021800000F058F90544761C307800287FF4ECAD57
:1021900019B02846BDE8F08F620700D4062709F180
:1021A000070222F0070CFCE80223E14603F0004896
:1021B0005FEA080C02D00FF2702C0DE05FEA045CBD
:1021C00002D50FF2682C07E05FEAC47C02D00FF260
:1021D000602C01E0AFF2700C4FF0FF3823F00043A9
:1021E000CDF850C065280CD006DC452809D046281B
:1021F0001DD047283DD13DE0662818D067287ED104
:1022000038E00021112F01DB112000E0781CCDE91E
:10221000000106A90EA8FFF7DDFCDDE90F010E9A0B
:1022200003910021009207F1010A04914DE04FF063
:1022300000400097CDE9011006A90EA8FFF7CAFCDF
:10224000DDE90F0203920E9B11990022DDF80CA02C
:102250000093049211B9791C00EB010AB7EB0A0054
:1022600004D4C0F1FF3007F1010A0490AAEB070083
:10227000019044E0012F00DA01270021112F01DD38
:10228000112000E03846CDE9000106A90EA8FFF7AD
:10229000A1FCDDE90F010E9A039100210491009247
:1022A000BA4621070CD40399514500DA8A46BAF19F
:1022B000010F05DD009AAAF10101515C302908D017
:1022C000B84202DA10F1040F06DA0121CDE901105B
:1022D00015E0AAF10101E9E7002805DC04990144B1
:1022E0000491AAEB000102E0411C514500DD8A4641
:1022F0000499401A401C01904FF0004002902007C2
:1023000004D40198504501DBCDF8048000208DF8FD
:102310004F0002980DF14F07B0F1004F25D02B2050
:102320000E9002984FF0020800280CDA404202900A
:102330002D200E9007E00A210298FEF77FF9303138
:10234000029007F8011DB8F10001A8F10108F2DCC4
:1023500002980028EFD1791E0E980870307800F0AE
:10236000200040F0450007F8020D12A8C01B00F144
:1023700007081498007800B1012000EB0A010198C9
:1023800001EBE07105984144401A401E0590E003BE
:1023900006D45B462146179A059800F05DF805447F
:1023A0001498007818B15A46179990476D1CE003AD
:1023B00024D55B462146179A059800F04DF8054450
:1023C0001CE00498002807DBDDE90301884203DDF7
:1023D0000098405C179901E0179930205A469047C1
:1023E000049805F10105401C04900198401E0190DD
:1023F00004D12E205A46179990476D1CBAF100015E
:10240000AAF1010ADDDC05E017F8010B5A4617991D
:1024100090476D1CB8F10001A8F10108F4DC5B469F
:102420002146179A0598ABE62D0000002B0000000E
:10243000200000002DE9F041044600251E46174605
:10244000880404D405E039462020B0476D1C641E82
:10245000F9D52846BDE8F0812DE9F0410446002574
:102460001E469046C80301D5302700E02027880487
:1024700004D505E041463846B0476D1C641EF9D5C9
:102480002846BDE8F0810A68531C0B601070704745
:102490002DED0A8BFEF7D8FCFFF77CF9FFF74EF91C
:1024A000634862494FF4E13500240160C0E90154FA
:1024B0000C26C460C0E904468461C461FEF7D4FF01
:1024C0005B485C4940300160C0E90154C460C0E928
:1024D00004468461C461FEF7C7FFFFF705F9642372
:1024E000172255A15248FFF7A1F859A000F098F91A
:1024F00000F0A4F95AA000F093F900F09FF95CA055
:1025000000F08EF900F09AF949480C225BA1803066
:1025100000F05AF902465BA15C48FFF727FB5B48D5
:1025200000F044F95AA000F041F94FF47A70FEF738
:10253000A7FB9FED5ACA9FED5AAB9FED5BBB9FED8A
:102540005C9B5D4C002584ED01CA39484838FEF794
:1025500039FB37484838FEF7D7FAFEF733F8B0EEC4
:102560004A1AF0EE6A1A53EC112BFDF74AFFB0EE4F
:102570004B1AF0EE6B1A53EC112BFDF742FFB0EE45
:10258000491AF0EE691A53EC112BFDF7ACFF41EC40
:10259000180B84ED028B6068FEF721F853EC182BC2
:1025A000FDF788FEFEF72EF86D1CEDB26060C82DB9
:1025B000CBD300EE900A9FED411A80EE810A84EDA4
:1025C000010A10EE100AFEF70AF841EC100B3CA1CC
:1025D00053EC102B2D48FFF7C9FA2C4800F0E6F811
:1025E0004FF4FA70FEF74CFB38A000F019F900F038
:1025F00025F941A000F014F900F020F90C483E2123
:102600008030FDF746FE00289CD06068FDF7E7FFAC
:1026100041EC100B3CA153EC102B1C48FFF7A6FA21
:102620001A4800F0FDF800F009F98BE7004400407B
:1026300070000020001401402D2D2D2D2D2D2D2D4D
:102640002D2D2D2D2D2D2D2D2D2D2D2D2D0D0A002A
:1026500041542B43574D4F44453D310D0A00000076
:1026600041542B43574D4F44453F0D0A0000000095
:1026700041542B43494653520D0A000053544149DB
:10268000502C220025730D0A00000000B801002024
:1026900052656164790D0A0D0A0000000000000017
:1026A0006666666666660A40000000000000303F0D
:1026B0009A9999999999B93F0000002000004843E0
:1026C00054656D703A2025660D0A000041542B4375
:1026D000495053544152543D22544350222C2231EC
:1026E00038342E3130362E3135332E313439222CD8
:1026F00038300D0A0000000041542B434950534527
:102700004E443D35330D0A00474554202F75706403
:102710006174653F6170695F6B65793D5842344211
:10272000595951334B4B4C53374F393726666965EE
:102730006C64313D252E32660D0A0D0A0000000042
:10274000F0B50B30154D20F007010024144A0FE0BE
:1027500003688B420BD38B4205D95E1A4318476836
:10276000C3E9006700E04368136002C004E0021D93
:1027700010680028ECD12046002802D1286808B152
:102780000020F0BD064A07481060074A121A22F0DE
:102790000702C0E9002401202860D7E724000020B8
:1027A00020000020840200208004002010B5044690
:1027B000FDF779FD214682B2BDE81040642301484F
:1027C000FEF734BF700000202DE9F04104461746A3
:1027D00088460120FFF7B4FF054641462046FDF735
:1027E0003AFDA8B141462046FDF735FD094E001BD4
:1027F000B0704046FDF757FDB1783A462144014498
:102800002846FDF73AFD0020E8552846BDE8F0814E
:1028100001A0FBE7000000206E756C6C000000005A
:1028200010B50446FDF73FFD214682B2BDE81040D9
:1028300064230148FEF7FABEB00000202DE9F04104
:10284000144C0026144D6670267020782E54401CBF
:10285000C0B22070C828F8D34FF4C8770E493B4661
:10286000C822A1F14000FEF785FE28780028F5D0A7
:1028700026702078295C39B16178401C491CC0B2AF
:1028800061702070C828F4D3BDE8F0410248FFF71A
:102890008DBF000000000020F000002000000000BC
:1028A0000000000001020304060708090000000000
:1028B00001020304D42800080000002028000000C2
:1028C000B41B0008FC28000828000020580800005D
:1028D000C41B000800000000000000000000000011
:1028E00000000000010000001000000000000000D7
:0C28F0000024F4000000000000000000C4
:040000050800019955
:00000001FF
