:020000040800F2
:10000000082300209D01000847210008511D000819
:100010004521000857030008F137000800000000E0
:10002000000000000000000000000000FF210008A8
:10003000DD03000800000000FD2100080122000887
:10004000B7010008B7010008B7010008B7010008B0
:10005000B7010008B7010008B7010008B7010008A0
:10006000B7010008B7010008B7010008B701000890
:10007000B7010008B7010008B7010008B701000880
:10008000B7010008B7010008B7010008B701000870
:10009000B7010008B7010008B7010008B701000860
:1000A000B7010008B7010008B7010008B701000850
:1000B000B7010008B7010008B7010008B701000840
:1000C000B7010008B7010008B7010008B701000830
:1000D000B7010008B7010008B7010008B701000820
:1000E000B7010008B7010008B7010008B701000810
:1000F000B7010008B7010008B7010008B701000800
:10010000B7010008B7010008B7010008B7010008EF
:10011000B7010008B7010008B7010008B7010008DF
:10012000B7010008B7010008B7010008B7010008CF
:10013000B7010008B7010008B7010008B7010008BF
:10014000B7010008B7010008B701000869210008DD
:10015000B7010008B7010008B7010008B70100089F
:10016000B7010008B7010008B7010008B70100088F
:10017000B7010008B7010008B7010008000000003F
:10018000B7010008B7010008DFF80CD000F0A6F8AE
:1001900000480047993B0008082300200648804794
:1001A00006480047FEE7FEE7FEE7FEE7FEE7FEE75C
:1001B000FEE7FEE7FEE7FEE7A1220008890100084E
:1001C0002DE9F05F0546002092469B46884606468C
:1001D000814640241BE0284641464746224600F01F
:1001E0006CF853465A46C01A914110D3114618462E
:1001F000224600F053F82D1A67EB01084F462246BD
:100200000120002100F04AF817EB00094E41201EA2
:10021000A4F10104DFDC484631462A464346BDE8E6
:10022000F09F40EA01039B0703D009E008C9121FB1
:1002300008C0042AFAD203E011F8013B00F8013BA0
:10024000521EF9D27047D2B201E000F8012B491ECC
:10025000FBD270470022F6E710B513460A46044663
:100260001946FFF7F0FF204610BD30B505462A4677
:100270000B4612F8010B13F8014B08B1A042F8D05D
:100280001CB1002802D06D1CF1E7284630BD421C8D
:1002900010F8011B0029FBD1801A7047202A04DBCB
:1002A000203A00FA02F1002070479140C2F1200389
:1002B00020FA03F3194390407047202A04DB203AC8
:1002C00021FA02F00021704721FA02F3D040C2F176
:1002D000200291400843194670470000064C074D24
:1002E00006E0E06840F0010394E807009847103406
:1002F000AC42F6D3FFF74CFF3C3D00085C3D0008E4
:1003000070B58C1810F8015B15F0070301D110F8D7
:10031000013B2A1106D110F8012B03E010F8016B04
:1003200001F8016B5B1EF9D12B0705D40023521E87
:100330000DD401F8013BFAE710F8013BCB1A921CEF
:1003400003E013F8015B01F8015B521EF9D5A142ED
:10035000D8D3002070BDFEE7002070470020704712
:1003600010B500220449054802F094F804490348F6
:1003700002F08AF8002010BD08130020F4020020CB
:10038000080B002010B508490022835C8B54521CD6
:100390000A2AFADB0146054802F076F8034802F023
:1003A00057F8002010BD0000B4020020F402002025
:1003B000094A10B5D2F81822D2F814220AB1012045
:1003C00010BD0A460146044802F064F8BDE810403A
:1003D000014802F09FB80000F40200207047704707
:1003E00070B5044600F0ECF80546601C02D00448E5
:1003F0000078044400F0E4F8401BA042FAD370BD3A
:10040000480000202DE9F84FDFF87CB100224FF0C2
:1004100001084FF0030A4FF00F090BF1040E00BF63
:100420000B6808FA02F42340A3426ED14D68022DF6
:1004300001D0122D0ED1D50800EB850CDCF8205030
:100440005607F70E09FA07F6B5430E69BE402E436C
:10045000CCF82060066855000F790AFA05FC07F011
:10046000030726EA0C06AF40374307604E68012EAB
:1004700005D0022E03D0112E01D0122E0ED1866887
:10048000CF6826EA0C06AF40374387604668A6432C
:100490000C79C4F30014944034434460C6688C68FB
:1004A00026EA0C06AC403443C4604C68E40065D5D1
:1004B000364C256845F480452560246822F0030504
:1004C00004F480440094324C2E19D6F8084895075D
:1004D0002F0F09FA07F5AC432E4DA84201D1002594
:1004E00024E02D4DA84201D101251FE02B4DA8424B
:1004F00001D102251AE02A4DA84201D1032515E0B9
:10050000284DA84202D1042510E037E0264DA8422C
:1005100001D105250AE0254DA84201D1062505E0B7
:10052000234DA84201D1072500E00825BD40254301
:10053000C6F80858DBF800405D464E689C43F60359
:1005400000D51C432C60DEF8004075464E689C4385
:10055000B60300D51C432C600B4D08352C684E6843
:100560009C43F60200D51C432C60074D0C352C68CB
:100570004E689C43B60200D51C432C60521C102AC6
:10058000FFF44EAFBDE8F88F003C01404438024014
:100590000030014000000240000402400008024018
:1005A000000C0240001002400014024000180240FB
:1005B000001C02400AB1816170470904FBE700009A
:1005C00001488068704700004800002070B50400B2
:1005D00004D094F83D00002510B106E0012070BD64
:1005E00084F83C50204600F075F8242084F83D0043
:1005F0002068016821F00101016001F053F93349DD
:100600002268B0FBF1F15160314A6368934206D928
:100610004FF4967359434FF47A73B1FBF3F12368A7
:10062000491C1962616891420BD84900B0FBF1F294
:10063000C2F30B02042A01D2042019E0B0FBF1F04E
:1006400016E0A3689BB301EBC10202EB0112B0FB01
:10065000F2F242F48042120530D04BB301EBC102FA
:1006600002EB0111B0FBF1F040F4804040F4004097
:100670002168C861D4E90701084321680860D4E90A
:100680000310084321688860D4E905010843216804
:10069000C8602068016841F00101016025642020E4
:1006A00084F83D00256384F83E50002070BD00E0D2
:1006B00006E001EB4102B0FBF2F2CCE70120D7E704
:1006C00001EB4101B0FBF1F0D0E7000040420F0028
:1006D000A086010010B586B0044614216846FFF7D5
:1006E000B9FD14492068884221D1134800210268CD
:1006F00042F002020260006800F0020005904FF430
:1007000010700090122001900120CDE90201042018
:10071000049069460948FFF775FE074810300168E4
:1007200041F400110160006800F40010059006B06B
:1007300010BD000000540040303802400004024068
:100740002DE9FE43044600688168744D744E4FF0F5
:1007500040270291A84201D1314600E0394689681C
:100760000191C1694FF00108C1F3012102290AD0AA
:10077000C16911F4407F06D00199890773D5A84259
:1007800067D1304666E00299890707D54068C043C3
:10079000000603D40021204601F020FB0198C00789
:1007A0000DD02068A84201D1304600E038464068AC
:1007B000C043400603D40121204601F0CBFA019842
:1007C0004FF65F79400628D52068A84201D131460E
:1007D00000E039464968C94389061ED4A84201D1C0
:1007E000304600E03846406820F0600101D13046D4
:1007F00000E0384641602068416801EA0901416033
:100800002068C1688068009084F84180606C40F086
:1008100002006064204600F086F8029800077BD54D
:1008200020684168C943890676D4416801EA090114
:1008300041602068A84201D1304600E03846406857
:1008400020F0600000D03E46706020688068009014
:1008500057E0384640686FEA0000000603D40121E3
:10086000204601F0BBFA0298C00708D02068406813
:10087000C043400603D40021204601F06BFA0298E1
:100880004FF69F7940061FD520684168C943890605
:100890001AD4416801EA090141602068A84201D1E7
:1008A000304600E03846406820F0A00101D13046D3
:1008B00000E03846416084F84180606C40F00200FE
:1008C0006064204600F02FF80198000724D52068C6
:1008D000A84201D1314600E039464968C94389063A
:1008E0001AD4A84201D1304600E03846406820F0D2
:1008F000A00000D03E4670602068416801EA09010E
:10090000416084F84180606C40F0040060642046DF
:10091000BDE8FE4300F007B8BDE8FE8300380040A4
:1009200000340040704770472DE9F05F04004FF03D
:1009300002064FF000074FF010052CD04FF00209CF
:10094000C84684F8419054486063204600F0ACF8F3
:100950002068C16940F6BF7A21EA0A01C1612168B5
:10096000C1F820802068D0F81C8060694FF4007BBB
:10097000022835D0E06800B12025A068202800D8E2
:100980006D00012000F024FE2169594525D1E16860
:1009900021B1A90003E00120BDE8F09FE900B0FB10
:1009A000F1F000BF00EB800061694000B0FBF1F0A6
:1009B000401D0A21B0FBF1F101F00100091AC1F359
:1009C0004F060702B01EFE280AD3606C40F01000EC
:1009D00060642046FFF7A7FFDDE7B0FBF5F0E1E735
:1009E000206921683E4330430862A0882189228B18
:1009F0000843A1891143084380B2216840EA0800F6
:100A000040F40060C861206A01283AD1234860633D
:100A100023482168234A4FF04023814201D11146E7
:100A200000E01946C96921EA0A0101D1154600E032
:100A30001D46E96125684946854201D1154600E019
:100A40001D4629622568854201D1114600E01946FC
:100A5000CE69616859451BD0D1B100212789B4F80E
:100A60000CC047EA0C07B4F818C04CEA010C47EA7E
:100A70000C07B9B2314341F40061854200D01A46F7
:100A8000D16100206064012084F84100002083E7E8
:100A90004FF48071E2E70000611E00084107000882
:100AA000003800400034004070B586B00446142180
:100AB0006846FFF7CFFB1C492068884232D11B48AB
:100AC0000024016841F400410160006800F4004026
:100AD000059016481038016841F001010160016875
:100AE00001F001010591016841F004010160006815
:100AF000022500F00400059010200090CDE901547B
:100B00000626CDE9034669460948FFF77BFC4FF40A
:100B1000A4500090CDE90154CDE90346694605484B
:100B2000FFF770FC06B070BD003C0040403802404A
:100B30000000024000080240704770470248816888
:100B40000278114481607047480000200B4810B5BE
:100B5000016841F400710160016841F48061016045
:100B6000016841F480710160032000F06FF80020FB
:100B700000F006F800F024F8002010BD003C024010
:100B800070B50D4D04464FF47A712878B1FBF0F042
:100B90000A490968B1FBF0F001F0C6F848B9102C19
:100BA00007D200222146501E00F030F800206C6071
:100BB00070BD012070BD00004800002054000020DE
:100BC0000B4882B0016841F480410160006800F484
:100BD000804000900648001F016841F0805101608C
:100BE000006800F080500090072002B000F02EB89E
:100BF0004438024000F01F0201219140400980006A
:100C000000F1E020C0F8001170470000F0B40E4B76
:100C10001B680C46C3F30223C3F10705042D00D95A
:100C20000425191D072901D2002300E0DB1E01263F
:100C300006FA05F1491E214099409E40761E164055
:100C40003143F0BC01F080BA0CED00E0064900F041
:100C5000070208684FF6FF03184040EA0220034AE3
:100C600010430860704700000CED00E00000FA053A
:100C70000068416200207047F0B500680023446AB4
:100C800031B1856A4FF4827604EB15444D1E0AE0BB
:100C900044EA024181620FE006EB8307C7595B1CFF
:100CA00004EB1744DBB2AB42F6DB4FF4807303EB8B
:100CB000810144EA024242500020F0BDD0F8EC032A
:100CC00001F050BEC1EBC10200EB8202D0F8EC0390
:100CD000526C01F0BDBDC1EBC10200EB8202D0F845
:100CE000EC03D2F8042201F008BED0F8EC0301F0C6
:100CF0003BBE10B504460A460B0601F07F00C0EB70
:100D0000C00104EB810101D5383101E001F5FC712E
:100D10000870D009487094F8B803012809D0012060
:100D200084F8B803206802F055F9002084F8B8036D
:100D300010BD022010BD70B50A460446090602F037
:100D40007F0005D5C0EBC00104EB8101383105E01F
:100D5000C2EBC20104EB810101F5FC7100258D702D
:100D60000870D009487094F8B803012809D0012010
:100D700084F8B803206802F00EFB84F8B853002012
:100D800070BD022070BD01F00F01C1EBC10100EB8D
:100D90008100B0F8100280B2704770B504460D466D
:100DA0000E0601F07F00C0EBC00104EB810101D50C
:100DB000383101E001F5FC71ED0908704D708A6071
:100DC000CB7000D0C8800025022B00D10D7194F8A3
:100DD000B803012809D0012084F8B803206802F084
:100DE0004DF8284684F8B85370BD022070BD70B528
:100DF0000C4601F07F05C5EBC50100EB8101C1F890
:100E00000C32C1F804220023C1F8103281F8F93104
:100E100081F8F851036901F5FC71012B00D10A61D9
:100E20006206027C006803D002F016FB002070BD51
:100E300002F0F2F9FAE770B50D460446090605F02E
:100E40007F0005D5C0EBC00104EB8101383105E01E
:100E5000C5EBC50104EB810101F5FC7101228A702B
:100E60000870E809487094F8B803012807D084F89E
:100E7000B823206802F0C1FA680602D007E0022019
:100E800070BD217C04F56F72206802F065FA0020C5
:100E900084F8B80370BD70B50C4601F07F05C5EB52
:100EA000C50100EB8101CB644A6400230B6501237B
:100EB00081F8393001F8385F0369012B00D10A61EC
:100EC0006206027C006803D002F0C6FA002070BD02
:100ED00002F0A2F9FAE700002DE9F84F0446006895
:100EE0000026054602F00CFC002875D1206802F0AF
:100EF00030FC002870D0206802F02BFC800704D55D
:100F00002068416901F002014161206802F021FC82
:100F1000010304F56F704FF0010B4FF0000A0090D1
:100F20004DD5206802F0F7FB074646E0F80742D0AF
:100F3000F1B2206802F005FC8046C00728D005EB1E
:100F40004612C2F808BB2069012811D1C6EBC600C1
:100F500004EB8001D2F8102BD1F80002C2F3120288
:100F6000821AC1F81022D1F804221044C1F80402F8
:100F7000F1B22046FFF7AFFE2069012808D13EB943
:100F8000D4F80C0220B920680121009A02F0E4F99B
:100F90005FEA087007D5204600F0E6FA05EB461137
:100FA0000820C1F8080B5FEAC86004D505EB4611BC
:100FB0001020C1F8080B7F08761C002FB6D12068DE
:100FC00002F0C7FB40034FF040095ED5206802F0F5
:100FD0009BFB0746002656E0D2E1F80751D0F1B25C
:100FE000206802F09FFB8046C00724D0D5F8342843
:100FF0000BFA06F08243C5F8342805EB4610C0F81A
:1010000008B92069012807D1C6EBC60004EB8000AF
:10101000D0E9101211444164F1B22046FFF752FEAC
:101020002069012807D136B9E06C20B92068012178
:10103000009A02F091F95FEA087004D505EB4611B9
:101040000820C1F808095FEAC86004D505EB46111D
:101050001020C1F808095FEA486003D505EB461186
:10106000C1F808995FEA887004D505EB46110220A3
:10107000C1F808095FEA086003D53146204601F04F
:1010800079F87F08761C002FA7D1206802F061FB59
:1010900000280DDAD5F8040820F00100C5F804088E
:1010A000204600F047FA2168486900F00040486196
:1010B000206802F04EFB00050BD5D5F80808C007E4
:1010C00002D0204600F06CFA2068416901F400610A
:1010D0004161206802F03DFBC0044CD5D5F80408FE
:1010E00020F00100C5F804081021206802F0D8FAA9
:1010F0000020FF2107E000BF05EB4012C2F80819ED
:10110000C2F8081B401C62688242F5D84FF0FF30DD
:10111000C5F81808D5F81C0840F00110C5F81C08DF
:10112000206B60B1D5F8840840F00B00C5F8840846
:10113000D5F8440840F00B00C5F844080BE0D5F89A
:10114000140840F00B00C5F81408D5F8100840F05A
:101150000B00C5F81008D5F8000820F4FE60C5F8AB
:101160000008217C2068009A02F0F6F8216848699E
:1011700000F480504861206802F0EBFA80047DD5CD
:10118000206801F0BBFE2068C16821F47051C16085
:10119000206802F097FA78B10320C4F81490E06058
:1011A00000F07AFB7749784A014491420AD22068DC
:1011B000C16841F4705158E04FF40070C4F80CA0BD
:1011C000606136E07149724A0144914204D220685C
:1011D000C16841F4605148E06E496F4A0144914250
:1011E00004D22068C16841F450513EE06B496C4A1A
:1011F0000144914204D22068C16841F4405134E076
:101200006849694A0144914204D22068C16841F4A6
:1012100030512AE06549664A0144914204D220686F
:10122000C16841F4205120E06249421862498A4273
:1012300004D22068C16841F4105116E05F49604A49
:101240000144914204D22068C16841F400510CE08D
:101250005C4908445C4988422068C16803D241F473
:10126000E05102E00AE041F4C051C160204600F0C4
:1012700051F92068416901F400514161206802F090
:1012800068FAC00636D52168886920F010008861A8
:10129000D5F8208008F00F00C0EBC00004EB8007F9
:1012A000C8F3434007F5FC77022802D0062812D085
:1012B0001BE047F6F07018EA000F16D0C8F30A12C8
:1012C00090462846F96802F048FAF8684044F86009
:1012D000B869404408E008222846009902F03DFA27
:1012E000B969C8F30A100844B8612068816941F0FF
:1012F00010018161206802F02CFA000707D5204612
:1013000000F01CF92068416901F008014161206882
:1013100002F01FFAC00208D5F1B2204600F056F8DC
:101320002068416901F480114161206802F011FADE
:10133000800208D5F1B2204600F04CF820684169DF
:1013400001F400114161206802F003FA400007D562
:101350002046FFF7B3FC2068416901F080414161FC
:10136000206802F0F6F940070AD52068456868074A
:1013700002D52046FFF7B9FC206841682943416047
:10138000BDE8F88F405327FF00350C00401E1BFFBF
:1013900040420F0000DC0BFF804F1200808CF9FEF2
:1013A00020D6130060B6E5FE60E3160000D3CEFE43
:1013B00040771B00C05BB3FEC091210000CA91FEC4
:1013C00020753800E05459FEE09C4100D0F8EC0351
:1013D00001F01CBBD0F8EC0301F01ABBF0B58BB0E8
:1013E00004004FF0000556D0032084F8B9032046CE
:1013F00000F054F8206801F009FF04F110012822E0
:101400000F466846FEF70DFF94E80F0001F090FDCF
:101410000021206802F0B1F901260020C5EBC501CA
:1014200004EB810181F8396001F8385FCD80C87024
:101430008860C8606D1C48610F2DEFD300214FF408
:10144000827300BFC1EBC10204EB820203EB810592
:1014500082F8F90182F8F811D18782F8FB01C2F80D
:101460000002C2F80402C2F80C0222685051491C62
:101470000F29E7D3282239466846FEF7D2FE94E8C2
:101480000F0001F023FE84F8B963206801F012FE1A
:1014900000200BB0F0BD0120FBE7000030B5006874
:1014A00087B0B0F1A04F2ED100244FF40070CDE9E9
:1014B0000004164D694628460294FEF7A3FF4FF438
:1014C000E05000900220CDE901040A20CDE903405C
:1014D00069462846FEF796FF0D48016841F08001F5
:1014E00001600B481030016841F4804101600068E0
:1014F000002200F48040059011464320FFF786FB50
:101500004320FFF777FB07B030BD0000000002402A
:101510003438024010B50446C068012100B90021EA
:10152000D4F8EC0301F0CAFAD4F8EC03BDE810409B
:1015300001F093BAD0F8EC0301F0AEBAD0F8EC03A6
:1015400001F0B0BA10B5044690F8B803012809D0EC
:10155000012084F8B803206802F025F9002084F8FF
:10156000B80310BD022010BDD0F8EC2300F56F7158
:10157000104601F0B6BA10B5044690F8B803012839
:101580000CD0012084F8B803206801F087FD2068A2
:1015900002F070F8002084F8B80310BD022010BDDE
:1015A00010B50446D0F8EC0301F0E8FA2068D0F852
:1015B000001E41F00101C0F8001E206A002804D07E
:1015C0000248016841F00601016010BD10ED00E025
:1015D00001460020012907D11049096811F40001D2
:1015E00003D0012900D10E4870470C48001F016844
:1015F0000068490200F03F0001D50A4900E00A49AD
:10160000064AB1FBF0F07C321168C1F38811414306
:101610001068C0F30270B1FBF0F070470838024068
:101620000080BB0000127A000024F4002DE9F8438A
:10163000054600684FF00109C1074FF0000601D1CF
:10164000400727D5DFF80C81C8F86860FEF7B8FFBF
:101650000746414C05E000BFFEF7B2FFC01B022861
:1016600057D820680001F7D468688101287A41EAD8
:101670000070394984310860C8F86890FEF7A0FF0F
:10168000074604E0FEF79CFFC01B022841D82068F3
:101690000001F7D52878800752D52F4840300168DF
:1016A00041F08051016000682C4C00F080500090A7
:1016B000206840F480702060FEF782FF074604E057
:1016C000FEF77EFFC01B022823D82068C005F7D58F
:1016D000214C7034206810F4407020D0A98901F4A6
:1016E000407181421BD020681D4920F44070C1F830
:1016F00000900E6020602068C00710D0FEF760FFE9
:10170000064641F2883707E0FEF75AFF801BB842D1
:1017100002D90320BDE8F88320688007F4D5E96882
:101720000D48C1F301220830032A0BD0016821F4CF
:10173000F81101602068A989C1F30B0108432060FA
:101740000020E7E70268074B22F4F81219400A4329
:101750000260EFE70000474200380240007000409E
:10176000400E4742FFFCFF0F2DE9F0470E460500F3
:1017700065D0DFF81481D8F80000F7B200F00F0050
:10178000B04207D288F80070D8F8000000F00F00CF
:10179000B04254D128683D4C810712D5400703D58B
:1017A000206840F4E05020602878000703D52068C6
:1017B00040F4604020602068A96820F0F0000843F1
:1017C00020602878C0072DD0304968680839012882
:1017D00012D0022813D0032811D0096889070029E4
:1017E0002DDA216821F0030101432160FEF7E8FEB4
:1017F000814641F2883A0EE009688903EFE70968FB
:101800008901ECE7FEF7DCFEA0EB0901514502D9A6
:101810000320BDE8F0872068696800F00C00B0EB99
:10182000810FEFD1D8F80010404601F00F01B1420E
:1018300007D90770006800F00F00B04201D0012006
:10184000E7E72878400705D52068E96820F4E050EC
:10185000084320602878000706D52068296920F40D
:10186000604040EAC100206000F02CF82168084A7E
:10187000C1F30311515CC840064908600020FFF71E
:101880007FF90020C5E70000003C02400838024014
:10189000243D000854000020014800687047000003
:1018A000540000200448054900680968044AC1F34F
:1018B0008221515CC8407047540000200838024023
:1018C000343D0008154810B5006810F00C021448AB
:1018D00013D04110042A0FD0082A0ED10F4C241F18
:1018E0002268236802F03F025B0207D52068C0F33C
:1018F0008810A0FB010106E0084610BD2168C1F375
:101900008811A1FB00010023FEF75AFC2168C1F3F6
:101910000141491C4900B0FBF1F010BD08380240FC
:101920000024F4002DE9F84F050076D02878DFF880
:10193000F8B2BE4CC00749D0DBF800105846C1F3DE
:101940008101012908D00068C0F3810002280AD172
:10195000201D0068400206D52068800336D56868DF
:101960000028E2D032E06868B0F5803F10D0B0F5D2
:10197000A02F206810D020F480302060206820F450
:10198000802020606868A0B1FEF71AFE06460CE0D1
:10199000206840F48030F4E740F480202060F7E7CE
:1019A000FEF70EFE801B642873D820688003F7D5ED
:1019B0000CE0FEF705FE064605E000BFFEF700FE60
:1019C000801B6428F0D820688003F7D42878DFF8DB
:1019D000608280074FF000093ED5DBF800105846C2
:1019E00011F00C0F09D00068C0F3810002280BD160
:1019F0008D48001F0068400206D42068800715D576
:101A0000E868012809D111E0E868B8B10120C8F8F8
:101A10000000FEF7D5FD064605E002E1FEF7D0FD29
:101A2000801B0228C0D820688007F7D52068296964
:101A300020F0F80040EAC10020600DE0C8F80090F6
:101A4000FEF7BEFD064604E0FEF7BAFD801B022845
:101A50001FD820688007F7D42878000722D5724E57
:101A6000744869696C3671B101210160FEF7A8FD07
:101A7000074604E0FEF7A4FDC01B022809D8306821
:101A80008007F7D50EE0C0F80090FEF799FD0746F5
:101A900005E083E0FEF794FDC01B02287ED8306885
:101AA0008007F7D42878400768D5DFF87CA10027A5
:101AB0000AF1380ADAF80000C0000BD4DAF8001096
:101AC00041F08051CAF80010DAF80000012700F058
:101AD00080500090584E3068C00510D4306840F4F3
:101AE00080703060FEF76CFD009005E0FEF768FD49
:101AF0000099401A022851D83068C005F6D54A4EE0
:101B0000A868683601280FD00528306810D020F06A
:101B100001003060306820F004003060A868B8B17F
:101B2000FEF74EFD00900FE0306840F00100F4E752
:101B300040F004003060F7E7FEF742FD0099411ADB
:101B400041F28830814264D830688007F4D50EE0D5
:101B5000FEF736FD009007E0FEF732FD0099411ACE
:101B600041F28830814254D830688007F4D42FB1D4
:101B7000DAF8001021F08051CAF80010A869C0B34B
:101B8000DBF80010C1F3810102294AD0022848463F
:101B900007D0C8F86000FEF713FD00E039E0054605
:101BA0003AE04746C8F86000FEF70AFD064604E042
:101BB000FEF706FD801B02282BD820688001F7D491
:101BC000D5E907010843A96A1C4A490802EB01410B
:101BD0006A6A41EA8211084395F82C1040EA0161D3
:101BE0001148001F016001203866FEF7E9FC054638
:101BF00005E014E0FEF7E4FC401B022809D8206849
:101C00008001F7D50BE000BFFEF7DAFC401B02288D
:101C100002D90320BDE8F88F20688001F4D40020A9
:101C2000F8E70120F6E700000838024000380240DB
:101C300000004742800E4742007000400000FFFF56
:101C400070B5040005D00025A56294F8510010B1CC
:101C500006E0012070BD84F85050204600F030F8B6
:101C6000022084F851002068016821F040010160E1
:101C7000D4E901010843D4E903121143084361691F
:101C80000843218B01F400710843E1690843216A8C
:101C90000843A16A084321680860A069042101EA99
:101CA0001040616A0843216848602068C16921F4D6
:101CB0000061C1616565012084F85100002070BD9C
:101CC00010B586B0044614216846FEF7C3FA1349DE
:101CD000206888421FD112480021026842F48052D5
:101CE0000260006800F4805005900D4814380268C6
:101CF00042F001020260006800F001000590E0205F
:101D000000900220CDE901010520CDE903106946CC
:101D10000448FEF777FB06B010BD0000003001401C
:101D2000443802400000024010B5401EB0F1807FF0
:101D300001D3012010BD4FF0E02460610F21601736
:101D400000F002FA0020A06107202061002010BDF1
:101D5000FEE700002DE9F041C26A0126134604683F
:101D6000921C39B11B491C4D4FF040278C4217D1B2
:101D70002C4616E0E168C2621980418E491E4186F8
:101D8000418E00290AD101684A684FF69F731A40B4
:101D90004A601BE080F84160FEF7C4FDBDE8F081B9
:101DA0003C46E468C2621C80428E521E4286428ECD
:101DB000002AF3D102688A4201D1294600E039465F
:101DC000496821F0600100D03D466960418D0029DD
:101DD000E0D0E3E7003800400034004070B5426ACC
:101DE0000125941C0368446241B11B4912881B4CB5
:101DF0004FF040268B4216D1234615E01188D9605A
:101E0000418D491E4185418D00290BD101684A68E9
:101E10004FF65F731A404A6019E000BF80F84150E6
:101E2000FEF780FD70BD3346DA60428D521E42855A
:101E3000428D002AF6D102688A4201D1214600E093
:101E40003146496821F0A00100D034466160418EDE
:101E50000029E3D070BD000000380040003400408D
:101E6000FEB5016804468868019094F84100012598
:101E7000042833D101984FF69F76C00716D04868E2
:101E8000C043400612D4CA682046E16A8B1CE36254
:101E90000A80618E491E6186618E39B901684A687F
:101EA00032404A6080F84150FEF746FE01984006F5
:101EB00014D520684168C94389060FD44168314070
:101EC00041602068C1688068009084F84150606C6F
:101ED00040F0020060642046FEF725FD94F84100C2
:101EE000032834D101984FF65F76800718D5206813
:101EF0004068C043000613D4616A20468A1C6262AF
:101F000022680988D160618D491E6185618D39B96A
:101F100001684A6832404A6080F84150FEF70DFE81
:101F20000198000713D520684168C94389060ED47B
:101F300041683140416020688068009084F84150D9
:101F4000606C40F0040060642046FEF7ECFCFEBDCF
:101F500007490968C9070AD0054980390968C907CE
:101F600005D04FF060410A68002AFCD00870704725
:101F7000800E00E02DE9F04F87B014216846FEF78F
:101F800069F94E480024016841F0100101600168C0
:101F900001F010010591016841F004010160016840
:101FA00001F004010591016841F0800101600168C0
:101FB00001F080010591016841F0010101600168B3
:101FC00001F001010591016841F002010160016821
:101FD00001F002010591016841F00801016000680B
:101FE000002200F00800059008213548FEF7E2FACB
:101FF000DFF8D080012211464046FEF7DBFADFF819
:10200000C8B04FF21009002249465846FEF7D2FAEE
:10201000082601250096CDE9015469462848039415
:10202000FEF7F0F90095CDE9015469464046039466
:10203000FEF7E8F900960226CDE901640527CDE90F
:10204000034769464046FEF7DDF9DFF880800095DA
:10205000CDE9018469461E48FEF7D4F90420CDE994
:102060000004DFF870A0694650460294FEF7CAF9F2
:10207000A8020090CDE90164CDE9034769465046C6
:10208000FEF7C0F9CDF80090CDE9015469465846F5
:102090000394FEF7B7F92020CDE9000469465846BD
:1020A0000294FEF7AFF90096CDE901846946044831
:1020B000FEF7A8F907B0BDE8F08F00003038024005
:1020C0000010024000080240000C02400000121004
:1020D00000000240000402400B480A494FF400721D
:1020E00001604FF48271416000218160C160016133
:1020F000C0E90512C1610162416281620A21C162C7
:10210000FFF79EBD003001401C02002010B50022E8
:102110000849094800F067FB0849074800F05BFDE3
:102120000749054800F0A8F9BDE81040024800F052
:102130009FBD000004000020F402002038010020B0
:1021400038000020FEE770470907090E002806DA6C
:1021500000F00F0000F1E02080F8141D704700F13E
:10216000E02080F8001470470148FEF7B5BE00007B
:10217000180500202DE9F84F0F46C1EBC70100EB11
:10218000810582460668D5E91301441A286C383562
:10219000A04200D20446E01C4FEA900806EB471923
:1021A00016E0441AA868A04200D20446E01C4FEA98
:1021B00090089AF810000090A3B2FAB23046E9688D
:1021C00001F002FBE8682044E860A8692044A861A7
:1021D000D9F8180980B2404505D9D5E905018142F1
:1021E00001D20028DDD134B90120D6F83418B84026
:1021F0008143C6F834180020BDE8F88F7047704757
:10220000FEF79CBC70B596B030216846FEF722F808
:1022100014210CA8FEF71EF800251F4811951295F1
:1022200013951495016841F080510160006800F039
:10223000805015901948016841F4804101600068A0
:10224000012600F4804015903004CDE9006002249E
:102250008001CDE90640082008904FF4A870CDE930
:10226000090407200B906846FFF75CFB0CA90F20C0
:1022700081E831004FF4A0500F90E002109005214A
:102280000CA8FFF771FAC020CDE91204119611A82D
:10229000FFF7CCF916B070BD403802400070004026
:1022A0001048016841F4700101600F48016841F075
:1022B000010101600C4A00210832116002680B4BD9
:1022C0001A400260031D0A4A1A60026822F4802242
:1022D000026005480C3001600249580680390860E8
:1022E0007047000088ED00E000380240FFFFF6FE76
:1022F00010300024D0F8180220B10021C0F81412C8
:10230000084670470220704770B50546D0F818425D
:1023100000F035FBC4F80C02D5F8180248B1D5F826
:102320001C12D4F80402CA6804F503719047002017
:1023300070BD022070BD70B504460025812100F0FB
:1023400077FA0121204600F073FA8221204600F03E
:102350006FFAD4F8180250B1D4F81C0204F50674D0
:1023600040688047206801F0EFFB0020206028468D
:1023700070BD10B5D0E9864159B194F80002FF282C
:1023800007D08B6894F8012221469847FF2084F8F3
:102390000002002010BD00000A21018000487047A3
:1023A000600000204321018000487047B0000020F9
:1023B00043210180004870476C00002043210180C8
:1023C00000487047F40000202DE9F0410446007CED
:1023D00000254FF4007670B340230222812120466D
:1023E00000F018FB402302220121204600F012FBDE
:1023F000082303228221204600F00CFB4FF40770D3
:1024000001F05AFCC4F81802F0B10746D4F81C02D7
:10241000006880470020C7F81402C7F81802207C23
:10242000D7F8042290B140230121204600F005FB9B
:102430002846BDE8F081FFE733460222812120468D
:1024400000F0E8FA3346CEE70125F1E73346EBE743
:1024500010B5D0F8181269B1027C002AD1F8042214
:1024600005D04023012100F0E8FA002010BD4FF410
:102470000073F7E7022010BD02460220002902D0B7
:102480000020C2F81C127047D0F81802C0F80412DD
:1024900000207047D0F81802C0F81022C0F80812C7
:1024A0000020704770B50646D0F8185208780C46E0
:1024B00010F0600121D0202927D1E288AAB10006BE
:1024C000607807D5D6F81C128B6829469847E288B1
:1024D000294617E085F80002A07985F80102E28814
:1024E0002946304600F050F80FE0D6F81C1260780C
:1024F00000228B682146984707E060780A2804D1BB
:1025000003490122304600F059F8002070BD000058
:102510005C00002010B5D0F8181289B1D1F814224F
:102520000AB1012010BD0122C1F81422B1F8102215
:1025300093B2D1F80822812100F029FB002010BDC0
:10254000022010BD10B5D0F8142252689047002028
:1025500010BD134610B50A46002100F06EFA0020A7
:1025600010BD134610B50A46002100F010FB0020F4
:1025700010BD10B50446802100F0E0FA2046BDE809
:102580001040002100F0DABA10B50323C0F808218A
:10259000C0F8F431C0F80C2113460A46002100F0BF
:1025A0004CFA002010BD10B505210023C0F8F4112D
:1025B0001A46194600F041FA002010BD10B502235A
:1025C0008261C0F8F431C26113460A46002100F06E
:1025D000DEFA002010BD10B504210023C0F8F4116C
:1025E0001A46194600F0D3FA002010BD10B50A466D
:1025F000024903A000F0D4F8004810BD08090020EB
:1026000043444320436F6E666967000012200880D0
:10261000004870472400002010B50A46024903A074
:1026200000F0BEF8004810BD0809002043444320D4
:10263000496E74657266616365000000042008805D
:10264000004870472000002010B50A46024903A048
:1026500000F0A6F8004810BD0809002053544D6949
:1026600063726F656C656374726F6E69637300008B
:1026700010B50A46024903A000F092F8004810BDC8
:102680000809002053544D33322056697274756125
:102690006C20436F6D506F727400000010B50A46D5
:1026A000024903A000F07CF8004810BD0809002092
:1026B00030303030303030303030314100000000C8
:1026C000F8B5044648880D46010A08294BD2DFE8D0
:1026D00001F04A0409174A4A4048D4F81012207CF5
:1026E0000A6832E0207C02260028D4F8140205D0C3
:1026F000C16A684688470146467041E0816AF8E74A
:10270000C0B206282FD2DFE800F003080D12171C14
:10271000D4F81012207C4A6817E0D4F81012207CFC
:102720008A6812E0D4F81012207CCA680DE0D4F850
:102730001012207C0A6908E0D4F81012207C4A6943
:1027400003E0D4F81012207C8A696946904701465C
:1027500016E0207C38B9D4F81402416B68468847EB
:10276000F5E7207C20B129462046FFF702FFF8BD9F
:10277000D4F81402016B6846884701460720487068
:10278000BDF800000028F2D0EA88002AEFD082428B
:1027900000D90246ADF800202046FFF70FFFF8BD34
:1027A00070B5002300281DD00446002502E06D1CF2
:1027B000EDB2641C2678002EF9D1022404EB450406
:1027C0001480CC545B1C0322CA5400245B1C06E01A
:1027D000CA545B1CDAB28C54521CD3B2401C02782F
:1027E000002AF5D170BD10B580B1D0F8143213B104
:1027F0000023C0F8143209B1C0F81012012180F88A
:10280000FC11027000F0C0F8002010BD022010BDC5
:1028100010B50024D0F82002FEF78DFA30B101285F
:1028200001D0022801D0022400E00124204610BD7E
:1028300010B50024D0F82002FEF75BFA30B1012871
:1028400001D0022801D0022400E00124204610BD5E
:102850002DE9F0411746044641B1D4F8140242690B
:102860008AB394F8FC01032842D043E0D4F8F41171
:10287000002504F11400022933D1D0E902639E42FD
:1028800007D9F31A83609AB239462046FFF769FEEA
:1028900012E04068B0FBF3F103FB1101A1B99842CB
:1028A00012D3D4F8F81188420ED2002211462046E5
:1028B000FFF757FEC4F8F85100231A461946204680
:1028C00000F0BBF80DE012E0D4F81402C16829B1A1
:1028D00094F8FC01032801D1204688472046FFF7E1
:1028E00062FE94F80002012804D184F8005201E04D
:1028F000204690470020BDE8F08170B5154604469B
:1029000041B1D4F8140282693AB394F8FC01032867
:1029100024D025E0D4F8F41104F5827003291FD1E6
:10292000D0E902218A420BD9531A836008468342B8
:1029300000D303469AB229462046FFF70AFE0FE06D
:10294000D4F81402016929B194F8FC01032801D1DB
:10295000204688472046FFF73EFE01E0204690478C
:10296000002070BD0020704710B5012180F8FC11D7
:10297000D0F81422017952689047002010BDD0F899
:102980002002FEF700BA000010B5017849BB1649D5
:102990000222C1F8EC03C0F820124FF0A0400860FA
:1029A000042048600020C1E90320C1E90502C86194
:1029B000086201224862C1E90B200846FEF70EFDBD
:1029C00008B1FDF70CFD80210748FEF751F94022C0
:1029D00000210548FEF750F9802201210248FEF748
:1029E0004BF9002010BD0000180500200A0601F078
:1029F0007F01D0F82002C1EBC10100EB810002D5BC
:102A000090F83A00704790F8FA017047002070473C
:102A10000020704770B51D4613460024D0F82002F0
:102A20002A46FEF7BAF930B1012801D0022801D0B8
:102A3000022400E00124204670BD10B50024D0F827
:102A40002002FEF7D4F930B1012801D0022801D0CC
:102A5000022400E00124204610BD70B50022044687
:102A600040231146FFF7D6FF40252B460022802148
:102A70002046C4F81051FFF7CDFF0120256284F8ED
:102A8000FC01D4F8180228B1D4F814022179426864
:102A900020469047002070BD90F8FD1180F8FC1191
:102AA0000020704710B590F8FC11032904D1D0F82C
:102AB0001412C96901B18847002010BD01740020BB
:102AC000704710B50024D0F82002FEF73BFD30B16E
:102AD000012801D0022801D0022400E00124204670
:102AE00010BD70B5044600F50270054600F05FF8B1
:102AF0000120C4F8F401B4F80E02C4F8F80194F807
:102B0000080210F01F010AD001290DD0022910D0AF
:102B100000F08001204600F011F8002070BD294629
:102B2000204600F0AAF8F8E72946204600F08CF984
:102B3000F3E72946204600F019F9EEE710B5002426
:102B4000D0F82002FEF777F930B1012801D0022831
:102B500001D0022400E00124204610BD10B500245D
:102B6000D0F82002FEF707FD30B1012801D002287D
:102B700001D0022400E00124204610BD90F8FC1191
:102B800080F8FD11042180F8FC110020704710B579
:102B90000024D0F82002FEF77EF930B1012801D0E0
:102BA000022801D0022400E00124204610BD0A784A
:102BB00002704A7842708A78CB7802EB0322428016
:102BC0000A794B7902EB032282808A79C97902EB78
:102BD0000121C18070470246002011B1C2F81412D1
:102BE00070470220704710B5D0F8142202241AB1A1
:102BF0001268904700B90024204610BD70B50E46FB
:102C00001A4D897804462970012928D894F8FC01C6
:102C1000022802D0032822D105E099B10320616087
:102C200084F8FC0109E091B1606888420AD0C1B221
:102C30002046FFF787FC297861602046FFF7D3FF25
:102C400002280CD02046BDE87040FFF7C4BC02202B
:102C500084F8FC0120466160FFF774FCF2E731461E
:102C60002046BDE87040FFF784BC000058000020FB
:102C700010B5FFF773FF002010BD2DE9F0410026CD
:102C80004B78012532460A2B43D2DFE803F03C584B
:102C90004251420805422A27FFF712FD63E004462D
:102CA0008888C8B9C888B8B9887800F07F0794F8D0
:102CB000FC01032810D084F8FE7139462046FFF746
:102CC00000FF2046FFF787FC1FB1022084F8FC01BB
:102CD00049E084F8FC5146E020461AE0FFF78EFFF9
:102CE00041E0CB88012B14D190F8FC31022B02D0AB
:102CF000032B0ED104E08260012200F1080114E0F0
:102D00000122011D11E090F8FC21022A04D0032ABF
:102D100002D0FFF72EFC26E0C560D0F8041209B1FE
:102D20000321C160022200F10C01FFF747FC1AE009
:102D300004464888012816D1C4F804520BE0044622
:102D400090F8FC01022801D00328C5D14888012849
:102D500009D1C4F80422D4F81402826820469047AE
:102D60002046FFF738FC3046BDE8F08170B50D46CF
:102D70000446287800260979C0F34110012806D0BE
:102D80006878A0B301281FD003283FD107E0D4F80A
:102D900014022946826820469047002070BD94F8AE
:102DA000FC01022817D003282CD1688828B921B14A
:102DB000802902D02046FFF7C1FED4F8140229462C
:102DC00082682046904713E094F8FC01022802D064
:102DD000032817D103E0C9B180291BD116E0688808
:102DE000A0B9480604D02046FFF712FDE5E703E04E
:102DF0002046FFF7F0FB09E094F8FC01022807D019
:102E000003280BD029462046FFF7B3FB304670BDA0
:102E10004806FBD02046FFF791FEF7E7080601F0D1
:102E20007F0004EB001501D5143501E005F582752E
:102E30002046FFF7DBFD00B1012028600222294671
:102E40002046FFF7BBFBE1E770B5054690F8FC01B3
:102E50000C4603280DD1207901280AD8D5F8140290
:102E6000826828469047E08830B92846FFF7B3FBD0
:102E700002E02846FFF77DFB002070BD30B54C789E
:102E80001D4B01220D78AA40012CD0F81C4818D007
:102E900044EA0242C0F81C280A7800EB4210D0F83D
:102EA000002B12040BD4D0F8002B0C89C4F30A04B5
:102EB0002243C97843EA81410A43C0F8002B00202D
:102EC00030BD92B21443C0F81C480C7800EB44109B
:102ED000D0F800291204F2D4D0F800290D89C5F3E6
:102EE0000A052A43C978890441EA84510A431A43EE
:102EF000C0F80029E3E7000000800010D0F80019B6
:102F00006FF30A01C0F80019D0F80818C1F34101A5
:102F1000022905D1D0F8001941F00301C0F80019C9
:102F2000D0F8041841F48071C0F8041800207047EC
:102F300070B50446049D06990D9801290CD0E068EF
:102F400040F04000E060204600F028F84FF4803068
:102F5000A063012D16D01DE0A16B21F48031A16387
:102F6000E1680D4A1140E160E16821F44011E1603F
:102F7000012803D1E06840F48010E060204600F0B2
:102F80000DF8E6E7A06840F00600A060A06840F0F9
:102F90002000A060002070BDBFFFBDFF01220C49D2
:102FA00002E0521C8A420BD80369002BF9DA02694D
:102FB00042F001020261012204E0521C8A4201D95E
:102FC000032070470369DB07F7D10020704700003A
:102FD000400D0300F0B50D4604464F780126F20679
:102FE000D3002D49287804EB4010012F14D0D0F8DD
:102FF000007B27F40047C0F8007B287804EB4010E2
:10300000C0F8002B287804EB4010C0F8003B0120EA
:103010002A7804EB42122BE0D0F8007927F400471D
:10302000C0F80079287804EB4010C0F8002928780F
:1030300004EB4010C0F8003901202A7804EB42125A
:1030400002E0401C884211D8D2F808395B00F8D45D
:103050001021204600F024FBD4F81C0829788E406B
:10306000B1B2884314E0401C884201D90320F0BD6E
:10307000D2F8083BDB06F6D4D4F8040840F48060AC
:10308000C4F80408D4F81C0829788E4020EA0640C9
:10309000C4F81C080020F0BD400D030010B5D0F8A6
:1030A000041821F00201C0F804180320FDF798F974
:1030B000002010BD10B5D0F8041841F00201C0F88E
:1030C00004180320FDF78CF9002010BD2DE9F0470E
:1030D0000E460446DDE90A0A0025DDF83C80089F1B
:1030E0005FEA0801A16B11D041F40021A1634FF008
:1030F0000009C4F8009ED4F80018C4F8001801288C
:1031000007D0D4F8000840F0030007E041F40011B4
:10311000ECE7D4F800080BB140F00100C4F8000857
:103120001021204600F0BCFA204600F0A9FA4846DB
:10313000C4F81098C4F814984FF0FF31C4F8181868
:10314000C4F81C984FF0904CFF230FE004EB45119E
:10315000D1F80029002A02DAC1F800C901E0C1F85B
:103160000009C1F81009C1F808396D1CAE42EDD84C
:1031700000210FE004EB4112D2F8005B002D02DACF
:10318000C2F800CB01E0C2F8000BC2F8100BC2F885
:10319000083B491C8E42EDD8D4F8101821F48071F8
:1031A000C4F81018012F0AD11449C4F83018D4F803
:1031B0003018134A1143C4F83018D4F83018A061FD
:1031C0006FF0804060611FB9A06940F01000A061FD
:1031D000A0690C490843A061BAF1000F03D0A069AF
:1031E00040F00800A061B8F1010F03D1A0690649C1
:1031F0000843A0610020BDE8F087000000018000C6
:103200000300010000383C8004000040816821F088
:10321000010181600020704730B54D784D4C0B782E
:1032200000EB4313012D28D0D3F8105B6FF3120588
:10323000C3F8105B0B7800EB4313D3F8105B254009
:10324000C3F8105B4B690BB18B684B610B7800EBDB
:103250004313D3F8104B44F40024C3F8104B0B78FD
:1032600000EB4313D3F8104B8D68C5F312052C43C4
:10327000C3F8104B012A5CD061E04D69002DD3F8F2
:1032800010593BD06FF31205C3F810590B7800EBBF
:103290004313D3F810592540C3F810594C698B6873
:1032A0009C4200D94B610B7800EB4313D3F81049D3
:1032B00044F40024C3F810490B7800EB4313D3F80F
:1032C00010494D69C5F3120554EA0504C3F81049C5
:1032D0000B7800EB4313D3F8004944F00444C3F8DF
:1032E0000049012A1ED04A6912B3D0F834280B785D
:1032F000012199400A43C0F8342829E02540C3F849
:1033000010590B7800EB4313D3F8104944F4002410
:10331000C3F810490B7800EB4313D3F810496FF34F
:103320001204D3E70A69097800EB4110C0F81429A8
:103330000EE00B7800EB4313CA68C3F8142B09782E
:1033400000EB4110D0F8001B41F00441C0F8001B15
:10335000002030BDFFFF07E00023C0F8103BD0F88D
:10336000103B43F40023C0F8103BD0F8103B43F06F
:103370001803C0F8103BD0F8103B43F0C043C0F82E
:10338000103B012905D1C0F8142B4FF08021C0F863
:10339000001B002070474B780A7800EB4212012B8B
:1033A0000BD0D2F8003B23F40013C2F8003BCA78DC
:1033B000032A17D0022A15D01DE0D2F8003923F4D1
:1033C0000013C2F80039CA78032A01D0022A12D1A8
:1033D000097800EB4110D0F8001941F08051C0F895
:1033E000001908E0097800EB4110D0F8001B41F00B
:1033F0008051C0F8001B002070474B780A7800EB22
:103400004212012B14D0D2F8003B002B05DBD2F87E
:10341000003B23F08043C2F8003B097800EB4110E9
:10342000D0F8001B41F40011C0F8001B00207047C9
:10343000D2F80039002B05DBD2F8003923F08043A5
:10344000C2F80039097800EB4110D0F8001941F4B6
:103450000011C0F80019E9E778B54E786FF06045C3
:10346000834C0B7800EB4313012E2FD0D3F8106B55
:103470006FF31206C3F8106B0B7800EB4313D3F80D
:10348000106B2640C3F8106B4B69002B7DD08C6805
:1034900023445B1EB3FBF4F39BB20C7800EB4414A3
:1034A000D4F8106B05EAC3452E43C4F8106B0C78B2
:1034B00000EB4414D4F8105B8E685E43C6F312032D
:1034C0001D43C4F8105B012A73D0B2E04E6966B3A5
:1034D000D3F810696FF31206C3F810690B7800EB8C
:1034E0004313D3F810692640C3F810694C698B6800
:1034F0001C44641EB4FBF3F305EAC3440B7800EBF1
:103500004313D3F810592C43C3F810490B7800EB40
:103510004313D3F810494D69C5F312052C43C3F882
:103520001049CB78012B16D027E0D3F8105925404D
:10353000C3F810590B7800EB4313D3F8104944F447
:103540000024C3F810490B7800EB4313D3F810495B
:103550006FF312040FE00B7800EB4313D3F810491C
:1035600024F0C044C3F810490B7800EB4313D3F8A0
:10357000104944F00054C3F81049012A12D0CB7806
:10358000012B17D04B692BB300E037E0D0F834386B
:103590000D780124AC402343C0F83438CB78012B9C
:1035A00008D017E00C7800EB44140B69C4F8143908
:1035B000F4E738E0D0F80838DB050B7800EB43136C
:1035C000D3F8004902D444F0005401E044F08054A0
:1035D000C3F800490B7800EB4313D3F8004944F0DB
:1035E0000444C3F80049CB78012B3ED100928A8A6B
:1035F00093B20A78C96800F0E7F836E00B7800EB80
:103600004313D3F8104B8D68C5F312052C43C3F850
:10361000104B0B7800EB4313D3F8104B44F4002409
:10362000C3F8104B4FE70B7800EB4313CA68C3F89D
:10363000142BCA78012A0FD1D0F80828D2050A78AD
:1036400000EB4212D2F8003B02D443F0005301E0F9
:1036500043F08053C2F8003B097800EB4110D0F8EA
:10366000001B41F00441C0F8001B002078BD0000A1
:10367000FFFF07E0816841F0010181600020704791
:10368000002110220261054A491C914201D9032000
:1036900070470369DB06F7D400207047400D030034
:1036A0000022202343EA811101610549521C8A420C
:1036B00001D90320704703699B06F7D400207047A7
:1036C000400D03000021D0F8082812F0060F15D095
:1036D000D0F80828C2F34102012A0CD0D0F80828FB
:1036E000C2F34102032A06D0D0F80808C0F3410013
:1036F000022802D002E0032100E0022108467047C0
:10370000406900F001007047D0F81818D0F81C0884
:10371000084080B27047D0F81818D0F81C0808404C
:10372000000C7047D0F81038D0F83428CA4002F0A6
:10373000010243EAC21200EB4110D0F80809104020
:10374000704700EB4111D1F8081BD0F8140808406D
:103750007047416980690840704710B503460020F2
:10376000D21C920803F5805303E01C6841F8044B17
:10377000401C9042F9D3084610BD10B5C26822F033
:10378000C042C260012901D021B107E0C16841F007
:10379000005102E0C16841F08041C1603220FCF775
:1037A0001FFE002010BDD0F8002822F4FE62C0F8F1
:1037B0000028D0F800284FF4FE6303EA01110A4301
:1037C000C0F800280020704730B50024039D6DB973
:1037D000DB1C9B0800EB023000F5805004E000BFCA
:1037E00051F8042B0260641C9C42F9D3002030BDC8
:1037F000FEE700000FB4054B10B503A9044A029878
:1038000000F02CF810BC5DF814FB0000293B000808
:10381000700100200FB4084B10B504A902AA039848
:1038200000F01CF8044602A9002000F077F92046B9
:1038300010BC5DF814FB00001D3B000802E008C846
:10384000121F08C1002AFAD170477047002001E01A
:1038500001C1121F002AFBD1704700002DE9FF4F64
:103860008DB09B460F460446002606E025280BD067
:103870005A460F999047641C761C20780028F5D191
:1038800011B03046BDE8F08F0025A84601229849C6
:1038900000E0054314F8013F203B02FA03F0084220
:1038A000F7D120782E2817D114F8010F45F0040520
:1038B0002A280ED06FF02F022078A0F130010929BC
:1038C0000AD808EB880102EB410100EB0108641CF7
:1038D000F2E757F8048B641C20786C280DD004DCC8
:1038E0004C2812D06A2811D104E074280DD07A280F
:1038F0000CD10AE045F4001507E0617845F4801525
:10390000814202D1641C05F58015641C2278692A65
:1039100045D008DC002AB3D0582A69D0632A10D0D9
:10392000642A08D13BE0702A67D0732A13D0752A25
:103930005CD0782A5CD010465A460F999047761C86
:10394000D3E017F8040B8DF8000000208DF801007B
:10395000E946012003E057F8049B4FF0FF30690768
:103960004FF0000501D40AE06D1C45450DDA854293
:10397000FADB19F805100029F6D106E06D1C854226
:10398000FCDB19F805100029F8D12E4404E019F8E1
:10399000010B5A460F9990476D1EF8D2A5E00A20F8
:1039A0000021CDE90801C5F3025002280DD001CF56
:1039B000C117031E71F100030DDA4FF0000CD0EBBC
:1039C0000C006CEB01012D2308E0FF1D27F0070719
:1039D000F7E80201EDE72B0504D52B238DF82830FD
:1039E00001233BE0EB0739D02023F7E70A2000E072
:1039F00010200021CDE9080107E01020002145F04A
:103A00000405CDE908014FF00808C5F3025002286B
:103A10000FD001CF00214FF0000A2B071FD5702ACD
:103A20000DD0DDE908C38CF0100C5CEA030C0CD05F
:103A300015E0FF1D27F00707F7E80201EBE740223A
:103A40008DF828204FF0010A0BE050EA010306D060
:103A500030238DF828308DF8292002239A46582AE1
:103A600004D024A20DF120090B9209E026A2F9E767
:103A7000DDE90823FCF7A4FB0B9B9B5C09F8013DE7
:103A800050EA0102F4D1ADEB09002030089068073C
:103A900001D44FF001080899884502DDA8EB010028
:103AA00000E000208046002506E00AA85A46405D56
:103AB0000F9990476D1C761C5545F6DB04E03020CD
:103AC0005A460F999047761CB8F10001A8F10108F9
:103AD000F5DC05E019F8010B5A460F999047761C62
:103AE0000899481E08900029F4DC641CC5E6000013
:103AF00009280100303132333435363738396162C4
:103B00006364656600000000303132333435363787
:103B10003839414243444546000000000A68531CBE
:103B20000B60107070470000054A914202D0054AB0
:103B3000914201D1FEF70CBA4FF0FF307047000000
:103B4000700100207401002010B5002821D0114B15
:103B50000022001F196803E0814203D80A46496821
:103B60000029F9D152B11368841A9C4204D100682B
:103B700018441060104602E0506000E0186039B14F
:103B800002680B1A934203D10B681A440260496819
:103B9000416010BD780100201CB5FCF7D7FFFEF78F
:103BA00031FBFEF7E7F93748354900240160364913
:103BB000C0E901144FF48041C0E9034144618461CC
:103BC000C4610462FCF702FD2E48304954300160A4
:103BD0004915C0E90114C0E903412D49C0E90514A4
:103BE000C4610462FCF7A0FEFEF776FAFEF78EFAD7
:103BF0004FF4805127A0FFF7FDFD27A12748FCF7D0
:103C000034FBC0B324A12548FCF72FFB234D244FE0
:103C1000401BC01C387020A12846FCF726FB401B27
:103C2000801CC0B278703978285C0126695C303914
:103C30002438CAB206FA00F081B21A48FCF7BAFC7E
:103C400078783A78285CA95CCDE90010243806FA27
:103C500000F315A1A5F14000FFF7DCFDA5F1400040
:103C6000FCF715FB81B2A5F14000FCF7A1FBA5F123
:103C7000340080F83440C820FCF7B2FBBDE70000F8
:103C80000054004080010020A0860100003C00405C
:103C900000770100257800006C640000B402002069
:103CA00000000020000C02402564202578202563B8
:103CB0002025630D0A000000F0B50B30154D20F0F3
:103CC00007010024144A0FE003688B420BD38B4298
:103CD00005D95E1A43184768C3E9006700E04368E6
:103CE000136002C004E0021D10680028ECD12046D9
:103CF000002802D1286808B10020F0BD064A074814
:103D00001060074A121A22F00702C0E900240120BD
:103D10002860D7E77C010020780100200C1B0020E0
:103D2000081E002000000000000000000102030443
:103D30000607080900000000010203045C3D0008BA
:103D40000000002080010000000300081C3E000865
:103D500080010020882100004C38000841130D2606
:103D60001B083D041A49041A71041A9D0413ED2519
:103D70001B08190817040309041201140202021691
:103D800040830440572602010203011361031B080C
:103D90005D041A59041A850419131182109324F42E
:103DA000130A0632022A40201C0902433F1125C093
:103DB0003209041B01020B1305241610010524010E
:103DC00010090104240202052406170107058203D5
:103DD000081C10090475320A1D07050102432C074F
:103DE0000581070938442A40072A8107112B090752
:103DF000440A2204440A16FF4413C9231B0837044B
:103E000013A52442081A730C13F5221B080908C1D4
:0C3E10002AB12419041ABD04DA991C41DF
:040000050800018965
:00000001FF
