:020000040800F2
:10000000D8050020A9010008371F0008B71D000807
:10001000351F0008110900087125000800000000C4
:10002000000000000000000000000000072300089E
:10003000C509000800000000391F00080923000856
:10004000C3010008C3010008C3010008C301000880
:10005000C3010008C3010008C3010008C301000870
:10006000C3010008C3010008C3010008C301000860
:10007000C3010008C3010008C3010008C301000850
:10008000C3010008C3010008C3010008000000000C
:10009000000000000000000000000000C301000894
:1000A000C3010008C3010008C3010008C301000820
:1000B000C3010008C3010008C3010008C301000810
:1000C000C3010008C3010008C3010008C301000800
:1000D000C3010008C3010008C301000800000000BC
:1000E000C7090008C3010008C301000800000000A0
:1000F000000000000000000000000000C301000834
:1001000000000000C3010008C3010008C30100088B
:1001100000000000000000000000000000000000DF
:1001200015090008C3010008C3010008C301000845
:10013000C3010008000000000000000000000000F3
:10014000000000000000000000000000C3010008E3
:10015000C3010008C3010008C3010008C30100086F
:10016000C3010008C30100080000000000000000F7
:10017000000000000000000000000000000000007F
:1001800000000000C30100080000000000000000A3
:10019000C3010008DFF80CD000F0CCFA004800479B
:1001A000DD2E0008D8050020064880470648004795
:1001B000FEE7FEE7FEE7FEE7FEE7FEE7FEE7FEE717
:1001C000FEE7FEE795230008950100082DE9F05FA2
:1001D0000546002092469B468846064681464024B6
:1001E0001BE0284641464746224600F0F3F95346B5
:1001F0005A46C01A914110D311461846224600F0C3
:10020000DAF92D1A67EB01084F462246012000213A
:1002100000F0D1F917EB00094E41201EA4F10104B2
:10022000DFDC484631462A464346BDE8F09FD2B25D
:1002300001E000F8012B491EFBD270470022F6E7CF
:1002400010B513460A4604461946FFF7F0FF20464C
:1002500010BD421C10F8011B0029FBD1801A704709
:100260002DE9FE4F804681EA0300C00F0C46009046
:1002700021F0004123F00045B8EB0200A94105D26E
:100280004046214690461C460B46024623F000405D
:10029000104347D0270DC7F30A00C3F30A51029059
:1002A000401A019040286BDAC3F3130040F4801B1E
:1002B0000098924620B10023D2EB030A63EB0B0BAC
:1002C00001985946C0F14002504600F074F90646C4
:1002D0000D4650465946019A00F08CF910EB080083
:1002E0006141002487EA115284EAE7731A4340D03F
:1002F000009A62B3019A012A4FEA075215DC001BEB
:1003000061EB02014FF0004202EA0752CDE90042E0
:10031000001C41F5801132462B4600F08CF903B0E9
:10032000BDE8F08F40462146F9E7001B61EB020172
:10033000001C41F5801300185B412018A2F500173E
:1003400047EB030140EAD570B6196D4111E06D0825
:100350004FEA360645EAC0754FEA0752001B61EBCB
:100360000201001C41F5801149084FEA30000019D4
:10037000514132462B4603B0BDE8F04F00F04CB976
:100380000098012240000023D0EB020263EBE073EF
:10039000009821464FEAE074B8EB000061EB0401DD
:1003A000E9E783F000435BE781F0004158E72DE97E
:1003B000FE4F81EA030404F0004421F00041009460
:1003C0004FF0000B23F0004350EA01045ED052EAE4
:1003D00003045BD0C3F30A54C1F30A552C44A4F2BE
:1003E000F3340194A0FB0254C1F3130141F48011D2
:1003F000C3F3130343F4801301FB024400FB034ED9
:10040000840A970A44EA815447EA8357A4FB0768A1
:1004100002958D0A05FB07854FEA932C04FB0C54CB
:100420002705029D4FEA065847EA1637B5EB08053F
:100430006EEB070C870E920E47EA811742EA831291
:10044000A7FB0201B6EB0B0164EB00042B0D43EAA2
:100450000C335E1844EB1C50DA465146E7FB0201B0
:10046000C5F313044FEA0B3343EA14534FEA043243
:10047000019C43EA0603A4F10C040294009CCDE91C
:1004800000B400F0D8F803B0BDE8F08F00200146BA
:10049000F9E72DE9F04D81EA030404F0004B21F067
:1004A000004514464FF0000A23F0004150EA0502CF
:1004B00020D054EA01021DD0C5F30A570246C5F305
:1004C0001303C1F31300C1F30A5640F4801543F43B
:1004D0008013A7EB0608101BD64608F2FD3873EB15
:1004E000050002D308F1010801E092185B41B8F160
:1004F000000F03DA00200146BDE8F08D00204FF424
:100500008011064684460EE0171B73EB050705D3E2
:10051000121B63EB050306434CEA010C49084FEA42
:10052000300092185B4150EA0107EDD152EA030016
:1005300012D082EA040083EA0501084305D0101BAB
:10054000AB4106D20122002306E000224FF0004317
:1005500002E06FF0010253101AEB06004CEB085159
:1005600010EB0A0041EB0B01BDE8F04D00F054B870
:100570000EB540F2334102910021CDE900110A4647
:100580000B4600F058F803B000BD30B50B460146ED
:1005900000202022012409E021FA02F59D4205D322
:1005A00003FA02F5491B04FA02F52844151EA2F1CC
:1005B0000102F1DC30BD202A04DB203A00FA02F10E
:1005C000002070479140C2F1200320FA03F3194341
:1005D00090407047202A04DB203A21FA02F00021E3
:1005E000704721FA02F3D040C2F120029140084343
:1005F00019467047202A06DBCB17203A41FA02F051
:1006000043EAE07306E041FA02F3D040C2F120026F
:10061000914008431946704710B5141E73F1000449
:1006200008DA401C41F1000192185B411A4301D1E4
:1006300020F0010010BD2DE9F04D92469B4611B10E
:10064000B1FA81F202E0B0FA80F220329046FFF770
:10065000B2FF04460F4640EA0A0041EA0B01534646
:100660005A46084313D0114653EA010019D0C8F185
:1006700040025046FFF7AEFF05460E46504659462B
:100680004246FFF798FF084305D0012004E02046CA
:100690003946BDE8F08D0020054346EAE0762C435C
:1006A00037430A986305E40AA0EB08000022FD0A1C
:1006B00044EA47540A3002D500200146E9E7010523
:1006C00010196941DDE9084500196941BDE8F04D9F
:1006D000A2E7C1F30A52C1F3130140F2FF3341F420
:1006E00080119A4202DA00200146704740F23343FB
:1006F0009A42A2F2334202DC5242FFF76BBFFFF78D
:100700005ABF000030B5041E71F1000404DB4FF045
:100710000044404264EB0101141E73F1000405DB48
:100720001C464FF00043524263EB0403994208BF5A
:10073000904230BD064C074D06E0E06840F00103F2
:1007400094E8070098471034AC42F6D3FFF726FD33
:10075000703D0008903D000810B50146806B026CAA
:1007600012F0500F05D0026CD20626D500F07DFAAB
:1007700010BD016C41F40071016401688A6812F0D7
:10078000405F17D1027EAAB9CA6A12F4700F02D074
:100790008A6852050ED44A6822F020024A60016C31
:1007A00021F480710164016CC90403D4016C41F02F
:1007B0000101016400F0B2F910BD806BC26CBDE8AC
:1007C00010400846104710B5806B40210164416C11
:1007D00041F00401416400F048FA10BD10B5806B8F
:1007E00000F042FA10BD0000464910B54A6822F4F4
:1007F00040324A604A6843681A434A6001684A685E
:1008000022F480724A6001684A68036942EA03225E
:100810004A6001684A6822F040724A6001684A688A
:1008200083681A434A6001688A6822F400628A6019
:1008300001688A68C3681A438A60816A6FF07062CF
:10084000D14201688A6822F070628A6001688A6811
:100850000CD0836A1A438A6001688A6822F0405289
:100860008A6001688A68C36A1A4301E022F0405234
:100870008A6001688A6822F002028A6001688A68D8
:10088000037E42EA43028A6090F820100029016842
:100890004A680FD042F400624A6001684A6822F454
:1008A00060424A6001684A68174C436A04EB43336C
:1008B0001A4301E022F400624A600168CA6A22F425
:1008C0007002CA620168CA6A838B104C04EB03533E
:1008D0001A43CA6201688A6822F400728A60016859
:1008E0008A6890F8303042EA43228A6001688A6858
:1008F00022F480628A6001688A68406942EA802046
:10090000886010BD0023014000E0FFFF0000F0FF01
:10091000FEE70000014800F09FBA000074010020CB
:1009200001681823CAB2103AB2FBF3F2054B6FF319
:100930000901032A9B5CC36500D9091D816508462E
:10094000704700004F3D000810B5014600208B693C
:100950008A6A4FF0C07453B1B3F5005F15D072B11D
:10096000012A0CD0022A0AD0032A09D104E01AB1C4
:10097000012A06D0022A03D1C96AC90100D5012083
:1009800010BDC96AA142FAD010BD002AF7D0012AD1
:10099000F2D0022AF3D0032AF3D010BD30B5046898
:1009A000256825F480252560046863608368402BF2
:1009B000036803D099600068C26030BD9A60006827
:1009C000C16030BD70474FF4005000F0CBBB7047A2
:1009D00078B50024009490F83C20012A19D0012217
:1009E00080F83C200A6807230568092A13D9EE68B5
:1009F0000A3A02EB420293409E43EE600B788A680B
:100A00000A3B03EB43039A400368DD682A43DA603C
:100A100010E0022078BD2E6902EB420293409E4313
:100A20002E610B788A6803EB43039A4003681D69C3
:100A30002A431A614A681F23072A13D205686E6B7E
:100A4000521E02EB820293409E436E630B790A882A
:100A50005B1E92B203EB83039A4003685D6B2A43EB
:100A60005A6327E005680D2A12D22E6BD21F02EBC3
:100A7000820293409E432E630B790A88DB1F92B259
:100A800003EB83039A4003681D6B2A431A6311E04A
:100A9000EE6A0D3A02EB820293409E43EE620B79BE
:100AA0000A880D3B92B203EB83039A400368DD6A28
:100AB0002A43DA62164B0568144A9D4206D10D6836
:100AC000122D03D1556845F48005556005689D4297
:100AD00018D10B68102B01D0112B13D1536843F49C
:100AE00000035360096810290CD10A490A4A0968B1
:100AF000B1FBF2F101EB8101490000E0491E0091D8
:100B00000029FBD180F83C40002078BD0023014043
:100B1000002001402000002040420F00F0B52DEDE4
:100B2000048B83B04448454C016822688B182360CD
:100B30004068616842186260A16841F28830491CCF
:100B4000A160814273D1B3FBF0F1B2FBF0F2C4E9D2
:100B500000123BA001F02CFC37483BA1343822683E
:100B600001F008FD4FF478464FF6FF77374DCDE999
:100B7000017668680090304A0021343A08462B68B4
:100B800001F092FB2C4830A13438626801F0F2FC8D
:100B9000CDE9017668680090274A1221343A002096
:100BA0002B6801F081FB2068FFF7E2FC9FED288BAA
:100BB00053EC182BFFF7FBFB9FED279B53EC192BF6
:100BC000FFF7F5FB41EC100B1B4853EC102B24A155
:100BD000343801F0CFFCCDE9017668680090164A00
:100BE0000021343A32202B6801F05EFB6068FFF789
:100BF000BFFC53EC182BFFF7DAFB53EC192BFFF774
:100C0000D6FB41EC100B0C4853EC102B14A13438DC
:100C100001F0B0FCCDE9017668680090064A122127
:100C2000343A32202B6801F03FFB0020A06003B073
:100C3000BDEC048BF0BD000038010020080000204E
:100C400025642025640D0A0025346400000000207E
:100C50006666666666660A40000000000000303F77
:100C6000252E3266560000007047704770B50400AC
:100C70004FF0000503D0206C002610B107E00120E2
:100C800070BD204600F01CF8666484F83C60206C5F
:100C9000C00610D4206C20F4885040F0020020647C
:100CA0002046FFF7A1FD6664206C20F0020040F0B2
:100CB0000100206400E0012584F83C60284670BDF6
:100CC00070B586B0064614216846FFF7B7FA1D498D
:100CD0003068884234D11C480025016841F4807195
:100CE0000160006800F480700590174814380168AE
:100CF00041F0010101600068694600F001000590C3
:100D000003200090CDE90105104800F037FA114C9E
:100D10000F48C4E900050015A560C4E90350800030
:100D200060618000A0618011E0610002C4E90805F3
:100D3000204600F061F908B1FFF749FEB463A663ED
:100D400006B070BD0020014044380240000002405F
:100D50001064024074010020F8B50E4600210446DC
:100D6000009190F83C00012807D0012084F83C0055
:100D700020688368DB0702D011E00220F8BD836899
:100D800043F0010383602D482D4B0068B0FBF3F066
:100D900000EB400000E0401E00900028FBD12068DE
:100DA0008368DB0748D0236C40F20165AB4343F412
:100DB000807323644068400505D5206C20F4005002
:100DC00040F480502064206CC00404D5606C20F096
:100DD0000600606400E0616484F83C10A16B1A486E
:100DE000184DC863A16B19480864A16B1848C86402
:100DF00021686FF0220008602068416841F080613E
:100E000041602068816841F48071816021681346E7
:100E100032464C31A06B00F059F96868C006206872
:100E200002D00C49884207D1816811F0405F03D19C
:100E3000816841F0804181600020F8BD20000020E1
:100E400040420F000023014059070008DD07000859
:100E5000C7070008002001402DE9F84304464FF081
:100E60000009CDF8009063484FF41651A56D006855
:100E7000B0FBF1F72E6894F85C10082000FA01F13D
:100E800031420FD021680A6852070BD50A6822F058
:100E900004020A6094F85C108840A860606D40F01D
:100EA0000100606594F85C104FF0010808FA01F049
:100EB000304208D021684969090604D5A860606DF0
:100EC00040F00200606594F85C10042088403042D5
:100ED00008D021680968890704D5A860606D40F0D2
:100EE0000400606594F85C1010208840304218D0EF
:100EF00021680968090714D5A860206801684903BA
:100F000004D50068000308D5A16C07E00168C90595
:100F100003D4016821F008010160216C09B1204669
:100F2000884794F85C1020208840304231D02168F6
:100F30000968C9062DD5A86094F8350005282068F1
:100F4000016806D0490347D5006800031DD4616CD1
:100F50001CE021F0160101602068416921F0800148
:100F60004161206C08B9A06C20B12068016821F0B3
:100F70000801016094F85C103F208840A86084F864
:100F8000349084F83580216D1FE0E16B09B1204673
:100F90008847606D00282BD0606DC00714D00520F5
:100FA00084F835002068016821F001010160009893
:100FB000401C0090B84203D820680068C007F6D1F2
:100FC00084F8349084F83580E16C002910D001B0A9
:100FD0002046BDE8F04308470168C905D5D401683B
:100FE00021F01001016084F8349084F83580CCE75A
:100FF000BDE8F883200000202DE9F041044600F010
:1010000093F906465CB1002584F83450022084F838
:1010100035002068016821F0010101600DE0012028
:10102000BDE8F08100F080F9801B052805D920205B
:101030006065032084F83500F2E720680068C00787
:10104000F0D12268116820480140D4E90103184317
:10105000D4E903363343184363691843A36918433B
:10106000E3691843236A18430843616A042903D1DA
:10107000D4E90B1319430843106020684069666A7D
:1010800020F0070130460E43012704280CD1A06A46
:101090000643E06A40B12046FFF756FC20B14020ED
:1010A000606584F83570BAE7206846612046FFF72E
:1010B00037FC94F85C203F2191408160656584F89D
:1010C00035700020ACE700003F8010F02DE9F041C2
:1010D0000446866D90F83400002501280DD00120CB
:1010E00084F8340094F835700020012F07D084F87C
:1010F000340002252846BDE8F0810220FBE70227E4
:1011000084F8357060652046FFF748FC94F85C1061
:101110003F208840B0602068016841F016010160FE
:10112000206C20B12068016841F00801016020684E
:10113000016841F001010160DCE7000070B5044680
:1011400000F0F2F80546601C02D004480078044420
:1011500000F0EAF8401BA042FAD370BD1400002052
:1011600070470000044910B50A68024202D00860C6
:10117000FFF7F6FF10BD0000143C01402DE9F84FC9
:1011800000224FF0010803254FF00F0E0B6808FAFC
:1011900002F42340A34271D14E68012E05D0022EE5
:1011A00003D0112E01D0122E15D18668570005FAF2
:1011B00007FC26EA0C06D1F80CC00CFA07FC4CEA36
:1011C000060CC0F808C04668A6430C79C4F30014A6
:1011D000944034434460C668570005FA07FC8C68A5
:1011E00026EA0C06BC403443C4604C68022C01D093
:1011F000122C13D1D40800EB8404A346D4F8209019
:1012000054074FEAD46A0EFA0AF629EA06090E696B
:1012100006FA0AF646EA0906CBF8206004680E7959
:1012200024EA0C0406F00306BE40264306604C6820
:10123000E40056D52E4C266846F480462660246885
:1012400022F0030604F4804400942A4C3444A4465B
:10125000D4F808489607370F0EFA07F6B443264E1F
:10126000B04201D1002615E0244EB04201D1012642
:1012700010E0234EB04202D102260BE031E0214EB5
:10128000B04201D1032605E01F4EB04201D1042631
:1012900000E00726BE402643CCF808681B4E3468A1
:1012A0004F689C43FF0300D51C433460174E361D26
:1012B00034684F689C43BF0300D51C433460134E11
:1012C000083634684F689C43FF0200D51C433460E5
:1012D0000E4E0C3634684F689C43BF0200D51C4349
:1012E0003460521C102AFFF451AFBDE8F88F0000A3
:1012F0004438024000300140000002400004024037
:1013000000080240000C024000100240003C014076
:10131000426931EA020200D10904816170470AB1D1
:10132000816170470904FBE701488068704700004D
:1013300014000020024881680278114481607047DF
:10134000140000200B4810B5016841F400710160E1
:10135000016841F480610160016841F480710160BD
:10136000032000F071F8002000F006F800F024F8E7
:10137000002010BD003C024070B50D4D04464FF4F6
:101380007A712878B1FBF0F00A490968B1FBF0F0F6
:1013900000F03AFC48B9102C07D200222146501E1A
:1013A00000F032F800206C6070BD012070BD0000BC
:1013B00014000020200000200B4882B0016841F496
:1013C00080410160006800F4804000900648001FE2
:1013D000016841F080510160006800F08050009089
:1013E000072002B000F030B844380240002809DB82
:1013F00000F01F02012191404009800000F1E0202F
:10140000C0F8001170470000F0B40E4B1B680C468A
:10141000C3F30223C3F10705042D00D90425191DC8
:10142000072901D2002300E0DB1E012606FA05F1A0
:10143000491E214099409E40761E16403143F0BC23
:1014400001F0C2B80CED00E0064900F007020868A0
:101450004FF6FF03184040EA0220034A1043086099
:10146000704700000CED00E00000FA052DE9F047A0
:101470000E46050065D0DFF81481D8F80000F7B2F9
:1014800000F00F00B04207D288F80070D8F80000D2
:1014900000F00F00B04254D128683D4C810712D5AE
:1014A000400703D5206840F4E0502060287800070A
:1014B00003D5206840F4604020602068A96820F0CF
:1014C000F000084320602878C0072DD030496868B4
:1014D0000839012812D0022813D0032811D0096836
:1014E000890700292DDA216821F0030101432160D9
:1014F000FFF71AFF814641F2883A0EE00968890336
:10150000EFE709688901ECE7FFF70EFFA0EB09019F
:10151000514502D90320BDE8F0872068696800F0D2
:101520000C00B0EB810FEFD1D8F80010404601F06D
:101530000F01B14207D90770006800F00F00B042F8
:1015400001D00120E7E72878400705D52068E96841
:1015500020F4E050084320602878000706D5206872
:10156000296920F4604040EAC100206000F038F8AA
:101570002168084AC1F30311515CC840064908605C
:1015800006480068FFF7F8FE0020C4E7003C024070
:1015900008380240573D00082000002018000020B5
:1015A0000448054900680968044AC1F38221515C76
:1015B000C84070472000002008380240673D0008FE
:1015C0000448054900680968044AC1F34231515C86
:1015D000C84070472000002008380240673D0008DE
:1015E000154810B5006810F00C02144813D04110D3
:1015F000042A0FD0082A0ED10F4C241F226823681A
:1016000002F03F025B0207D52068C0F38810A0FB00
:10161000010106E0084610BD2168C1F38811A1FB55
:1016200000010023FEF7D2FD2168C1F30141491CEE
:101630004900B0FBF1F010BD083802400024F4006E
:101640002DE9F84F040076D02078DFF838A3CE4D8E
:10165000C00749D0DAF800105046C1F381010129D2
:1016600008D00068C0F3810002280AD1281D006854
:10167000400206D52868800336D560680028E2D08D
:1016800032E06068B0F5803F10D0B0F5A02F286838
:1016900010D020F480302860286820F48020286052
:1016A0006068A0B1FFF740FE06460CE0286840F4F1
:1016B0008030F4E740F480202860F7E7FFF734FE3D
:1016C000801B642873D828688003F7D50CE0FFF7E7
:1016D0002BFE064605E000BFFFF726FE801B6428B0
:1016E000F0D828688003F7D42078DFF8A08280073C
:1016F0004FF000093ED5DAF80010504611F00C0FFB
:1017000009D00068C0F3810002280BD19D48001F5A
:101710000068400206D42868800715D5E0680128D3
:1017200009D111E0E068B8B10120C8F80000FFF766
:10173000FBFD064605E020E1FFF7F6FD801B0228D1
:10174000C0D828688007F7D52868216920F0F800FC
:1017500040EAC10028600DE0C8F80090FFF7E4FD02
:10176000064604E0FFF7E0FD801B02281FD828682A
:101770008007F7D42078000722D5824E844861691B
:101780006C3671B101210160FFF7CEFD074604E020
:10179000FFF7CAFDC01B022809D830688007F7D5BB
:1017A0000EE0C0F80090FFF7BFFD074605E082E0BD
:1017B000FFF7BAFDC01B02287DD830688007F7D438
:1017C0002078400768D5DFF8BCB100270BF1380B53
:1017D000DBF80000C0000BD4DBF8001041F08051B2
:1017E000CBF80010DBF80000012700F080500090DB
:1017F000684E3068C00510D4306840F480703060A6
:10180000FFF792FD009005E0FFF78EFD0099401A6A
:10181000022850D83068C005F6D55A4EA068683600
:1018200001280FD00528306810D020F0010030606A
:10183000306820F004003060A068B8B1FFF774FD94
:1018400000900FE0306840F00100F4E740F0040041
:101850003060F7E7FFF768FD0099411A41F28830E0
:10186000814266D830688007F4D50EE0FFF75CFD52
:10187000009007E0FFF758FD0099411A41F28830C7
:10188000814256D830688007F4D42FB1DBF80010BD
:1018900021F08051CBF80010A069D0B3DAF8002015
:1018A0005146C2F38102022A4AD00228484607D094
:1018B000C8F8600000E03CE0FFF736FD04463BE07E
:1018C0004746C8F86000FFF72FFD064605E000BF59
:1018D000FFF72AFD801B02282BD828688001F7D447
:1018E000D4E907010843A16A2B4A490802EB0141E8
:1018F000626A41EA8211084394F82C1040EA0161BF
:101900002048001F016001203866FFF70DFD0446E6
:1019100005E034E0FFF708FD001B022809D828681D
:101920008001F7D52BE000BFFFF7FEFC001B02286B
:1019300002D90320BDE8F88F28688001F4D41EE0A6
:101940000128F7D00868E26900F48001914214D1BF
:10195000226A00F03F0191420FD147F6C071626ADE
:101960000140914209D1A26A00F44031914204D170
:10197000E16A00F07060884201D00120DAE70020BF
:10198000D8E7000008380240003802400000474213
:10199000800E4742007000400000FFFF70B5040059
:1019A00005D00025A56294F8510010B106E0012091
:1019B00070BD84F85050204600F030F8022084F8C2
:1019C00051002068016821F040010160D4E9010163
:1019D0000843D4E903121143084361690843218B8A
:1019E00001F400710843E1690843216A0843A16AD0
:1019F000084321680860A069042101EA1040616A77
:101A00000843216848602068C16921F40061C16110
:101A10006565012084F85100002070BDF0B587B0E5
:101A2000044614216846FEF709FC1C4920688842D8
:101A300032D11B480024016841F4804101600068F4
:101A400000F48040059016481038016841F0040108
:101A50000160016801F004010591016841F0020193
:101A600001600068022500F0020005900820CDE921
:101A7000000502AA0326052782E8D0006946094826
:101A8000FFF77CFB6802CDE9000502AA694682E8FF
:101A9000D0000548FFF772FB07B0F0BD00380040EA
:101AA0004038024000080240000402402DE9F84F8F
:101AB000044690F8500000271D4616468946012826
:101AC0000DD04FF0010B84F850B0FFF72DFC80468D
:101AD00094F85100BA46012804D002278EE0022073
:101AE000BDE8F88FB9F1000F7DD0002E7BD0032028
:101AF00084F85100C4F854A0C4F83090A686E68655
:101B0000C4F838A0A4F83CA0A4F83EA0C4F844A0AF
:101B1000C4F840A0A068B0F5004F04D12068016867
:101B200041F48041016020680168490603D40168DE
:101B300041F040010160E068B0F5006F606803D0DB
:101B400030B3012E24D040E008B1012E1CD1206B0F
:101B500021680088C86006E020688168890709D587
:101B6000216B0988C160206B801C2063E08E401EC1
:101B7000E08609E0FFF7D8FBA0EB0800A84202D3FB
:101B8000681C01D031E07DB3E08E0028E4D11FE075
:101B9000206B21680078087306E020688168890757
:101BA00009D5216B09780173206B401C2063E08EFE
:101BB000401EE08609E0FFF7B7FBA0EB0800A84253
:101BC00002D3681C01D010E075B1E08E0028E4D18A
:101BD00042462946204600F0B1F908B12020606550
:101BE000A06820B107E008E0FFE7032706E02068CF
:101BF000C16880680090606D00B1012784F851B021
:101C000084F850A038466BE710B5401EB0F1807FD5
:101C100001D3012010BD4FF0E02460610F21601757
:101C200000F0D2FC0020A06107202061002010BD40
:101C300070B5040004D094F83900002510B106E016
:101C4000012070BD84F83850204600F023F824208D
:101C500084F839002068C16821F40051C160204631
:101C600000F0C0FB2068016921F490410161206807
:101C7000416921F02A0141612068C16841F40051A5
:101C8000C160E563202084F8390084F83A00002020
:101C900070BD000010B586B0044614216846FEF7FA
:101CA000CDFA1349206888421FD1124800210268EA
:101CB00042F400320260006800F4003005900D48E4
:101CC0001038026842F001020260006800F0010072
:101CD00005900C2000900220CDE901010720CDE9FC
:101CE000031069460448FFF749FA06B010BD00002A
:101CF0000044004040380240000002402DE9F84313
:101D0000044690F839001F4616460D46202850D14B
:101D1000B5B1AEB194F8380001284AD0012084F85A
:101D200038004FF00008C4F83C80212084F83900C6
:101D3000FFF7FAFAA6848146E68484F8388026E024
:101D40000120BDE8F883E08C401EE084A0684B468B
:101D5000B0F5805F4FF000024FF080012046009701
:101D600003D000F0D3FBE8B90DE000F0CFFBC8B919
:101D700028882168C0F308004860206908B16D1CFC
:101D800005E0AD1C03E0216815F8010B4860E08C0C
:101D90000028D8D14B46002240212046009700F071
:101DA000B5FB08B10320CCE7202084F839000020DF
:101DB000C7E70220C5E7FEE77FB500241548009479
:101DC0000194029412490394016001254FF480317B
:101DD0000561C0E90114057680F820400E49C0E98C
:101DE0000A140226C661C46080F830504561FEF7CF
:101DF0003DFF06200094CDE9015069460548FEF7F5
:101E0000E7FDCDE9005669460248FEF7E1FD7FBDDA
:101E100000200140240000200100000FF0B587B031
:101E200014216846FEF70AFA2F480024016841F0A1
:101E300004010160016801F004010591016841F0AD
:101E400080010160016801F080010591016841F0A5
:101E500001010160016801F001010591016841F093
:101E6000020101600068214E00F002004FF49075FD
:101E70000590002229463046FFF751FA1C4F0022F8
:101E800030213846FFF74BFA4FF4005000901948C4
:101E9000CDE9010469461848FFF770F9009501255E
:101EA000CDE90154694630460394FFF767F96802AB
:101EB0000090124801900220029069463046FFF7D8
:101EC0005DF930200090CDE901546946384603940D
:101ED000FFF754F9002211462820FFF795FA282031
:101EE000FFF784FA07B0F0BD30380240000002402E
:101EF0000004024000002110000802400000111000
:101F00000B480A49022201604FF4827141600021AE
:101F10008160C0E903121202C0E90512C1610162C9
:101F2000416281620A21C162FFF738BD003800407A
:101F30006C000020FEE770477047000038B504468B
:101F40001248134B0068B0FBF3F04FF47A73584318
:101F500000906068B0F5827F0DD10B4600920022A0
:101F60008021204600F016F870B1606D40F020002E
:101F70006065032038BD009830B1401E0090206895
:101F80008068C0430006F6D5002038BD2000002040
:101F900000366E012DE9F0411D4617460E460446F7
:101FA000DDF8188008E0681C06D0FFF7BDF9A0EB4B
:101FB0000800A8420BD255B12068806836EA0000BC
:101FC00030D00020B842EED10020BDE8F08120687A
:101FD000416821F0E00141606068B0F5827F0BD17B
:101FE000A068B0F5004F02D0B0F5806F04D1206832
:101FF000016821F040010160A06AB0F5005F09D1DD
:102000002068016821F4005101602068016841F4F2
:1020100000510160012084F85100002084F8500034
:102020000320D2E70120CDE72DE9F04110F8015B54
:10203000044617E0207800F00FF96078A41C00F047
:10204000800730F0800604D03146204600F016F9B3
:1020500034443FB114F8010BFF2801D14FF4FA705A
:10206000FFF76CF86D1EEDB2E4D2BDE8F081000020
:102070002DE9F8431F46DDF8208014460D4606463C
:1020800080283BD2A02D39D23019401E802802DB97
:10209000C6F1800084B2E819401EA02802DBC5F119
:1020A000A00087B200F05EF8E819401EC3B23019F4
:1020B000401EC2B2E9B2F0B200F05CF84FEA18205C
:1020C0008DF800008DF80180012220210C48FFF7D7
:1020D00026F94FF0FF360DE0254607E03346022291
:1020E00069460848FFF7E2FC6D1EADB2002DF5D140
:1020F0007F1EBFB2002FEFD100F05EF8BDE8F8837D
:10210000000402406C00002008B500210090A023CC
:1021100080220846FFF7ACFF08BD000010B500F0B4
:1021200021F80E4C002210212046FFF7F8F8052078
:10213000FFF704F8012210212046FFF7F0F80848C5
:10214000FFF772FF06483B30FFF76EFF0448483048
:10215000FFF76AFFBDE8104000F02EB8000402400F
:10216000DC3C000800224FF480710148FFF7D7B82B
:1021700000000240F8B507461C4615460E462A20C8
:1021800000F06AF8002000908DF801708DF803507F
:102190000421684600F072F82B2000F05DF88DF8FD
:1021A00001608DF803400421684600F067F82C2098
:1021B00000F052F8F8BD0000012211020148FFF7BB
:1021C000AEB80000000002400FB42DE9FF5F4A1EC8
:1021D000C3F307263244D4B2DFB2421EDDE913A9AD
:1021E0003A44D2B2C9B2C0B22346FFF7C3FF0025BA
:1021F0002CE01098203810FB06501299002409F0AA
:10220000FF0B31F810804FEA1A2002900AF0FF000D
:1022100001904FEA1920009015E000BF08FA04F081
:10222000000406D502988DF80C0001988DF80D0079
:1022300004E000988DF80C008DF80DB0022103A881
:1022400000F01CF8641CA742E8D86D1CAE42D0D840
:10225000BDE8FF1F5DF814FB01B5002220210548F1
:10226000FFF75DF84FF0FF33012269460248FFF7A0
:102270001DFC08BD000402406C00002070B50D4636
:102280000446012220210648FFF749F8AAB2214658
:10229000BDE870404FF0FF330248FFF707BC000075
:1022A000000402406C0000202DE9FE4F9846DDE955
:1022B0000DA914460E460546DDF830B0FFF752FF73
:1022C00008F0FF0718E07819802809D3C8F3072021
:1022D00081198EB200253044A02810D2202A0AD0BD
:1022E000CDF800B0CDE901A9434631462846FFF7B5
:1022F0006BFF781985B2641C2278002AE3D1BDE80F
:10230000FE4FFFF759BF7047FFF714B830B593B0D1
:1023100030216846FDF792FF14210CA8FDF78EFFCF
:102320001A480024016841F080510160006800F003
:10233000805011901648016821F4404141F4004159
:1023400001600068022500F44040119001200390D4
:102350001020009506950490CDE907404FF4A87031
:10236000099004200A9007200B906846FFF768F94F
:102370000F20CDE90C05E802CDE90E4002210CA8A2
:102380001094FFF773F813B030BD000040380240DE
:10239000007000400548016841F470010160034984
:1023A0004FF00060803908607047000088ED00E061
:1023B0000FB44FF4807100B5C1B043AB6846429A88
:1023C00000F0ECF86846FDF744FF82B24FF0FF33AF
:1023D00069460348FFF792FC41B05DF814FB00002A
:1023E000C40000202DE9F041044600680169E2685C
:1023F00021F44051114301612169A068E269084359
:102400006169114308432168CA6849F20C639A4321
:102410000243CA6020684169A26921F440711143F6
:102420004161E069192764253226B0F5004F354A2D
:10243000354920684FF0000806D0884201D090420C
:1024400036D1FFF7BDF835E0884201D0904202D185
:10245000FFF7B6F801E0FFF7A3F861684A18A0FBA0
:10246000070148EB0803FDF7B1FE0146B0FBF5F0AC
:102470000201B1FBF5F06FF01803584301EB800047
:1024800006EBC000B0FBF5F000F0F80002EB4002F4
:10249000B1FBF5F0584301EB800006EBC000B0FB48
:1024A000F5F000F00700216810448860BDE8F08175
:1024B000FFF776F861688B0F8A00A0FB0701FDF734
:1024C00085FE0146B0FBF5F06FF01802504301EBBA
:1024D000800006EB0010B0FBF5F000F0F002B1FB5D
:1024E000F5F002EB0012B1FBF5F06FF01803584362
:1024F00001EB800006EB0010B0FBF5F000F00F00E0
:10250000D1E7000000140140001001402DE9F04126
:10251000984617460E460446069D1DE0681C1BD0D3
:102520002DB1FEF701FFA0EB0800A84214D92068E6
:10253000C16821F4D071C1602068416921F00101B6
:102540004161202084F8390084F83A00002084F8A2
:1025500038000320BDE8F0812068006836EA0000FA
:1025600004D00020B842D9D00020F3E70120F9E7D9
:10257000FEE700000FB4084B10B504A902AA0398A7
:1025800000F004F9044602A9002000F0A1FC204656
:1025900010BC5DF814FB0000D12E00087CB5044689
:1025A00000201D46164600290BD0491ECDE90041EA
:1025B000044B6A462946304600F0E8F8009A0021AC
:1025C00011707CBDBB2E00080907090E002804DB32
:1025D00000F1E02080F80014704700F00F0000F1D7
:1025E000E02080F8141D704702E008C8121F08C1DF
:1025F000002AFAD170477047002001E001C1121F84
:10260000002AFBD1704700002DE9FF5F82B0002156
:10261000DDE90430020DDDF840B0034318D044F684
:102620001050A2F2FF3242431514119801281FD016
:10263000A5EB0B00401C5FEA000A4FF000064E4F6E
:10264000DFF83891B046504615D5CAF1000413E0C2
:10265000119801244AA3012801D16FEA0B010298C5
:10266000119AC0E90031C0E9024206B0BDE8F09F0E
:10267000CBF10000DFE704460021404A491842EB55
:102680000450CDE9001012E0E00707D032463B4687
:1026900040464946FDF78BFE8046894632463B461A
:1026A00010461946FDF783FE06460F466410002CBF
:1026B000EAD1DDE90401DDE90023BAF1000F06DA11
:1026C000FDF775FE42464B46FDF771FE05E0FDF74E
:1026D000E0FE42464B46FDF7DCFE04460E46002275
:1026E000284BFEF70FF803D84FF0FF30014607E004
:1026F0000022254B20463146FDF7B2FDFDF7E9FFEC
:10270000102409E0002C0ADB0A220023FDF75EFDFD
:10271000039B30321A55641E50EA0102F2D1641C48
:10272000039AC4F111031444119A012A03D001221F
:1027300008430DD10AE0084304D000204FF0110BEC
:10274000119072E7A3EB0B056D1E0DE05B4504DDF8
:102750004FF0000205F1010504E003DA4FF000023A
:10276000A5F10105002AECD002981199C0E90231C7
:10277000C0E9004579E70000000014400000F03F88
:10278000300000000000F0430000E03F2DE9FF4F63
:1027900095B09B468946064600250FE2252877D14D
:1027A00000242746F84A0121059400E0044316F866
:1027B000013F203B01FA03F01042F7D130782A287C
:1027C00011D06FF02F033078A0F13002092A16D80B
:1027D000059A44F0020402EB820203EB4202104429
:1027E000761C0590EFE759F8042B0592002A03DACE
:1027F000504244F40054059044F00204761C3078B2
:102800002E2816D116F8010F44F004042A280DD002
:102810006FF02F023078A0F13003092B09D807EBB5
:10282000870302EB4303C718761CF3E759F8047BD0
:10283000761C30786C280FD006DC4C2817D068281E
:102840000DD06A2814D104E0742810D07A280FD152
:102850000DE044F400140AE044F4801401E044F470
:1028600040147278824202D104F58014761C761CE2
:10287000307866280BD013DC582877D009DC002884
:1028800075D04528F6D04628F4D047281AD19DE1C6
:1028900018E0632835D0642879D0652812D195E1F5
:1028A000702873D008DC6728F1D069286FD06E28B3
:1028B0000DD06F2806D1B5E073282CD0752875D0BF
:1028C000782874D05A46179990476D1C75E1C4F367
:1028D0000250022809D003280DD0D9F8001004288E
:1028E0000DD00D6009F1040967E1D9F80010EA176D
:1028F000C1E90052F6E7D9F800100D80F2E70D703B
:10290000F0E719F8041B8DF8001000208DF8010085
:10291000EA46012003E059F804AB4FF0FF306107AD
:102920004FF0000102D40DE008F101018846B942E0
:102930000FDA8045F8DB1AF808100029F4D108E016
:1029400008F1010188468142FADB1AF808100029D3
:10295000F6D105985B46A0EB080721463846179A42
:1029600000F094FA284400EB080507E04DE029E167
:102970000DE01AF8010B5A4617999047B8F1010873
:10298000F7D25B4621463846179A13E142E00A2205
:102990000092C4F302524FF0000A022A08D059F8FC
:1029A00004CB032A4FEAEC710AD00DE029E02AE0BB
:1029B00009F1070121F00702F2E802C1914609E09E
:1029C0000FFA8CFC4FEAEC71042A03D14FFA8CFC0D
:1029D0004FEAEC71002907DA0A460021DCF1000C0D
:1029E00061EB02012D2202E0220504D52B228DF895
:1029F0000420012203E0E20701D02022F7E79046FD
:102A000059E00A2102E010220DE010214FF0000AE7
:102A100000910BE010224FF0000A44F00404082754
:102A2000009203E008224FF0000A0092C4F3025221
:102A3000022A05D059F804CB0021032A08D009E066
:102A400009F1070121F00702F2E802C1914605E011
:102A50001FFA8CFC042A01D10CF0FF0C4FF0000887
:102A6000220728D5702806D0009B83F0100353EA74
:102A70000A0305D00EE040228DF80420012208E070
:102A80005CEA010206D030228DF804208DF80500A2
:102A900002229046009B83F0080353EA0A030AD1FE
:102AA0005CEA010201D1620705D530228DF80420CD
:102AB0004FF001087F1E582804D034A003900EA8C0
:102AC00002900DE036A0F9E753466046009AFDF704
:102AD0007DFB84460398825C0298401E029002703F
:102AE0005CEA0100F0D1029806A9081A00F1200A58
:102AF000600702D524F4803400E00127574502DD49
:102B0000A7EB0A0000E0002000EB0A010090059806
:102B10004144401A0590E00306D45B462146179ACB
:102B2000059800F0B3F90544002706E001A85A46CD
:102B3000C05D179990476D1C7F1C4745F6DBE0038D
:102B40000CD55B462146179A059800F09FF905447D
:102B500004E030205A46179990476D1C0099481E92
:102B600000900029F5DC08E0029802995A460078A6
:102B7000491C0291179990476D1CBAF10001AAF106
:102B8000010AF1DC65E1000009280100303132332F
:102B90003435363738396162636465660000000099
:102BA0003031323334353637383941424344454683
:102BB0000000000000F058F90544761C3078002829
:102BC0007FF4ECAD19B02846BDE8F08F620700D461
:102BD000062709F1070222F0070CFCE80223E14670
:102BE00003F000485FEA080C02D00FF2702C0DE0F1
:102BF0005FEA045C02D50FF2682C07E05FEAC47C50
:102C000002D00FF2602C01E0AFF2700C4FF0FF38F1
:102C100023F00043CDF850C065280CD006DC4528D1
:102C200009D046281DD047283DD13DE0662818D060
:102C300067287ED138E00021112F01DB112000E050
:102C4000781CCDE9000106A90EA8FFF7DDFCDDE93F
:102C50000F010E9A03910021009207F1010A0491DD
:102C60004DE04FF000400097CDE9011006A90EA8F5
:102C7000FFF7CAFCDDE90F0203920E9B11990022B7
:102C8000DDF80CA00093049211B9791C00EB010A45
:102C9000B7EB0A0004D4C0F1FF3007F1010A049039
:102CA000AAEB0700019044E0012F00DA0127002180
:102CB000112F01DD112000E03846CDE9000106A901
:102CC0000EA8FFF7A1FCDDE90F010E9A0391002188
:102CD00004910092BA4621070CD40399514500DAB9
:102CE0008A46BAF1010F05DD009AAAF10101515C93
:102CF000302908D0B84202DA10F1040F06DA0121B7
:102D0000CDE9011015E0AAF10101E9E7002805DC91
:102D1000049901440491AAEB000102E0411C5145D1
:102D200000DD8A460499401A401C01904FF0004093
:102D30000290200704D40198504501DBCDF80480AF
:102D400000208DF84F0002980DF14F07B0F1004FB1
:102D500025D02B200E9002984FF0020800280CDAA4
:102D6000404202902D200E9007E00A210298FDF7C4
:102D70000CFC3031029007F8011DB8F10001A8F1F8
:102D80000108F2DC02980028EFD1791E0E98087035
:102D9000307800F0200040F0450007F8020D12A83E
:102DA000C01B00F107081498007800B1012000EB67
:102DB0000A01019801EBE07105984144401A401E58
:102DC0000590E00306D45B462146179A059800F06B
:102DD0005DF805441498007818B15A461799904741
:102DE0006D1CE00324D55B462146179A059800F038
:102DF0004DF805441CE00498002807DBDDE90301D9
:102E0000884203DD0098405C179901E01799302053
:102E10005A469047049805F10105401C049001981A
:102E2000401E019004D12E205A46179990476D1CE0
:102E3000BAF10001AAF1010ADDDC05E017F8010B87
:102E40005A46179990476D1CB8F10001A8F1010886
:102E5000F4DC5B462146179A0598ABE62D0000008E
:102E60002B000000200000002DE9F0410446002561
:102E70001E461746880404D405E039462020B04792
:102E80006D1C641EF9D52846BDE8F0812DE9F0419E
:102E9000044600251E469046C80301D5302700E0B1
:102EA0002027880404D505E041463846B0476D1C0C
:102EB000641EF9D52846BDE8F0814A68002A06D08C
:102EC0000A68531C0B6010704868401E48607047C9
:102ED0000A68531C0B6010707047000008B5FEF7BD
:102EE00031FAFFF713FAFEF799FF1F480024016833
:102EF00041F4800101600068224600F480000090E7
:102F000021463820FEF780FA3820FEF76FFAFEF7E8
:102F100053FFFEF7F5FF1648144901604FF4E13105
:102F2000C0E901140C21C460C0E904418461C4619A
:102F3000FEF77EFEFFF7F2F84FF47840FFF7E4F873
:102F40000CA0FFF735FA0A4902227431A1F58A7004
:102F5000FDF702FF094C6420FEF7F0F8202120461F
:102F6000FEF7D6F9F7E70000303802400044004091
:102F7000C400002052656164790D0A00000002401F
:102F80000000000000000000000000000000000041
:102F90000000000000000000000000000000000031
:102FA000000000000000000C000C000C000C000CE5
:102FB000000C000C000C000C000C000C0000000CBD
:102FC000000C0000000000000000001B001B001BA4
:102FD000001B001B000000000000000000000000BB
:102FE0000000000000000000000000000000801948
:102FF000801980198019C07FC07F80190033C07F7D
:10300000C07F0033003300330033000000000000B5
:103010000000001E003F807580650074003C001EAB
:1030200000078005806580658075003F001E0004F4
:10303000000400000000007000D840D8C0D880D93B
:1030400000730006000C801BC036C066C046C00678
:1030500080030000000000000000001E003F00335D
:1030600000330033001E000CC03CC06680638061EA
:103070008063C03E801C0000000000000000000CC7
:10308000000C000C000C000C000000000000000010
:103090000000000000000000000000000000000030
:1030A000800000010003000600060004000C000C74
:1030B000000C000C000C000C0004000600060003CD
:1030C00000018000002000100018000C000C00041B
:1030D0000006000600060006000600060004000CBC
:1030E000000C0018001000200000000C002D003F14
:1030F000001E00330000000000000000000000007F
:1031000000000000000000000000000000000000BF
:103110000000000C000C000C000CC0FFC0FF000CF5
:10312000000C000C000C000000000000000000007B
:10313000000000000000000000000000000000008F
:1031400000000000000000000000000C000C000463
:103150000004000800000000000000000000000063
:10316000000000000000001E001E00000000000023
:10317000000000000000000000000000000000004F
:10318000000000000000000000000000000000003F
:103190000000000C000C0000000000000000000314
:1031A000000300030006000600060006000C000CE9
:1031B000000C000C001800180018000000000000AF
:1031C0000000001E003F0033806180618061806DDF
:1031D000806D8061806180610033003F001E0000CF
:1031E0000000000000000006000E001E0036002651
:1031F000000600060006000600060006000600069F
:1032000000060000000000000000001E003F807368
:1032100080618061800100030006000C001800300E
:103220000060807F807F0000000000000000001C24
:10323000003E006300630003000E000E00038001E7
:10324000800180618073003F001E000000000000CC
:1032500000000006000E000E001E001E00160036C4
:1032600000360066807F807F0006000600060000B2
:10327000000000000000007F007F00600060006030
:10328000006E007F80638001800180618073003F59
:10329000001E0000000000000000001E003F803300
:1032A00080610060006E007F80738061806180615A
:1032B0008033003F001E0000000000000000807FFF
:1032C000807F80010003000300060006000C000C54
:1032D000000C000800180018001800000000000092
:1032E0000000001E003F8063806180610021001E9D
:1032F000003F8061806180618061003F001E0000AE
:10330000000000000000001E003F0073806180612B
:1033100080618073803F801D800180610073003F69
:10332000001E00000000000000000000000000007F
:103330000000000C000C0000000000000000000075
:103340000000000C000C0000000000000000000065
:103350000000000000000000000C000C0000000055
:10336000000000000000000C000C00040004000835
:10337000000000000000000080008003000E003804
:1033800000600038000E8003800000000000000094
:103390000000000000000000000000000000807F2E
:1033A000807F00000000807F807F00000000000020
:1033B000000000000000000000000000000000000D
:1033C00000400070001C000780010007001C007016
:1033D0000040000000000000000000000000001F8E
:1033E000803FC071C060C000C00180030007000EB4
:1033F000000C000C0000000C000C0000000000009D
:103400000000001E003F803180718063806F806DFE
:10341000806D806F806700600032003E001C0000FD
:10342000000000000000000E000E001B001B001B2F
:10343000001B80318031803F803F8031C060C060A0
:10344000C0600000000000000000007C007E0063FF
:10345000006300630063007E007E00638061806122
:103460008063007F007E0000000000000000001E5E
:10347000003F80318061006000600060006000609B
:10348000006080618031003F001E000000000000ED
:103490000000007C007F0063806380618061806148
:1034A00080618061806100630063007E007C0000B9
:1034B000000000000000807F807F006000600060EE
:1034C0000060007F007F0060006000600060807F1F
:1034D000807F0000000000000000807F807F00608F
:1034E000006000600060007F007F0060006000609E
:1034F0000060006000600000000000000000001E8E
:10350000003F803180610060006000608063806304
:10351000806180618031803F001E0000000000005B
:103520000000806180618061806180618061807F56
:10353000807F806180618061806180618061000046
:10354000000000000000003F003F000C000C000CD9
:10355000000C000C000C000C000C000C000C003FD8
:10356000003F000000000000000080018001800199
:103570008001800180018001800180018061806183
:103580008073003F001E0000000000000000C060CB
:103590008061006300660066006C0078007C006655
:1035A0000066006380618061C06000000000000070
:1035B000000000600060006000600060006000606B
:1035C00000600060006000600060807F807F00001D
:1035D000000000000000C071C071C07BC07AC06AEA
:1035E000C06AC06EC064C060C060C060C060C060BF
:1035F000C0600000000000000000807180718079D0
:1036000080798079806D806D806D8065806780674E
:103610008067806380630000000000000000001EDF
:10362000003F0033806180618061806180618061E2
:10363000806180610033003F001E00000000000038
:103640000000007E007F8063806180618061806314
:10365000007F007E0060006000600060006000008D
:10366000000000000000001E003F00338061806108
:103670008061806180618061806580670033803F08
:10368000401E0000000000000000007E007F8063FC
:10369000806180618063007F007E0066006300635C
:1036A00080618061C0600000000000000000000E2A
:1036B000001F8031803100300038001E0007800379
:1036C000806180618031003F001E0000000000002A
:1036D0000000C0FFC0FF000C000C000C000C000C30
:1036E000000C000C000C000C000C000C000C000086
:1036F0000000000000008061806180618061806165
:103700008061806180618061806180618073003F41
:10371000001E0000000000000000C060C060C0602B
:10372000803180318031001B001B001B001B000E0C
:10373000000E000E00040000000000000000C0C0E9
:10374000C0C0C0C0C0C0C0C0C0CC804C804C805E77
:103750008052805280738061806100000000000010
:103760000000C0C0806080610033003B001E000C80
:10377000000C001E001F003B80718061C0C0000073
:10378000000000000000C0C0806180610033003391
:10379000001E001E000C000C000C000C000C000CA5
:1037A000000C0000000000000000803F803F80010E
:1037B000000300030006000C000C00180018003085
:1037C0000060807F807F000000000000000F000F7D
:1037D000000C000C000C000C000C000C000C000C89
:1037E000000C000C000C000C000C000C000F000F73
:1037F0000000001800180018000C000C000C000C51
:103800000006000600060006000300030003000097
:1038100000000000001E001E000600060006000654
:103820000006000600060006000600060006000668
:1038300000060006001E001E0000000C000C001E0A
:10384000001200330033806180610000000000003E
:103850000000000000000000000000000000000068
:103860000000000000000000000000000000000058
:10387000000000000000000000000000E0FF000069
:10388000000000380018000C0000000000000000DC
:103890000000000000000000000000000000000028
:1038A0000000000000000000000000000000001FF9
:1038B000803F80618001801F803F80618063807FC6
:1038C000C0380000000000000000006000600060E0
:1038D0000060006E007F8073806180618061806124
:1038E0008073007F006E00000000000000000000F8
:1038F000000000000000001E003F80738061006037
:10390000006080618073003F001E00000000000026
:1039100000008001800180018001801D803F807354
:1039200080618061806180618073803F801D0000C4
:103930000000000000000000000000000000001E69
:10394000003F00738061807F807F00608071003F56
:10395000001E0000000000000000C007C00F000CA7
:10396000000C807F807F000C000C000C000C000C11
:10397000000C000C000C0000000000000000000023
:1039800000000000801D803F807380618061806145
:1039900080618073803F801D80018063007F003ED6
:1039A00000000060006000600060006F807F807138
:1039B00080618061806180618061806180610000E0
:1039C0000000000000000006000600000000003EAD
:1039D000003E00060006000600060006000600067F
:1039E00000060000000000000006000600000000C5
:1039F000003E003E00060006000600060006000627
:103A00000006000600060046007E003C0000006044
:103A1000006000600060806100630066006C007CF4
:103A20000076006300638061C06000000000000059
:103A30000000003E003E00060006000600060006EC
:103A4000000600060006000600060006000600004C
:103A5000000000000000000000000000000080DD09
:103A6000C0FFC0CEC0CCC0CCC0CCC0CCC0CCC0CCC1
:103A7000C0CC0000000000000000000000000000BA
:103A80000000006F807F8071806180618061806153
:103A90008061806180610000000000000000000083
:103AA000000000000000001E003F80738061806104
:103AB000806180618073003F001E000000000000F4
:103AC0000000000000000000006E007F8073806135
:103AD0008061806180618073007F006E00600060A3
:103AE000006000600000000000000000801D803FBA
:103AF000807380618061806180618073803F801D00
:103B000080018001800180010000000000000000B1
:103B100000000067803F0039003000300030003086
:103B20000030003000300000000000000000000005
:103B3000000000000000001E803F80610060007FE8
:103B4000803F80018061007F001E000000000000B7
:103B500000000000000800180018007F007F001817
:103B600000180018001800180018801F800F0000AF
:103B70000000000000000000000000000000806164
:103B80008061806180618061806180618063807F0D
:103B9000803D000000000000000000000000000068
:103BA0000000C060803180318031001B001B001B91
:103BB000000E000E000600000000000000000000E3
:103BC00000000000000080DD80DD80DD0055005534
:103BD000005500770077002200220000000000005E
:103BE000000000000000000000008061003300338E
:103BF000001E000C000C001E00330033806100002A
:103C000000000000000000000000000080618061F2
:103C1000803100330033001B001B001B000E000E20
:103C2000000E001C007C007000000000000000007E
:103C30000000C07FC07F800100030006000C001858
:103C40000030C07FC07F00000000000080038007BC
:103C500000060006000600060006000E001C001C00
:103C6000000E00060006000600060006800780031E
:103C70000006000600060006000600060006000614
:103C80000006000600060006000600060006000604
:103C9000000600060038003C000C000C000C000C74
:103CA000000C000E00070007000E000C000C000CBA
:103CB000000C000C003C0038000000000000000078
:103CC0000000000000008038807F004700000000F6
:103CD0000000000000000000000000000F018096BE
:103CE0001180FFB103012C2DB203012C2DB306016D
:103CF0002C2D012C2DB40107C003A20284C101C5E3
:103D0000C2020A00C3028A2AC4028AEEC5010E203A
:103D1000003601C03A0105022A040000007F2B048E
:103D20000000007F04E010021C07123732292D2901
:103D3000252B3900010310E110031D07062E2C2945
:103D40002D2E2E373F0000021013800A29806400B8
:103D5000061016000610160000000000000000010A
:103D60000203040607080900000000010203040022
:103D7000903D00080000002024000000E825000815
:103D8000B43D000824000020B4050000F825000818
:103D90000B120000802F000800000000000000004F
:103DA0000000000001000000100000000000000002
:043DB0000024F400F7
:040000050800019559
:00000001FF
