:020000040800F2
:10000000080E00209D01000863260008C121000899
:1000100061260008CD020008A93D0008000000008C
:10002000000000000000000000000000932600080F
:10003000F103000800000000912600089526000842
:10004000B7010008B7010008B7010008B7010008B0
:10005000B7010008B7010008F5030008B701000860
:10006000B7010008B7010008B7010008B701000890
:10007000B7010008B7010008B7010008B701000880
:10008000B7010008B7010008B7010008B701000870
:10009000B7010008B7010008B7010008B701000860
:1000A000B7010008B7010008B7010008B701000850
:1000B0008927000895270008B7010008B701000844
:1000C000B7010008B7010008B7010008B701000830
:1000D000B7010008B7010008B7010008B701000820
:1000E000B7010008B7010008B7010008B701000810
:1000F000B7010008B7010008B7010008B701000800
:10010000B7010008B7010008B7010008B7010008EF
:10011000B7010008B7010008B7010008B7010008DF
:10012000B7010008B7010008B7010008B7010008CF
:10013000B7010008B7010008B7010008B7010008BF
:10014000B7010008B7010008B701000885260008BC
:10015000B7010008B7010008B7010008B70100089F
:10016000B7010008B7010008B7010008B70100088F
:10017000B7010008B7010008B7010008000000003F
:10018000B7010008B7010008DFF80CD000F08CF8C8
:1001900000480047193E0008080E00200648804726
:1001A00006480047FEE7FEE7FEE7FEE7FEE7FEE75C
:1001B000FEE7FEE7FEE7FEE73527000889010008B5
:1001C0002DE9F05F0546002092469B46884606468C
:1001D000814640241BE0284641464746224600F01F
:1001E00053F853465A46C01A914110D31146184647
:1001F000224600F03AF82D1A67EB01084F462246D6
:100200000120002100F031F817EB00094E41201EBB
:10021000A4F10104DFDC484631462A464346BDE8E6
:10022000F09F40EA01039B0703D009E008C9121FB1
:1002300008C0042AFAD203E011F8013B00F8013BA0
:10024000521EF9D27047D2B201E000F8012B491ECC
:10025000FBD270470022F6E710B513460A46044663
:100260001946FFF7F0FF204610BD202A04DB203A94
:1002700000FA02F1002070479140C2F1200320FAF9
:1002800003F3194390407047202A04DB203A21FAF7
:1002900002F00021704721FA02F3D040C2F120029F
:1002A0009140084319467047064C074D06E0E06848
:1002B00040F0010394E8070098471034AC42F6D3AD
:1002C000FFF766FF243F0008443F0008FEE770B5D3
:1002D0000546D0F87403C46994F84E0003281BD077
:1002E000042818D1217B284602F054FF012812D19E
:1002F000217B284602F039FFA16A80B2814213D0E7
:10030000628B824210D2091AA162216A08442062DB
:10031000032084F84E0070BD237B628B2846216A3F
:1003200002F0EDFA0420F4E7002084F84E0028469D
:1003300002F041FC70BDF8B50646D0F87403012503
:10034000C46994F84D0001280AD0022807D1617BC6
:10035000304602F01FFF012811D002281AD0F8BD44
:10036000228B606A0095637B904200D882B230464F
:10037000E16902F0D4FA022084F84D00F8BD208B28
:10038000626A0021824208D9121A6262E369184443
:10039000E06103D084F84D50F8BD616284F84D10DF
:1003A000304602F00BFCF8BD10B500224FEA020106
:1003B00000EB8203521CC3F87C130F2AF8D30022EF
:1003C0004FF400738418521C84F81C119A42F9D31C
:1003D0000170417001228270C0F8B8130276402388
:1003E0008371417680F81C1380F81D23002010BD16
:1003F0007047000010B50121144800F033F90200E5
:1004000013484FF4805106D0012200F034F911480E
:1004100001F0A2FA15E00022044600F02CF90022B7
:100420004FF48041204600F026F900224FF400519D
:10043000204600F020F9084900200870054801F026
:1004400097FABDE81040012000F028B800000240F3
:10045000000C024030010020000000207047A12263
:100460000274212242740022428282820722C282C6
:1004700002F0C8BB70B5044600F002F90546601CE6
:1004800002D004480078044400F0FAF8401BA0426F
:10049000FAD370BD0400002070470000044910B575
:1004A0000A68024202D00860FFF7F6FF10BD0000A4
:1004B000143C01402DE9F84FDFF87CB100224FF0E9
:1004C00001084FF0030A4FF00F090BF1040E00BFB3
:1004D0000B6808FA02F42340A3426ED14D68022D46
:1004E00001D0122D0ED1D50800EB850CDCF8205080
:1004F0005607F70E09FA07F6B5430E69BE402E43BC
:10050000CCF82060066855000F790AFA05FC07F060
:10051000030726EA0C06AF40374307604E68012EFA
:1005200005D0022E03D0112E01D0122E0ED18668D6
:10053000CF6826EA0C06AF40374387604668A6437B
:100540000C79C4F30014944034434460C6688C684A
:1005500026EA0C06AC403443C4604C68E40065D520
:10056000364C256845F480452560246822F0030553
:1005700004F480440094324C2E19D6F808489507AC
:100580002F0F09FA07F5AC432E4DA84201D10025E3
:1005900024E02D4DA84201D101251FE02B4DA8429A
:1005A00001D102251AE02A4DA84201D1032515E008
:1005B000284DA84202D1042510E037E0264DA8427C
:1005C00001D105250AE0254DA84201D1062505E007
:1005D000234DA84201D1072500E00825BD40254351
:1005E000C6F80858DBF800405D464E689C43F603A9
:1005F00000D51C432C60DEF8004075464E689C43D5
:10060000B60300D51C432C600B4D08352C684E6892
:100610009C43F60200D51C432C60074D0C352C681A
:100620004E689C43B60200D51C432C60521C102A15
:10063000FFF44EAFBDE8F88F003C01404438024063
:100640000030014000000240000402400008024067
:10065000000C02400010024000140240001802404A
:10066000001C02400069084000D001207047426928
:100670004A40426170470AB1816170470904FBE753
:10068000014880687047000004000020D0F8940200
:1006900002F02EBDD0F8940202F03EBD006803F0D7
:1006A0005DB8006803F05EB801EB810100EBC100AA
:1006B00090F85C00704701EB810100EBC100C06C59
:1006C000704710B5044690F89002012809D0012027
:1006D00084F89002206803F050F8002084F890021B
:1006E00010BD022010BDFEB50546DDE9096095F894
:1006F0009042089F012C1ED0012485F8904201EB06
:10070000810405EBC40402F07F0C04F8383F20811B
:100710006170E67184F802C04FEAD21C84F803C00D
:1007200027710097CDE90160286803F0CBF800211C
:1007300085F89012FEBD0220FEBD70472DE9F00342
:1007400001EB8104DDE90689DDE908C700EBC4049B
:10075000022684F83B2084F83F30B8F1000F0AD01D
:1007600084F84260002553B1012B3FD0022B1DD0ED
:10077000032B2AD120E0032584F84250F2E7B8F198
:10078000010F22D10ABBBCF1000F10D1012284F865
:10079000512002E084F8425001E084F8426094F86D
:1007A0005C20022A11D084F83D700EE02AB994F83A
:1007B0005120002AF1D1EDE712B194F8502001E068
:1007C00094F8512092B184F84260C4E9119C84F8F5
:1007D0005C50E56484F8391084F85D50027C04F1C3
:1007E00038010068BDE8F00303F0E8B884F842502F
:1007F000EBE700002DE9F0410446006800250646BD
:1008000002F0B7FF01287DD1206803F020FA00280C
:1008100078D0206803F01BFA800203D521684FF4DA
:1008200000104861206803F012FAC00203D5216865
:100830004FF480104861206803F009FA400103D5A5
:1008400021684FF080604861206803F000FA80075B
:1008500002D5216802204861206803F0F8F9800081
:1008600010D5D6F8400420F02E00C6F840042046EB
:10087000FFF710FF0121206803F0CEF921684FF047
:1008800000504861206803F0E2F9C00102D520461B
:1008900001F007FC206803F0DAF9000705D52046CF
:1008A00000F0ABF8216808204861206803F0CFF918
:1008B000800120D5206803F07AF807464FF0010840
:1008C00012E000BF08FA05F038420CD006EB4510E4
:1008D000D0F80005E9B20004204602D501F0BDF9C8
:1008E00001E001F0D3FA6D1CA068A842EAD82168A3
:1008F0004FF000704861206803F0A9F9C0060ED5DA
:10090000206800E00BE0816921F010018161204640
:1009100001F01EFC2068816941F010018161BDE891
:10092000F08130B58BB0040026D0032084F891020A
:10093000204600F023F8206802F0ACFE04F110011C
:1009400028220D466846FFF76CFC94E80F0002F081
:100950004FFE0121206803F0A4F9282229466846A9
:10096000FFF75FFC94E80F0003F0ECF8012084F837
:10097000910200200BB030BD0120FBE730B50068CC
:1009800087B0B0F1A04F2ED100244FF40070CDE914
:100990000004164D694628460294FFF78BFD4FF47C
:1009A000E05000900220CDE901040A20CDE9034087
:1009B00069462846FFF77EFD0D48016841F0800139
:1009C00001600B481030016841F48041016000680B
:1009D000002200F4804005901146432000F05AFBAD
:1009E000432000F04BFB07B030BD00000000024088
:1009F00034380240006803F03EB9D0F8940202F0A7
:100A0000CDBB10B5044690F8900201280DD001200E
:100A100084F89002206802F079FE0121206802F03B
:100A20005FFE002084F8900210BD022010BD10B5BA
:100A3000044690F89002012809D0012084F8900221
:100A4000206803F044F9002084F8900210BD0220D1
:100A500010BD000070B5040004D094F83D000025DE
:100A600010B106E0012070BD84F83C50204600F033
:100A700075F8242084F83D002068016821F0010108
:100A8000016000F09DFC33492268B0FBF1F1516038
:100A9000314A6368934206D94FF4967359434FF431
:100AA0007A73B1FBF3F12368491C196261689142C2
:100AB0000BD84900B0FBF1F2C2F30B02042A01D2B9
:100AC000042019E0B0FBF1F016E0A3689BB301EB42
:100AD000C10202EB0112B0FBF2F242F480421205B5
:100AE00030D04BB301EBC10202EB0111B0FBF1F0CE
:100AF00040F4804040F400402168C861D4E9070117
:100B0000084321680860D4E903100843216888601D
:100B1000D4E9050108432168C8602068016841F0F4
:100B2000010101602564202084F83D00256384F8DC
:100B30003E50002070BD00E006E001EB4102B0FB3A
:100B4000F2F2CCE70120D7E701EB4101B0FBF1F075
:100B5000D0E7000040420F00A086010010B586B02B
:100B6000044614216846FFF775FB14492068884243
:100B700021D113480021026842F00202026000689D
:100B800000F0020005904FF41070009012200190C8
:100B90000120CDE902010420049069460948FFF7CD
:100BA00089FC07481030016841F4001101600068B9
:100BB00000F40010059006B010BD00000054004085
:100BC00030380240000402402DE9FE43044600682C
:100BD0008168744D744E4FF040270291A84201D1B4
:100BE000314600E0394689680191C1694FF001083A
:100BF000C1F3012102290AD0C16911F4407F06D056
:100C00000199890773D5A84267D1304666E00299F9
:100C1000890707D54068C043000603D40021204659
:100C200001F014FB0198C0070DD02068A84201D143
:100C3000304600E038464068C043400603D40121F6
:100C4000204601F0BFFA01984FF65F79400628D59B
:100C50002068A84201D1314600E039464968C943BD
:100C600089061ED4A84201D1304600E038464068CB
:100C700020F0600101D1304600E038464160206834
:100C8000416801EA090141602068C16880680090FC
:100C900084F84180606C40F002006064204600F0FF
:100CA00086F8029800077BD520684168C943890609
:100CB00076D4416801EA090141602068A84201D167
:100CC000304600E03846406820F0600000D03E46E4
:100CD000706020688068009057E0384640686FEA8E
:100CE0000000000603D40121204601F0AFFA02986B
:100CF000C00708D020684068C043400603D40021E4
:100D0000204601F05FFA02984FF69F7940061FD502
:100D100020684168C94389061AD4416801EA09017B
:100D200041602068A84201D1304600E03846406862
:100D300020F0A00101D1304600E03846416084F83F
:100D40004180606C40F002006064204600F02FF8A3
:100D50000198000724D52068A84201D1314600E05F
:100D600039464968C94389061AD4A84201D1304698
:100D700000E03846406820F0A00000D03E46706099
:100D80002068416801EA0901416084F84180606C93
:100D900040F0040060642046BDE8FE4300F007B860
:100DA000BDE8FE83003800400034004070477047C3
:100DB0002DE9F05F04004FF002064FF000074FF0FE
:100DC00010052CD04FF00209C84684F841905448D1
:100DD0006063204600F0ACF82068C16940F6BF7A35
:100DE00021EA0A01C1612168C1F820802068D0F899
:100DF0001C8060694FF4007B022835D0E06800B1A8
:100E00002025A068202800D86D00012000F074F98A
:100E10002169594525D1E16821B1A90003E00120EC
:100E2000BDE8F09FE900B0FBF1F000BF00EB8000EF
:100E300061694000B0FBF1F0401D0A21B0FBF1F107
:100E400001F00100091AC1F34F060702B01EFE2887
:100E50000AD3606C40F0100060642046FFF7A7FFE3
:100E6000DDE7B0FBF5F0E1E7206921683E43304360
:100E70000862A0882189228B0843A1891143084375
:100E800080B2216840EA080040F40060C861206A2E
:100E900001283AD12348606323482168234A4FF050
:100EA0004023814201D1114600E01946C96921EA77
:100EB0000A0101D1154600E01D46E9612568494651
:100EC000854201D1154600E01D462962256885420C
:100ED00001D1114600E01946CE69616859451BD021
:100EE000D1B100212789B4F80CC047EA0C07B4F847
:100EF00018C04CEA010C47EA0C07B9B2314341F47F
:100F00000061854200D01A46D16100206064012052
:100F100084F84100002083E74FF48071E2E700008D
:100F2000D1220008C90B00080038004000340040FE
:100F300070B586B0044614216846FFF78BF91C494A
:100F40002068884232D11B480024016841F40041E6
:100F50000160006800F400400590164810380168F0
:100F600041F001010160016801F001010591016892
:100F700041F0040101600068022500F004000590C2
:100F800010200090CDE901540626CDE903466946BC
:100F90000948FFF78FFA4FF4A4500090CDE90154AF
:100FA000CDE9034669460548FFF784FA06B070BDEF
:100FB000003C00404038024000000240000802406F
:100FC0007047704702488168027811448160704719
:100FD000040000200B4810B5016841F40071016065
:100FE000016841F480610160016841F48071016031
:100FF000032000F06FF8002000F006F800F024F85D
:10100000002010BD003C024070B50D4D04464FF469
:101010007A712878B1FBF0F00A490968B1FBF0F069
:1010200000F010FC48B9102C07D200222146501EB7
:1010300000F030F800206C6070BD012070BD000031
:1010400004000020100000200B4882B0016841F429
:1010500080410160006800F4804000900648001F55
:10106000016841F080510160006800F080500090FC
:10107000072002B000F02EB84438024000F01F02F2
:10108000012191404009800000F1E020C0F80011EA
:1010900070470000F0B40E4B1B680C46C3F30223EC
:1010A000C3F10705042D00D90425191D072901D214
:1010B000002300E0DB1E012606FA05F1491E21404F
:1010C00099409E40761E16403143F0BC01F0CABAEA
:1010D0000CED00E0064900F0070208684FF6FF0338
:1010E000184040EA0220034A10430860704700009D
:1010F0000CED00E00000FA0501460020012907D1AF
:101100001049096811F4000103D0012900D10E48EB
:1011100070470C48001F01680068490200F03F005A
:1011200001D50A4900E00A49064AB1FBF0F07C32D9
:101130001168C1F3881141431068C0F30270B1FB1C
:10114000F0F07047083802400080BB0000127A00BF
:101150000024F4002DE9F843054600684FF001092A
:10116000C1074FF0000601D1400727D5DFF80C81F9
:10117000C8F86860FFF784FA0746414C05E000BFF5
:10118000FFF77EFAC01B022857D820680001F7D469
:1011900068688101287A41EA007039498431086021
:1011A000C8F86890FFF76CFA074604E0FFF768FAA2
:1011B000C01B022841D820680001F7D52878800795
:1011C00052D52F484030016841F0805101600068DD
:1011D0002C4C00F080500090206840F4807020601B
:1011E000FFF74EFA074604E0FFF74AFAC01B022851
:1011F00023D82068C005F7D5214C7034206810F43E
:10120000407020D0A98901F4407181421BD0206830
:101210001D4920F44070C1F800900E6020602068E5
:10122000C00710D0FFF72CFA064641F2883707E0D6
:10123000FFF726FA801BB84202D90320BDE8F883E5
:1012400020688007F4D5E9680D48C1F30122083011
:10125000032A0BD0016821F4F81101602068A989E4
:10126000C1F30B01084320600020E7E70268074B49
:1012700022F4F81219400A430260EFE700004742E7
:101280000038024000700040400E4742FFFCFF0F54
:101290002DE9F0470E46050065D0DFF81481D8F837
:1012A0000000F7B200F00F00B04207D288F80070DB
:1012B000D8F8000000F00F00B04254D128683D4C2F
:1012C000810712D5400703D5206840F4E050206024
:1012D0002878000703D5206840F46040206020682B
:1012E000A96820F0F000084320602878C0072DD0BE
:1012F000304968680839012812D0022813D0032821
:1013000011D00968890700292DDA216821F003012D
:1013100001432160FFF7B4F9814641F2883A0EE0BB
:1013200009688903EFE709688901ECE7FFF7A8F985
:10133000A0EB0901514502D90320BDE8F0872068E0
:10134000696800F00C00B0EB810FEFD1D8F8001005
:10135000404601F00F01B14207D90770006800F064
:101360000F00B04201D00120E7E72878400705D5FB
:101370002068E96820F4E0500843206028780007DE
:1013800006D52068296920F4604040EAC100206049
:1013900000F026F82168084AC1F30311515CC840E7
:1013A000064908600020FFF72FFE0020C5E7000077
:1013B000003C024008380240083F000810000020AE
:1013C0000448054900680968044AC1F38221515C58
:1013D000C84070471000002008380240183F00083D
:1013E000154810B5006810F00C02144813D04110D5
:1013F000042A0FD0082A0ED10F4C241F226823681C
:1014000002F03F025B0207D52068C0F38810A0FB02
:10141000010106E0084610BD2168C1F38811A1FB57
:1014200000010023FEF7CCFE2168C1F30141491CF5
:101430004900B0FBF1F010BD083802400024F40070
:101440002DE9F84F050076D02878DFF8F8B2BE4CC9
:10145000C00749D0DBF800105846C1F381010129CB
:1014600008D00068C0F3810002280AD1201D00685E
:10147000400206D52068800336D568680028E2D08F
:1014800032E06868B0F5803F10D0B0F5A02F20683A
:1014900010D020F480302060206820F4802020606C
:1014A0006868A0B1FFF7ECF806460CE0206840F44D
:1014B0008030F4E740F480202060F7E7FFF7E0F8A1
:1014C000801B642873D820688003F7D50CE0FFF7F1
:1014D000D7F8064605E000BFFFF7D2F8801B642866
:1014E000F0D820688003F7D42878DFF8608280077E
:1014F0004FF000093ED5DBF80010584611F00C0FF4
:1015000009D00068C0F3810002280BD18D48001F6C
:101510000068400206D42068800715D5E8680128D5
:1015200009D111E0E868B8B10120C8F80000FFF760
:10153000A7F8064605E002E1FFF7A2F8801B0228A3
:10154000C0D820688007F7D52068296920F0F80006
:1015500040EAC10020600DE0C8F80090FFF790F865
:10156000064604E0FFF78CF8801B02281FD820688D
:101570008007F7D42878000722D5724E744869692D
:101580006C3671B101210160FFF77AF8074604E07B
:10159000FFF776F8C01B022809D830688007F7D516
:1015A0000EE0C0F80090FFF76BF8074605E083E017
:1015B000FFF766F8C01B02287ED830688007F7D492
:1015C0002878400768D5DFF87CA100270AF1380A9F
:1015D000DAF80000C0000BD4DAF8001041F08051B6
:1015E000CAF80010DAF80000012700F080500090DF
:1015F000584E3068C00510D4306840F480703060B8
:10160000FFF73EF8009005E0FFF73AF80099401A1E
:10161000022851D83068C005F6D54A4EA868683609
:1016200001280FD00528306810D020F0010030606C
:10163000306820F004003060A868B8B1FFF720F8E7
:1016400000900FE0306840F00100F4E740F0040043
:101650003060F7E7FFF714F80099411A41F288303B
:10166000814264D830688007F4D50EE0FFF708F8AF
:10167000009007E0FFF704F80099411A41F2883022
:10168000814254D830688007F4D42FB1DAF80010C2
:1016900021F08051CAF80010A869C0B3DBF800102F
:1016A000C1F3810102294AD00228484607D0C8F870
:1016B0006000FEF7E5FF00E039E005463AE0474606
:1016C000C8F86000FEF7DCFF064604E0FEF7D8FF2E
:1016D000801B02282BD820688001F7D4D5E90701A8
:1016E0000843A96A1C4A490802EB01416A6A41EAB7
:1016F0008211084395F82C1040EA01611148001F3F
:10170000016001203866FEF7BBFF054605E014E0E6
:10171000FEF7B6FF401B022809D820688001F7D5E4
:101720000BE000BFFEF7ACFF401B022802D90320EC
:10173000BDE8F88F20688001F4D40020F8E701208C
:10174000F6E7000008380240003802400000474237
:10175000800E4742007000400000FFFF70B504009B
:1017600005D00025A56294F8510010B106E00120D3
:1017700070BD84F85050204600F030F8022084F804
:1017800051002068016821F040010160D4E90101A5
:101790000843D4E903121143084361690843218BCC
:1017A00001F400710843E1690843216A0843A16A12
:1017B000084321680860A069042101EA1040616AB9
:1017C0000843216848602068C16921F40061C16153
:1017D0006565012084F85100002070BD10B586B009
:1017E000044614216846FEF735FD134920688842F7
:1017F0001FD112480021026842F480520260006842
:1018000000F4805005900D481438026842F001023F
:101810000260006800F001000590E02000900220C6
:10182000CDE901010520CDE9031069460448FEF722
:1018300041FE06B010BD00000030014044380240B7
:101840000000024010B5401EB0F1807F01D301209E
:1018500010BD4FF0E02460610F21601700F002FF1F
:101860000020A06107202061002010BD7047704754
:1018700030B590F83820012A20D0012280F8382095
:10188000022380F8393003685C6824F070045C60DF
:1018900003685C680D682C435C6003689C6824F0F6
:1018A00080049C6003689C6849680C439C6080F8D5
:1018B0003920002180F83810084630BD022030BDA4
:1018C00010B5040003D094F8390010B107E00120EE
:1018D00010BD002084F83800204600F00DF80220EA
:1018E00084F83900211D206800F05AFF012084F897
:1018F0003900002010BD000008B501681448B1F19E
:10190000804F14D0134A914220D1016841F0020166
:1019100001600068002200F00200009011461D20C6
:10192000FFF7B8FB1D20BDE80840FFF7A7BB016823
:1019300041F0010101600068002200F00100009008
:1019400011461C20FFF7A6FB1C20ECE708BD000099
:1019500040380240000400400168CA6842F00102B9
:10196000CA600068016841F0010101600020704711
:101970000168CA6822F00102CA600068016A41F287
:101980001112114207D1016A9210114203D101686C
:1019900021F0010101600020704770B5044690F805
:1019A0003800012817D0012584F83850022084F827
:1019B00039002068826822F0770222F47F42826038
:1019C0000868502837D00DDC202859D005DC88B3B2
:1019D000102841D151E0022070BD302853D040285A
:1019E0003AD13FE060282ED070280BD0B0F5805F50
:1019F00003D0B0F5005F2FD110E02068816821F09E
:101A0000070115E0CB68D1E90121206800F028FF2B
:101A10002168886840F0770088601DE0CB68D1E9D4
:101A20000121206800F01CFF2068816841F480419A
:101A3000816011E01EE0CA684968206800F022FF5A
:101A40005021206806E0CA684968206800F02BFF32
:101A50006021206800F00EFF84F83950002084F8DF
:101A6000380070BDCA684968206800F00BFF40214B
:101A70002068EFE700212068ECE710212068E9E703
:101A800020212068E6E730212068E3E7704770B541
:101A90000446006801694FF00005C943890715D461
:101AA000C168C943890711D4E91E0161012020766C
:101AB000206880698007204602D0FFF7E7FF04E036
:101AC00000F098F8204600F096F825762068016925
:101AD000C943490717D4C168C943490713D46FF0F4
:101AE00004010161022020762068806910F4407FA3
:101AF000204602D0FFF7CAFF04E000F07BF8204642
:101B000000F079F8257620680169C943090716D4E1
:101B1000C168C943090712D46FF0080101610420AC
:101B200020762068C0698007204602D0FFF7AEFF0C
:101B300004E000F05FF8204600F05DF825762068AC
:101B40000169C943C90617D4C168C943C90613D47A
:101B50006FF010010161082020762068C06910F440
:101B6000407F204602D0FFF791FF04E000F042F8EA
:101B7000204600F040F8257620680169C943C9076E
:101B800008D1C168C943C90704D1891E0161204633
:101B900000F032F820680169C943090609D4C16818
:101BA000C943090605D46FF0800101612046FFF7A3
:101BB0005DFE20680169C943490609D4C168C9436B
:101BC000490605D46FF040010161204600F044F859
:101BD00020680169C94389060BD4C168C9438906D5
:101BE00007D46FF0200101612046BDE87040FFF787
:101BF0003EBE70BD7047704770B504460068124E17
:101C0000B0F1804F15D14FF400513046FEF72FFD53
:101C10000E4D2878401CC0B228700A2809D1012234
:101C200091033046FEF727FD0948FFF7A1FE00208B
:101C3000287008492068884205D1C1133046BDE8A4
:101C40007040FEF714BD70BD000C02400000002083
:101C5000300100200004004070472DE9F05F064687
:101C60000068884600EB4814D4F808054FF0040BD0
:101C7000410708EB88004FF0050A4FF0100706EB0C
:101C8000C00508D5C4F808B5D4F80C0540F002002A
:101C9000C4F80C0532E0D4F80805800601D52020F0
:101CA0002AE0D4F808054FF00809000710D5D4F849
:101CB0000C0540F00200C4F80C0585F85DA0C4F8DE
:101CC0000875C4F808954146306801F056FD15E0E6
:101CD000D4F80805400511D5D4F80C0540F00200F1
:101CE000C4F80C054146306801F047FDC4F808759A
:101CF00085F85D904FF48060C4F80805D4F80805B5
:101D000080050ED5D4F80C0540F00200C4F80C058F
:101D1000414604F5A164306801F02FFD4FF40070D6
:101D20008DE0D4F808054FF00001C0074FF0010224
:101D300036D0306930B1A86CD4F81035C3F3120333
:101D4000C01AE86485F85D20A965C4F8082595F8EF
:101D50003F0020B1022802D003280ED019E0D4F8A9
:101D60000C0540F00200C4F80C05414604F5A164DE
:101D7000306801F002FD27600BE0D4F8000540F068
:101D80000050C4F8000585F85C2041463046FEF757
:101D9000D4FC15F8500F80F001002870BDE8F09FCA
:101DA000D4F80805800733D5D4F80C0520F00200DC
:101DB000C4F80C0595F85D000223012806D005281B
:101DC00007D0062808D0082806D018E085F85C203F
:101DD00015E085F85CA012E0A86D421CAA650328F6
:101DE00003D9A96585F85CB001E085F85C30D4F8CA
:101DF000000520F0804040F00040C4F80005C4F821
:101E0000083595F85C2041463046FEF796FCC5E75C
:101E1000D4F80805000614D5D4F80C0540F00200EB
:101E2000C4F80C05A86D4146401CA865062085F83D
:101E30005D0004F5A164306801F09FFC8020206003
:101E4000ACE7D4F80805C006A8D595F83F000328EC
:101E500009D1D4F80C0540F00200C4F80C05414645
:101E6000306801F08AFC032085F85D00C4F808752D
:101E700095F83F0008B1022890D1D4F8000520F071
:101E8000804040F00040C4F8000587E72DE9F047A6
:101E9000026802EB4114D4F808254FF0040C5207F5
:101EA00009D5C4F808C5D4F80C0540F00200C4F800
:101EB0000C05BDE8F087D4F8082501EB81039206F4
:101EC0004FF0020600EBC30514D52022C4F8082504
:101ED00095F83D20012AECD185F85DC0D4F80C2599
:101EE00042F00202C4F80C25006801F046FC85F8B7
:101EF0005C60DEE7D4F808254FF0000352060FD5EA
:101F000085F85DC0AB65D4F80C2542F00202C4F838
:101F10000C25006804F5A16401F02FFC402010E0BE
:101F2000D4F8082592050ED5D4F80C2542F002020B
:101F3000C4F80C25006804F5A16401F01EFC4FF400
:101F400000702060B5E7D4F808254FF00108D207EB
:101F500010D0AB65D4F80C2542F00202C4F80C2571
:101F6000006804F5A16401F008FCC4F8008085F85D
:101F70005D809EE7D4F808254FF0080912074FF05E
:101F8000050A0DD5C4F80895D4F80C2542F00202D4
:101F9000C4F80C25006801F0F0FB85F85DA088E727
:101FA000D4F808254FF01007D20610D5AB65D4F849
:101FB0000C2542F00202C4F80C25006804F5A16467
:101FC00001F0DBFB032085F85D00276071E7D4F8A2
:101FD000082512060FD5D4F80C2542F00202C4F8E9
:101FE0000C25006804F5A16401F0C7FB062085F804
:101FF0005D008020A5E7D4F80825520511D5D4F856
:102000000C2542F00202C4F80C25006804F5A16416
:1020100001F0B3FB27604FF48060206085F85D908D
:1020200047E7D4F8082592078CD5D4F80C2522F080
:102030000202C4F80C2595F85D20012A0AD0032A73
:1020400026D0042A13D0052A16D0062A17D0082A2B
:1020500015D01FE085F85C8095F83F20022A19D141
:1020600095F8512082F0010285F8512012E085F8A0
:102070005C6085F83D300DE085F85CA00AE0AA6D53
:10208000571CAF65032A03D9AB6585F85CC001E036
:1020900085F85C60C4F8086595F85C20FEF74DFB98
:1020A00007E77CB504680546D4F840040190D4F8ED
:1020B000400420F02E000090019880070DD5019873
:1020C000C00706D0A06920F00051A1612846FEF7A4
:1020D000DDFA009840F002000090019800072CD52E
:1020E000009840F008000090019840071AD5A869B0
:1020F000022803D0E86803280CD00FE00198C0F351
:1021000041400228286803D0012101F085FD05E047
:102110000221FAE74EF66020C4F804042846FEF7D0
:10212000B5FA0AE0D4F8400420F02E00C4F84004C8
:102130002868816941F0005181610198800600980A
:1021400002D540F020000090C4F840047CBD00009F
:102150002DE9F041024600680646016AC1F3434397
:1021600001F00F07C1F30A14022B25D1002C23D054
:1021700007EB870102EBC105696C00291CD02246E0
:1021800001F069FD686C20446864E86C2044E864F0
:1021900006EB4710D0F81015084A11420CD0D0F8C1
:1021A000001521F0804141F00041C0F8001515F8FC
:1021B000500F80F001002870BDE8F0810000F81F8A
:1021C000FEE700002DE9F041C26A012613460468CB
:1021D000921C39B11B491C4D4FF040278C4217D13E
:1021E0002C4616E0E168C2621980418E491E418684
:1021F000418E00290AD101684A684FF69F731A4040
:102200004A601BE080F84160FEF7D0FDBDE8F08138
:102210003C46E468C2621C80428E521E4286428E58
:10222000002AF3D102688A4201D1294600E03946EA
:10223000496821F0600100D03D466960418D002968
:10224000E0D0E3E7003800400034004070B5426A57
:102250000125941C0368446241B11B4912881B4C40
:102260004FF040268B4216D1234615E01188D960E5
:10227000418D491E4185418D00290BD101684A6875
:102280004FF65F731A404A6019E000BF80F8415072
:10229000FEF78CFD70BD3346DA60428D521E4285DA
:1022A000428D002AF6D102688A4201D1214600E01F
:1022B0003146496821F0A00100D034466160418E6A
:1022C0000029E3D070BD0000003800400034004019
:1022D000FEB5016804468868019094F84100012524
:1022E000042833D101984FF69F76C00716D048686E
:1022F000C043400612D4CA682046E16A8B1CE362E0
:102300000A80618E491E6186618E39B901684A680A
:1023100032404A6080F84150FEF752FE0198400674
:1023200014D520684168C94389060FD441683140FB
:1023300041602068C1688068009084F84150606CFA
:1023400040F0020060642046FEF731FD94F8410041
:10235000032834D101984FF65F76800718D520689E
:102360004068C043000613D4616A20468A1C62623A
:1023700022680988D160618D491E6185618D39B9F6
:1023800001684A6832404A6080F84150FEF719FE01
:102390000198000713D520684168C94389060ED407
:1023A00041683140416020688068009084F8415065
:1023B000606C40F0040060642046FEF7F8FCFEBD4F
:1023C00020B1002201210248FEF755B90122F9E7A8
:1023D000000802402DE9F04F87B014216846FDF750
:1023E00039FF53480024016841F010010160016881
:1023F00001F010010591016841F0040101600168DC
:1024000001F004010591016841F08001016001685B
:1024100001F080010591016841F00101016001684E
:1024200001F001010591016841F0020101600168BC
:1024300001F002010591016841F0080101600068A6
:10244000DFF8F0B000F0080005900022082158469F
:10245000FEF711F9DFF8E090012211464846FEF739
:102460000AF9DFF8D8A04FF2100800224146504682
:10247000FEF701F9082601250096CDE901546946C9
:1024800058460394FEF716F80095CDE901546946C5
:1024900048460394FEF70EF800960226CDE9016443
:1024A0000527CDE9034769464846FEF703F8244867
:1024B0000095CDE9010469462248FDF7FBFF0420A1
:1024C000CDE90004DFF88090694648460294FDF7A4
:1024D000F1FFA8020090CDE90164CDE90347694608
:1024E0004846FDF7E7FFCDF80080CDE90154694685
:1024F00050460394FDF7DEFF2020CDE90004694635
:1025000050460294FDF7D6FF10480096CDE901042D
:1025100069465846FDF7CEFF002211460620FEF719
:10252000B9FD0620FEF7AAFD07B0BDE8F08F000058
:10253000303802400010024000080240000C024007
:1025400000003110000002400004024000001210A0
:102550000B480A494FF4007201604FF482714160E8
:1025600000218160C1600161C0E90512C1610162A1
:10257000416281620A21C162FFF7F0B80030014078
:10258000D800002010B586B00024114800940194B2
:102590000294039404944FF080410594016042F248
:1025A000D001C0E901144FF47A71C0E90314FFF7B8
:1025B00087F94FF48050009069460548FFF7EDF920
:1025C000049404A902480594FFF752F906B010BD1F
:1025D0003001002010B586B0002412480094019408
:1025E0000294039404940E490594016042F2D001D0
:1025F000C0E9011441F28831C0E90314FFF760F922
:102600004FF48050009069460648FFF7C6F90494DD
:1026100004A904480594FFF72BF906B010BD00008B
:10262000000400406C01002010B501220649074853
:1026300000F036FD0649054800F08AFFBDE810406D
:10264000024800F0BABF0000D1350008A801002000
:1026500014000020014800F0C7BE0000A8010020BF
:10266000FEE770470907090E002806DA00F00F00A0
:1026700000F1E02080F8141D704700F1E02080F8A0
:10268000001470470148FEF7B5B80000700500203F
:1026900070477047FEF796BC70B596B0302168461B
:1026A000FDF7D8FD14210CA8FDF7D4FD00251F4827
:1026B0001195129513951495016841F080510160B0
:1026C000006800F0805015901948016841F480417D
:1026D00001600068012600F4804015903004CDE9C7
:1026E000006002248001CDE90640082008904FF4E4
:1026F000A870CDE9090407200B906846FEF7A0FEFC
:102700000CA90F2081E831004FF4A0500F90E00297
:10271000109005210CA8FEF7BBFDC020CDE91204E6
:10272000119611A8FEF716FD16B070BD4038024094
:10273000007000401048016841F4700101600F48CA
:10274000016841F0010101600C4A0021083211606A
:1027500002680B4B1A400260031D0A4A1A600268A5
:1027600022F48022026005480C30016002495806BC
:10277000803908607047000088ED00E000380240B2
:10278000FFFFF6FE103000240148FFF780B900007B
:10279000300100200148FFF77AB900006C010020E9
:1027A000F0B50268234B244D244E254F254C4FF0A5
:1027B000804C984209D0604507D0A84205D0B0426D
:1027C00003D0B84201D0A04204D122F0700E4A6872
:1027D00042EA0E0298421BD0604519D0A84217D099
:1027E000B04215D0B84213D0A04211D0164DA84225
:1027F0000ED0164DA8420BD0154DA84208D0154D4D
:10280000A84205D0144DA84202D0144DA84203D1CD
:1028100022F44075CA682A4302608A68C2620A6864
:102820008262984201D0A04201D10969016301216D
:102830004161F0BD0000014000040040000800407C
:10284000000C0040000401400040014000440140F1
:102850000048014000180040001C004000200040DB
:1028600010B5846842EA032224F47F440A432243D9
:10287000826010BD826822F070020A4342F00701B4
:102880008160704710B5036A046A24F00104046291
:10289000846924F0F00444EA021423F00A020A4393
:1028A0008461026210BD10B5036A23F01003036255
:1028B0008369046A23F4704343EA023224F0A003DC
:1028C00043EA01118261016210BD10B500224FF68A
:1028D000FF7300EB8204B4F87C43240409D49A42C9
:1028E00005D000EB820041F40041C0F87C13D0B267
:1028F00010BD521CD2B20B2AEBD31A46F7E77FB5B4
:102900001C46012501AE0023009586E80E00022337
:102910002A46214600F0D2FC04B0002070BD7FB5ED
:102920001D4690F81D33089C03B100240123CDE916
:102930000031CDE9022402230022294600F0BEFC2A
:1029400004B0002070BD70B50446D0F87403C169AE
:1029500020464031FDF783FD050004D1D4F8C4239F
:10296000022120469047284670BD70B50546D0F834
:1029700074030026C469217839B1284600F01FF994
:102980002178284600F0A0F92670217B39B128462D
:1029900000F015F9217B284600F096F92673617B3B
:1029A00039B1284600F00BF9617B284600F08CF91C
:1029B0006673D5F87403C06920B101F005FAD5F843
:1029C0007403C661002070BDFEB5022705460123D1
:1029D0003A46394600F056F90646FF287ED00146B1
:1029E000284600F0C3FD502001F058FAD5F87413C2
:1029F0000446C86106EB860000EBC60005EB40000C
:102A000090F848130A0603D56170B0F84A03608154
:102A100061782846FFF759FF2070014695F81D039D
:102A2000638903228DE80D0095F81C3362782846EF
:102A300000F05CFC21780022284600F00FFC002307
:102A40001A460A21284600F01DF9FF2854D000EB51
:102A5000800101EBC00005EB400090F848130A0626
:102A600004D5E173B0F84A13618303E0A173B0F8B1
:102A70004A13218390F850130A0604D5E173B0F885
:102A80005203608303E0A173B0F852032083A17B5B
:102A90002846FFF71AFF6073E17B2846FFF715FF12
:102AA0002073208B95F81D1302260091CDE901605B
:102AB00095F81C33A27B617B284600F017FC608BE5
:102AC00095F81D130091CDE9016095F81C33E27B68
:102AD000217B284600F00AFC002000E00CE084F88E
:102AE0004C000246617B284600F0B8FB217B0022A7
:102AF000284600F0B3FB00273846FEBD70472DE99D
:102B0000F0410546D0F8740301270026C4694FF050
:102B1000040894F84C0005284AD2DFE800F00305C9
:102B2000163B4200002743E02122A16C2A74202298
:102B30006A746E82AE8207222846EA8200F062F84A
:102B400048B9022084F84C0032E004F140012846E4
:102B5000FDF785FC20B101282AD084F84C8027E0BD
:102B600084F84C60A06C94F84410027991421FD113
:102B700094F84610827991421AD194F8451042791E
:102B8000914215D1216C0068814211D12846FFF78E
:102B9000B5FF0DE02846FDF7CEFB2846FDF797FB75
:102BA00006E00021284600F00FF808B984F84C60D0
:102BB0003846BDE8F081704700207047704710B577
:102BC00000F086FA002010BD8278012A07D1022287
:102BD000027401224274002242828182C282002257
:102BE000114600F00FB87FB51C46012501AE002349
:102BF000009586E80E002A46214600F05FFB04B0EF
:102C0000002070BD70B504460120A3780546012B55
:102C100009D0022B06D1204600F00AF948B102285B
:102C200000D1A57070BDA160A28125760221A1709E
:102C300070BDA5700021217670BD7FB51D4690F84E
:102C40001D33089C03B100240123CDE90031CDE9F7
:102C5000022400231A46294600F030FB04B000206D
:102C600070BD1FB500231446CDE900310822CDE91F
:102C700002231A46214600F021FB04B0002010BDBB
:102C8000FDF7F8BB70B5002400F2323004EB840588
:102C900005EBC40500EB4505EE7B0A358E4201D0FD
:102CA000FF2909D1AE79964201D0FF2A04D1ED79EE
:102CB0009D4207D0FF2B05D0641C64B2022CE5DBDB
:102CC000FF2070BDE0B270BD0B2907D200EB810080
:102CD000B0F87C13C1F30E01C0F87C1300207047DC
:102CE00030B48578029C012D0FD141F08001017430
:102CF0000621417403214282B1EB122F02D140F22E
:102D0000094100E000218182C482224630BC19467C
:102D1000FFF778BF0A8803781A440A8001780844CC
:102D20007047F8B50E4600F11C05009104462B468D
:102D30004FF400720021FFF7D3FF070005D13246A0
:102D4000294604F2323000F0DBFA3846F8BD38B5D7
:102D50000D460091044600F58E734FF480720021F9
:102D6000FFF7BEFF01003DD104F5487094F81C2127
:102D7000027094F81D21427094F81E2194F81F31BE
:102D8000082D02EB0322428094F82021027194F86E
:102D90002121427194F82221827194F82321C27179
:102DA00020D994F8242194F8253102EB03220281E2
:102DB00094F8262194F8273102EB0322428194F8FB
:102DC000282194F8293102EB0322828194F82A21E8
:102DD000827394F82B21C27394F82C21027494F816
:102DE0002D214274084638BDF8B51C46164600939E
:102DF00041F4407200F58E731D460021FFF770FF0D
:102E0000002814D16978032911D129788A1EA24299
:102E100000DC14460021A2B2AD1C04E06B5C891CEE
:102E200006F8013B89B29142F8D300213170F8BD18
:102E30002DE9F84F04460125007E0B262F464FF062
:102E400009084FF007094FF0050B4FF00D0A0C2849
:102E50001ED2DFE800F0A9060E212C38445C67780A
:102E60008495627904F110012046FFF7FAFE0220F2
:102E70000DE06179204600F08DF9012877D1207CA2
:102E8000E18A00F0800021B180283BD10320207628
:102E90008AE0802814D02FE0D4F8B803E0812379A9
:102EA000A2892046A168FFF79EFE0420EFE7217962
:102EB000204600F06FF9012802D0052841D056E0E5
:102EC00084F8188070E000976379A2892046A16891
:102ED000FFF7B3FED4F8B803E0810620D7E76179A5
:102EE000204600F057F9012806D0052807D002280F
:102EF00008D0042809D057E084F8189054E00C203A
:102F000020761EE084F818B04EE026764BE00022D2
:102F1000237911462046FFF766FED4F8B803E08116
:102F20000820B4E72179204600F034F9012804D0C4
:102F3000042823D0052804D036E084F818A0002502
:102F400032E0032530E000970022637911462046E5
:102F5000FFF773FED4F8B803E0810A2097E76179A0
:102F6000204600F017F9012804D00228A8D0042830
:102F700004D019E0002584F818A015E0267613E0A7
:102F8000607E401CC0B26076022805D8204600F062
:102F900085F92776A77007E0D4F8C42306212046D8
:102FA00090470020607602252846BDE8F88FFEB5E0
:102FB0000446012640780025374604F58E7208281D
:102FC0006CD2DFE800F004161D434A535762082113
:102FD0002046FFF7BCFE002860D194F82703A071BB
:102FE000677094F81D130091CDE9015094F81C33DB
:102FF00019E012212046FFF7AAFE30BB022033E081
:103000000121204600F0BDFAF8B90220FFF738FE92
:1030100084F81C7303206070A07994F81D13CDE927
:1030200000153B46029021798022204600F05EF98F
:10303000A07994F81D130091CDE9015094F81C3348
:1030400061790022204600F051F927E0092120464D
:10305000FFF767FE10BB042006E0B4F834132046E7
:10306000FFF75FFED0B90520607017E094F82E13CB
:10307000062502E094F82F13072521B1FF232046EF
:10308000FFF7B2FE50B9657008E094F8301321B133
:10309000FF232046FFF7A8FE00B900263046FEBDFC
:1030A00070B50D46040011D084F8BC230020C4F88C
:1030B0007403C4F878032046FDF776F90DB1C4F81F
:1030C000C453204600F07AF8002070BD022070BD85
:1030D00010B50024D0F8C003FDF7F3FA30B1012891
:1030E00001D0022801D0022400E00124204610BDB6
:1030F00010B5017819B10178012909D00AE0012140
:1031000080F81E13D0F8C42322B10421904701E0B7
:1031100002210170002010BD10B5044600F0BEF879
:1031200021792046FFF7D0FD61792046FFF7CCFDDD
:10313000002084F81E03D4F8C42312B105212046D0
:103140009047204600F09AF803202070002010BD20
:1031500010B590F8BC03012802D10846FFF730F9FA
:10316000C820FDF787F9002010BDD0F8C003FDF797
:10317000A2BA10B50124D0F8C003FDF792FA20B12D
:10318000012805D0022803D101E0002400E0022438
:10319000204610BDD0F8C003FDF786BAD0F8B813AA
:1031A000491CC0F8B81301780A2905D1D0F8741366
:1031B000002901D0896908477047000010B504460E
:1031C00090F8BC0301281CD10F484FF0A041002209
:1031D000C0F89442C4F8C003016008218160032153
:1031E000C0E903120221C0E90612FDF79AFB08B1FB
:1031F000FDF734F90448FDF751FA0146204600F086
:103200002AF8002010BD000070050020FEB508ACB3
:1032100094E8E0008DE8E0000024D0F8C003FDF75A
:1032200062FA30B1012801D0022801D0022400E066
:1032300001242046FEBD10B50024D0F8C003FDF7E0
:10324000D9FB30B1012801D0022801D0022400E0CE
:103250000124204610BDC0F8B8137047D0F8C00351
:1032600001EB810100EBC10090F83B1011B180F837
:10327000502001E080F851200020704710B5002454
:10328000D0F8C003FDF7BDFB30B1012801D0022802
:1032900001D0022400E00124204610BD10B5002416
:1032A000D0F8C003FDF7C3FB30B1012801D00228DC
:1032B00001D0022400E00124204610BD2DE9FF4189
:1032C0000AAC94E8E0108DE8E0100024D0F8C003C8
:1032D000FDF734FA30B1012801D0022801D00224D0
:1032E00000E0012404B02046BDE8F081FEB508AF3F
:1032F00097E870008DE87000FFF788FF0020FEBDA2
:103300002DE9F84105460B782B704B786B708B7864
:10331000CC78084603EB04236B800B792B714B7937
:103320006B718B79AB71CB79EB710027017A2972C4
:10333000092A57D90921ADF800104EE06946FFF778
:10334000E9FC4178042946D107EB870101EBC7016D
:1033500005EB4108017888F80A10417888F80B10CD
:10336000817888F80C10C17888F80D10017988F8F8
:103370000E10417988F80F10817988F81010C17902
:1033800008F10A0488F81110017A2172002618E069
:103390006946FFF7BFFC4178052912D108EBC60149
:1033A00002780A7542784A7582788A75C278CA7539
:1033B00002794379761C02EB03220A8382798A76AA
:1033C00076B22179B14204DD6988BDF800209142CE
:1033D000DED87F1C7FB2022F04DA6A88BDF80010A5
:1033E0008A42ABD8BDE8F881FEB5044602208DF8CC
:1033F00000002178002008270C2605460B2913D24F
:10340000DFE801F006A41399A4428250575F9200AE
:1034100094F81E03002807D001202070C820FFF771
:103420002FFC2046FFF707FF90E06420FFF728FC01
:103430002046FFF79EFE84F81D0305202070002122
:103440002046FFF742FA607180212046FFF73DFADF
:1034500020710146A07994F81D230092CDE9015016
:1034600094F81C3380222046FFF740FFA07994F89F
:103470001D130091CDE9015094F81C3361790022AD
:103480002046FFF733FF61E02046FFF790FDD0BBF9
:1034900084F81F5394F83103012801D007203FE03E
:1034A000277053E0D4F8C4236AB301212046904723
:1034B000F6E794F83713204600F071F818BB09209E
:1034C0002EE0D4F87813F1B1C4F8745394F8412382
:1034D00004EB8001D1F870130B79934201D1C4F849
:1034E0007413401C10F0FF00F2D0D4F87403C8B17C
:1034F000816820468847A8B906202070D4F8C423E4
:1035000003212046904721E0D4F8740350B10169AB
:10351000204688478DF800009DF80000B0B90A20C9
:10352000207013E0267011E0D4F8740370B1416983
:10353000204688470AE02046FCF736FFD4F874039B
:1035400020B1C16820468847C4F874530020FEBDEE
:10355000002211B1D0F8783313B10222104670471F
:103560000123C0F87833C0F87013F7E70246002053
:1035700092F836338B4202D982F81F13704702202B
:1035800070478278012A06D1002202740523437411
:1035900041828282C28200221146FFF733BB8278C9
:1035A000012A06D1002202740923437441828282D7
:1035B000C28200221146FFF725BB10B50446FFF773
:1035C0005DFE01212046FFF7C3FD002010BD000075
:1035D00001290AD00548022906D0042903D005296B
:1035E00003D1032100E00121017070470100002098
:1035F00070B50446049D06990D9801290CD0E06829
:1036000040F04000E060204600F028F84FF48030A1
:10361000A063012D16D01DE0A16B21F48031A163C0
:10362000E1680D4A1140E160E16821F44011E16078
:10363000012803D1E06840F48010E060204600F0EB
:103640000DF8E6E7A06840F00600A060A06840F032
:103650002000A060002070BDBFFFBDFF01220C490B
:1036600002E0521C8A420BD80369002BF9DA026986
:1036700042F001020261012204E0521C8A4201D997
:10368000032070470369DB07F7D100207047000073
:10369000400D0300816821F0010181600020704726
:1036A00030B50246012400230C4800EAC44040F033
:1036B000004502F5A06000EB4110056102F5A06035
:1036C00000EB4110036823F0804343F0004302F510
:1036D000A06000EB41100360002030BD0000F81F27
:1036E00008B5D0F8402422F02E020092D20405D46E
:1036F000012909D1009941F4805103E021B90099D1
:1037000021F48051C0F84014002008BD816841F0C8
:103710000101816000207047002110220261054AEA
:10372000491C914201D9032070470369DB06F7D495
:1037300000207047400D03000022202343EA81113E
:1037400001610549521C8A4201D90320704703696F
:103750009B06F7D400207047400D0300D0F8080402
:1037600080B2704708B5D0F840040090C0F34140E3
:1037700008BD406900F00100704710B50246002303
:1037800002F5A06000EB41100068C0F3814040B139
:1037900002F5A06000EB41100068C0F381400228F0
:1037A00046D102F5A06000EB4110006840F0804473
:1037B00002F5A06000EB41100460D06A00F47F00C5
:1037C00048BB02F5A06000EB4110006820F0004407
:1037D00002F5A06000EB4110046002F5A06000EB70
:1037E0004110006840F0004402F5A06000EB411079
:1037F000046000BF581C0346B0F57A7F00D909E089
:1038000002F5A06000EB4110006800F00040B0F14C
:10381000004FEFD053E002F5A06000EB41100068CC
:1038200040F0004402F5A06000EB4110046046E067
:1038300002F5A06000EB4110006840F0804402F502
:10384000A06000EB411004604FF48260805880B2A9
:1038500048BB02F5A06000EB4110006820F0004476
:1038600002F5A06000EB4110046002F5A06000EBDF
:103870004110006840F0004402F5A06000EB4110E8
:10388000046000BF581C0346B0F57A7F00D909E0F8
:1038900002F5A06000EB4110006800F00040B0F1BC
:1038A000004FEFD00BE002F5A06000EB4110006884
:1038B00040F0004402F5A06000EB411004600020DD
:1038C00010BD0000F0B5DDE906564FF0FF3C00EBFF
:1038D0004114059FC4F808C535B1012D21D0022D32
:1038E00002D0032D2AD114E040F29D4CC4F80CC53F
:1038F0005FEA026C05D500BFD4F80CC54CF4807C9F
:103900001AE0B0F1A04F19D0D4F80CC54CF0600CFF
:1039100012E040F29D6CC4F80CC55FEA026CEBD477
:103920000CE040F2252CC4F80CC55FEA026C05D50A
:10393000D4F80CC54CF4C07CC4F80CC5D0F818C43D
:103940004FF0010E0EFA01FE4CEA0E0CC0F818C43E
:10395000816941F0007181614FF0FE5000EA8350AF
:103960004FF4F04101EAC22108434FF4004101EA5B
:1039700002210843022F10D05FF0000140EA4140CD
:103980004FF4402101EA85410843C6F30A01084388
:10399000C4F80005032D02D007E00121EEE7D4F8BA
:1039A000000540F00050C4F800050020F0BD0146BD
:1039B00040F21440405880B2704700002DE9F84FA3
:1039C00005460C4616464FF0000BDA4600274FF42A
:1039D0008078B946B5F1A04F1CD02079D0B94EB946
:1039E0006079012806D161782846FFF759FE00204A
:1039F000BDE8F88F012E0DD1607805F5A06101EBCF
:103A00004010C06820F06002607801EB4010C26096
:103A100000206071206968B1218920690844401E36
:103A2000B0FBF1F087B2474505DD47462089784372
:103A3000206100E00127E07810B1208978432061FF
:103A40002069C0F312003E4901EAC7410843A17A48
:103A50004FF0C04202EA41710843617805F5A06267
:103A600002EB4111086136B1607805F5A06101EB08
:103A70004010E26842614FF48160405900F001005B
:103A800080F0010B607805F5A06101EB4010006843
:103A900020F00052607801EB40100260607801EB8A
:103AA0004010006840EA4B72607801EB4010026001
:103AB000607801EB4010D0F8009029F0804949F07F
:103AC0000049607801EB4010C0F80090AEBBE07890
:103AD00098BB206988B3E07930B1012813D002285F
:103AE00003D003281ED10DE000BF2069C01CC0F325
:103AF0008F0AE86A80B2504503D2A86940F02000DE
:103B0000A86110E000BF2069C01CC0F38F0A4FF409
:103B10008260405980B2504503D2A86940F080606D
:103B2000A86100E000BF00BF00200090208A83B29F
:103B300062782846E16800F023F9002058E7000089
:103B40000000F81F2DE9F047174604460025DDF870
:103B50002090C0F8005E806B20F48020A063A06BF2
:103B600020F40020A063A06B40F40010A0634FF08D
:103B7000A048032B06D1444504D0D4F8000440F0FB
:103B8000040003E0D4F8000420F00400C4F80004AA
:103B900010212046FFF7D0FD2046FFF7BDFD002095
:103BA000461E06E004EB4011C1F80865C1F80C554B
:103BB000401C8742F6D801212046FFF791FDC8201E
:103BC000FCF758FCA5616661444505D18020606220
:103BD0000C48A0620C4805E04FF4007060620B488E
:103BE000A0620B48C4F80001B9F1000F03D1A0692D
:103BF00040F01000A061A06906490843A0610020C0
:103C0000BDE8F08780006000E00040000002000195
:103C10000003E000080020A3D0F8002422F00302F3
:103C2000C0F80024D0F8002401F003031A43C0F8C0
:103C30000024012902D0022903D006E04BF680318E
:103C400001E041F27071C0F804140020704741692E
:103C500080690840704710B503460020D21C9208C6
:103C600003F5805303E01C6841F8044B401C90426C
:103C7000F9D3084610BD38B50446D0F8400420F00A
:103C80002E00009040F48070C4F840040A2004F52F
:103C90008864FCF7EFFB009820F48070206000201F
:103CA00038BD10B5C26822F0C042C260012901D0FF
:103CB00021B107E0C16841F0005102E0C16841F064
:103CC0008041C1603220FCF7D5FB002010BDF0B56B
:103CD00005460027A86820F00100A86010212846AA
:103CE000FFF72AFD2846FFF717FD002411E005F530
:103CF000A06000EB4410066846F0804626F00046BF
:103D000026F4004605F5A06000EB44100660601C38
:103D1000C4B20F2CEBDD002423E005F5A06000EB1E
:103D20004410066846F0804646F0004626F40046F9
:103D300005F5A06000EB4410066000BF781C074644
:103D4000B0F57A7F00D909E005F5A06000EB4410DA
:103D5000006800F00040B0F1004FEFD000BF601CE1
:103D6000C4B20F2CD9DD4FF0FF3140F21440415165
:103D700008466861A86840F00100A8600020F0BD16
:103D800030B50024039D6DB9DB1C9B0800EB0230AD
:103D900000F5805004E000BF51F8042B0260641C61
:103DA0009C42F9D3002030BDFEE702E008C8121F94
:103DB00008C1002AFAD170477047002001E001C114
:103DC000121F002AFBD1704710B5002821D0114BDB
:103DD0000022001F196803E0814203D80A4649689F
:103DE0000029F9D152B11368841A9C4204D10068A9
:103DF00018441060104602E0506000E0186039B1CD
:103E000002680B1A934203D10B681A440260496896
:103E1000416010BD34000020FDF7DCF8FEF73CFCEB
:103E2000FEF7D8FA18481749002401601749C0E97D
:103E300001144FF48041C0E9034144618461C461CD
:103E40000462FCF707FE104811495430016049151F
:103E5000C0E90114C0E903410E49C0E90514C46179
:103E60000462FCF7A5FFFEF773FBFEF7DDFBFEF730
:103E700089FBFEF7AFFB0848FDF76EFDFEF7EAFB96
:103E8000FCE70000005400403C000020A086010038
:103E9000003C0040007701006C010020F0B50B30C1
:103EA000154D20F007010024144A0FE003688B42EF
:103EB0000BD38B4205D95E1A43184768C3E90067E4
:103EC00000E04368136002C004E0021D106800288F
:103ED000ECD12046002802D1286808B10020F0BDAE
:103EE000064A07481060074A121A22F00702C0E982
:103EF000002401202860D7E738000020340000208B
:103F00000C080020080A002000000000000000004B
:103F1000010203040607080900000000010203046F
:103F200043444300443F0008000000203C000000E0
:103F3000AA3D0008803F00083C000020CC0D000096
:103F4000BA3D000800000000010000001000000061
:103F5000000000000024F400203F000802000000E0
:103F6000C92900086B29000847290008FF2A000812
:103F7000B92B000800000000000000000000000055
:040000050800018965
:00000001FF
